:100000000428FF3FFF3FFF3FDF30031383168500C7
:100010002F30860087018B01031783129E019F01F9
:10002000193003138316990018157A258701850165
:100030000617E830A1000330A200A301A401B025F7
:100040007008003C03185E282530BC002F30B40037
:10005000B5013430BD0032242530BC007C2270084C
:10006000A3007108A40080307106F3008030033AC9
:100070007302031D3D28E8307002FF30031C00307E
:10008000F30080307106F20080300B3A7202031DDB
:100090004B28B8307002FF3003180030F2007208AD
:1000A0007305F000031958282308A1002408A200B2
:1000B000712003138312A301A401A50171200D3047
:1000C00003138312FB00FF30FA00FB0B68286B2838
:1000D000FA0B68286528F330FA00FA0B6D28000047
:1000E0001F28E830F4000330F5002108F000220852
:1000F000F100D8237008BA007108BB003A08AC00C0
:100100003B08AD006430F400F5012108F00022083E
:10011000F100D8237008B6007108B7003A08F00063
:100120003B08F1000A30F400F5017524700836022E
:10013000B8007108031C013F3702B9003808AE004F
:100140003908AF000A30F400F5012108F000220858
:10015000F100D8237008B6007108B7003808F00025
:100160003908F1000A30F400F50175247008B60270
:10017000031CB7037108B7023A08F0003B08F1000E
:100180006430F400F501752470083602F00071083F
:10019000031C013F3702F1007008B0007108B10084
:1001A0000A30F400F501752470082102B2007108CC
:1001B000031C013F2202B3003808F0003908F100A7
:1001C0006430F400F50175247008B202031CB30317
:1001D0007108B3023A08F0003B08F100E830F4007F
:1001E0000330F50075247008B202031CB3037108D4
:1001F000B30200303B06031DFF2801303A06031D01
:1002000003290612061700302D06031D09290230A6
:100210002C06031D0D290616061332088700071643
:10022000871207130730FB00FF30FA00FB0B192978
:100230001C29FA0B192916297830FA00FA0B1E2905
:1002400000000000300887000712871607130730E8
:10025000FB00FF30FA00FB0B2E293129FA0B2E2967
:100260002B297830FA00FA0B3329000000002E0801
:1002700087000712871207170730FB00FF30FA00CC
:10028000FB0B43294629FA0B432940297830FA0011
:10029000FA0B48290000000008004D2903138312BF
:1002A0007408F8027508031C750FF9027608031C20
:1002B000760FFA027708031C770FFB02F30D073065
:1002C000FC00730DF80DF90DFA0DFB0D7408731C8D
:1002D0007729F8027508031C750FF9027608031CCC
:1002E000760FFA027708031C770FFB028429F807C0
:1002F00075080318750FF90776080318760FFA07C3
:1003000077080318770FFB07F30DFC0B6129720DBB
:10031000F80DF90DFA0DFB0D7408731C9D29F802F8
:100320007508031C750FF9027608031C760FFA0294
:100330007708031C770FFB02AA29F8077508031832
:10034000750FF90776080318760FFA077708031870
:10035000770FFB07F20D0730FC00720DF80DF90D59
:10036000FA0DFB0D7408721CC329F8027508031CF2
:10037000750FF9027608031C760FFA027708031C42
:10038000770FFB02D029F80775080318750FF907D6
:1003900076080318760FFA0777080318770FFB071C
:1003A000F20DFC0BAD29710DF80DF90DFA0DFB0DD9
:1003B0007408721CE929F8027508031C750FF9020C
:1003C0007608031C760FFA027708031C770FFB02EE
:1003D000F629F80775080318750FF907760803184A
:1003E000760FFA0777080318770FFB07F10D073030
:1003F000FC00710DF80DF90DFA0DFB0D7408711C60
:100400000F2AF8027508031C750FF9027608031C01
:10041000760FFA027708031C770FFB021C2AF807F5
:1004200075080318750FF90776080318760FFA0791
:1004300077080318770FFB07F10DFC0BF929700DF6
:10044000F80DF90DFA0DFB0D7408711C352AF80230
:100450007508031C750FF9027608031C760FFA0263
:100460007708031C770FFB02422AF8077508031868
:10047000750FF90776080318760FFA07770803183F
:10048000770FFB07F00D0730FC00700DF80DF90D2C
:10049000FA0DFB0D7408701C5B2AF8027508031C2A
:1004A000750FF9027608031C760FFA027708031C11
:1004B000770FFB02682AF80775080318750FF9070C
:1004C00076080318760FFA0777080318770FFB07EB
:1004D000F00DFC0B452A70187B2A7408F807750884
:1004E0000318750FF90776080318760FFA077708CF
:1004F0000318770FFB07080003138312BD01BE0129
:100500001030C1002730C200BF01C001C501C601C3
:10051000C701C801C301C4013F083C0784000008AB
:10052000F4007408003A0319F82A3F083C078400D5
:100530000008F40074082D3A031DA52AFF30C300FB
:10054000C401BF0A0319C00A8C2A3F083C07840073
:100550000008F4007408203A0319E82A3F083C0711
:1005600084000008F0003030F800F901FA01FB01C6
:100570007008F400F501F601F7017408F000750841
:10058000F1007608F2007708F3007808F0027908A5
:10059000031C790FF1027A08031C7A0FF2027B0820
:1005A000031C7B0FF3024108F4004208F500F6013A
:1005B000F701BE247008C50771080318710FC6073C
:1005C00072080318720FC70773080318730FC80760
:1005D0000A30F400F5014108F0004208F1005D2501
:1005E0007008C1007108C200BF0A0319C00A8C2A32
:1005F000430844040319002B0630C100C201032B39
:100600000530C100C20140084206031D092B410804
:100610003F060319252B0A30F400F501F601F70116
:100620004508F0004608F1004708F2004808F300CA
:100630003E237008C5007108C6007208C700730821
:10064000C800BF0A0319C00A032B4508BD004608AD
:10065000BE0000304406031D2F2BFF304306031D50
:10066000392B3D08003CBD003E08031C013FBE0184
:10067000BE023D08F0003E08F1000800031383129B
:10068000FC01F71BFC0AFD01FB01FA01F901F8016D
:1006900073087204710470040319D22B730877066F
:1006A000A000A01BFD09F71F602BF409F509F6094E
:1006B000F709F40A0319F50A0319F60A0319F70AE8
:1006C000F31F6D2BF009F109F209F309F00A031980
:1006D000F10A0319F20A0319F30A73087704A00058
:1006E000A01B8E2B4E21FC1BAB2BFD1FD22BF00928
:1006F000F109F209F309F00A0319F10A0319F20AE0
:100700000319F30AF809F909FA09FB09F80A0319A8
:10071000F90A0319FA0A0319FB0AD22BF71FA52BB2
:10072000F31B9F2B7308FB007208FA007108F90095
:100730007008F800F301F201F101F001752BF301EB
:10074000F201F101F001F00A0034F309F209F109B4
:10075000F009FC17722BF80A0319F90A0319FA0AAF
:100760000319FB0A74087802031D752B75087902BA
:10077000031D752B76087A02031D752B77087B0203
:10078000031D752BFB01FA01F901F801F00A0319A9
:10079000F10A0319F20A0319F30AF31F752BA001DA
:1007A0002016FF34A0017C1CD62BA225003F080098
:1007B00003138312FD01F901F80171087004031994
:1007C000003471087506FA00FA1BFD09FB01F51FDC
:1007D000EE2BF409F509F40A0319F50AF11FF52BBC
:1007E000F009F109F00A0319F10A71087504FA0019
:1007F000FA1B0A2C30257B181D2CFD1F0034F00934
:10080000F109F00A0319F10AF809F909F80A0319BC
:10081000F90A0034F51F192CF11B152C7108F90089
:100820007008F800F101F001FD2BF101F001F00A70
:100830000034F109F009FB0AFA2BF80A0319F90A46
:1008400074087802031DFD2B75087902031DFD2B2A
:10085000F901F801F00A0319F10AF11FFD2B00005C
:10086000FF34080003138312BE01BF01C2013D081B
:1008700084000008C100B0257008003A03196B2CF1
:100880008F257008C0003E083C07F1007108840005
:10089000710884007008800040084106031D552C33
:1008A0003F083E02C200BF0A572CBF01C2013F08E9
:1008B0003D0784000008F1007108C1007108003A8A
:1008C000031D632C6C2CBE0A3E08143C03186B2CD1
:1008D0001330C2006C2C3B2C42083C07F00070081F
:1008E0008400700884008001080003138312FB0158
:1008F000FA01F9018030F800FD01F11F852CF109A2
:10090000F009F00A0319F10AFD0AF51F8D2CF5090B
:10091000F409F40A0319F50AFD0AF10CF00C031CA2
:100920009A2C7408F90775080318750FFA0703184D
:10093000FB0A0310F01FA22C7408FA070318FB0A25
:100940007508FB07FB0CFA0CF90CF80C031C8D2C3A
:100950007D1CB52CFB09FA09F909F809F80A0319F5
:10096000F90A0319FA0A0319FB0A7B08F3007A084B
:10097000F2007908F1007808F000080003138312F0
:10098000FD01F31FD02CF009F109F209F309F00A77
:100990000319F10A0319F20A0319F30A8130FD075A
:1009A000F71FDE2CF409F509F609F709F40A031913
:1009B000F50A0319F60A0319F70AFD0AF9247D1C42
:1009C000F82CF009F109F209F309F809F909FA0913
:1009D000FB09F00A0319F10A0319F20A0319F30AD1
:1009E0000319F80A0319F90A0319FA0A0319FB0A89
:1009F0000800031383122230FC00F801F901FA0108
:100A0000FB01FC0303192F2D0310FB0CFA0CF90C4E
:100A1000F80CF30CF20CF10CF00C031C012DFC0390
:100A20000319212D7408F80775080318750FF907C5
:100A300076080318760FFA0777080318770FFB0775
:100A4000052D7408F80775080318750FF90776085F
:100A50000318760FFA0777080318770FFB070800CB
:100A600003138312710DF80DF90D7408F80275085F
:100A7000031C750FF902F00DF10D0F30FC00710D24
:100A8000F80DF90D7408701C4B2DF8027508031C45
:100A9000750FF902502DF80775080318750FF9073F
:100AA000F00DF10DFC0B3F2D70185C2D7408F8074C
:100AB00075080318750FF907080003138312F8016E
:100AC000F9011030FC00710DF80DF90D7408F802F1
:100AD0007508031C750FF9020318752D7408F807C3
:100AE00075080318750FF9070310F00DF10DFC0BD5
:100AF000632D080003138316981690308312980014
:100B000083168616861783120C08F1000030F11A3E
:100B10000130F1007108013A0319832D0800031315
:100B200083121A08C9001808F1000030F1180130CA
:100B3000F1007108013A031D9F2D1812181649087B
:100B4000F000080003138312FB09FA09F909F809F8
:100B5000F80A0319F90A0319FA0A0319FB0A08002B
:100B6000031383120C08F1000030F11A0130F10078
:100B70007108C9004908F0000800FF3FFF3FFF3F30
:02400E00C430BC
:00000001FF
