:100000000428FF3FFF3FFF3FDF30031383168500C7
:100010007F30860087018B01031783129E019F01A9
:1000200019300313831699001815CA258701851204
:100030002130BF002F30B200B3013230C0003C2469
:100040002130BF005230B2005030B300B401323022
:10005000C000C82400307106031D3028003070062F
:10006000031D522885160630FC00FF30FB00FF30D0
:10007000FA00FC0B3C284328FB0B3F284228FA0BD4
:100080003F283C2839281A30FB00FF30FA00FB0BD0
:100090004A284D28FA0B4A2847284230FA00FA0B22
:1000A0004F2885122130BF0086227008BD007108DC
:1000B000BE003D08A8003E08A900E830F400033067
:1000C000F5003D08F0003E08F100E2237008BB0097
:1000D0007108BC003B08AA003C08AB006430F40087
:1000E000F5013D08F0003E08F100E2237008B5007C
:1000F0007108B6003B08F0003C08F1000A30F4003B
:10010000F5017F2470083502B9007108031C013F16
:100110003602BA003908AC003A08AD000A30F400E3
:10012000F5013D08F0003E08F100E2237008B5003B
:100130007108B6003908F0003A08F1000A30F400FE
:10014000F5017F247008B502031CB6037108B602DE
:100150003B08F0003C08F1006430F400F5017F2416
:1001600070083502B7007108031C013F3602B80061
:100170003708AE003808AF003708F0003808F10043
:100180000A30F400F5017F2470083D02B5007108C3
:10019000031C013F3E02B6003908F0003A08F100A6
:1001A0006430F400F5017F247008B502031CB60327
:1001B0007108B6023B08F0003C08F100E830F4009A
:1001C0000330F5007F2470083502F0007108031C2D
:1001D000013F3602F1007008B0007108B100103024
:1001E000F0070318F10A700887000830FB00FF30A1
:1001F000FA00FB0BFC28FF28FA0BFC28F928C43076
:10020000FA00FA0B01290000000020303707F00047
:1002100038080318013FF1000030F107700887002B
:100220000830FB00FF30FA00FB0B17291A29FA0BE4
:1002300017291429C430FA00FA0B1C290000000009
:1002400040303907F0003A080318013FF100003050
:10025000F107700887000830FB00FF30FA00FB0B45
:1002600032293529FA0B32292F29C430FA00FA0B2A
:1002700037290000000080303B07F0003C080318DD
:10028000013FF1000030F107700887000830FB00E3
:10029000FF30FA00FB0B4D295029FA0B4D294A2952
:1002A000C430FA00FA0B5229000000001828572920
:1002B000031383127408F8027508031C750FF90202
:1002C0007608031C760FFA027708031C770FFB02EF
:1002D000F30D0730FC00730DF80DF90DFA0DFB0D51
:1002E0007408731C8129F8027508031C750FF90244
:1002F0007608031C760FFA027708031C770FFB02BF
:100300008E29F80775080318750FF9077608031882
:10031000760FFA0777080318770FFB07F30DFC0B2E
:100320006B29720DF80DF90DFA0DFB0D7408731C95
:10033000A729F8027508031C750FF9027608031C3B
:10034000760FFA027708031C770FFB02B429F8072F
:1003500075080318750FF90776080318760FFA0762
:1003600077080318770FFB07F20D0730FC00720DBA
:10037000F80DF90DFA0DFB0D7408721CCD29F80269
:100380007508031C750FF9027608031C760FFA0234
:100390007708031C770FFB02DA29F80775080318A2
:1003A000750FF90776080318760FFA077708031810
:1003B000770FFB07F20DFC0BB729710DF80DF90D46
:1003C000FA0DFB0D7408721CF329F8027508031C62
:1003D000750FF9027608031C760FFA027708031CE2
:1003E000770FFB02002AF80775080318750FF90745
:1003F00076080318760FFA0777080318770FFB07BC
:10040000F10D0730FC00710DF80DF90DFA0DFB0D23
:100410007408711C192AF8027508031C750FF9027B
:100420007608031C760FFA027708031C770FFB028D
:10043000262AF80775080318750FF90776080318B8
:10044000760FFA0777080318770FFB07F10DFC0BFF
:10045000032A700DF80DF90DFA0DFB0D7408711CCF
:100460003F2AF8027508031C750FF9027608031C71
:10047000760FFA027708031C770FFB024C2AF80765
:1004800075080318750FF90776080318760FFA0731
:1004900077080318770FFB07F00D0730FC00700D8D
:1004A000F80DF90DFA0DFB0D7408701C652AF802A1
:1004B0007508031C750FF9027608031C760FFA0203
:1004C0007708031C770FFB02722AF80775080318D8
:1004D000750FF90776080318760FFA0777080318DF
:1004E000770FFB07F00DFC0B4F2A7018852A740854
:1004F000F80775080318750FF90776080318760FC3
:10050000FA0777080318770FFB0708000313831215
:10051000C001C1011030C4002730C500C201C301B1
:10052000C801C901CA01CB01C601C70142083F0782
:1005300084000008F4007408003A0319022B4208F2
:100540003F0784000008F40074082D3A031DAF2A09
:10055000FF30C600C701C20A0319C30A962A42081F
:100560003F0784000008F4007408203A0319F22AB7
:1005700042083F0784000008F0003030F800F9011D
:10058000FA01FB017008F400F501F601F7017408A7
:10059000F0007508F1007608F2007708F30078089B
:1005A000F0027908031C790FF1027A08031C7A0F14
:1005B000F2027B08031C7B0FF3024408F400450899
:1005C000F500F601F7010E257008C8077108031839
:1005D000710FC90772080318720FCA07730803184E
:1005E000730FCB070A30F400F5014408F00045080A
:1005F000F100AD257008C4007108C500C20A0319D6
:10060000C30A962A4608470403190A2B0630C40079
:10061000C5010D2B0530C400C50143084506031D67
:10062000132B4408420603192F2B0A30F400F5015E
:10063000F601F7014808F0004908F1004A08F20005
:100640004B08F30048237008C8007108C9007208FD
:10065000CA007308CB00C20A0319C30A0D2B48084D
:10066000C0004908C10000304706031D392BFF3088
:100670004606031D432B4008003CC0004108031CF4
:10068000013FC101C1024008F0004108F10008002B
:1006900003138312FC01F71BFC0AFD01FB01FA01A5
:1006A000F901F80173087204710470040319DC2B5A
:1006B00073087706A000A01BFD09F71F6A2BF40939
:1006C000F509F609F709F40A0319F50A0319F60AF8
:1006D0000319F70AF31F772BF009F109F209F3095F
:1006E000F00A0319F10A0319F20A0319F30A73084D
:1006F0007704A000A01B982B5821FC1BB52BFD1FD5
:10070000DC2BF009F109F209F309F00A0319F10AE7
:100710000319F20A0319F30AF809F909FA09FB099E
:10072000F80A0319F90A0319FA0A0319FB0ADC2B60
:10073000F71FAF2BF31BA92B7308FB007208FA00FD
:100740007108F9007008F800F301F201F101F001FD
:100750007F2BF301F201F101F001F00A0034F309FB
:10076000F209F109F009FC177C2BF80A0319F90AC0
:100770000319FA0A0319FB0A74087802031D7F2B78
:1007800075087902031D7F2B76087A02031D7F2BE3
:1007900077087B02031D7F2BFB01FA01F901F801A9
:1007A000F00A0319F10A0319F20A0319F30AF31FF5
:1007B0007F2BA0012016FF34A0017C1CE02BF2252A
:1007C000003F080003138312FD01F901F8017108CD
:1007D00070040319003471087506FA00FA1BFD094C
:1007E000FB01F51FF82BF409F509F40A0319F50AC2
:1007F000F11FFF2BF009F109F00A0319F10A710842
:100800007504FA00FA1B142C80257B18272CFD1F79
:100810000034F009F109F00A0319F10AF809F9099D
:10082000F80A0319F90A0034F51F232CF11B1F2CB9
:100830007108F9007008F800F101F001072CF101CE
:10084000F001F00A0034F109F009FB0A042CF80A5F
:100850000319F90A74087802031D072C7508790238
:10086000031D072CF901F801F00A0319F10AF11F21
:10087000072C0000FF34080003138312C101C201DA
:10088000C501400884000008C40000267008003A32
:100890000319752CDF257008C30041083F07F100DC
:1008A00071088400710884007008800043084406C1
:1008B000031D5F2C42084102C500C20A612CC2011F
:1008C000C5014208400784000008F1007108C40017
:1008D0007108003A031D6D2C762CC10A4108143CA6
:1008E0000318752C1330C500762C452C45083F079E
:1008F000F000700884007008840080010800031371
:100900008312FB01FA01F9018030F800FD01F11FAB
:100910008F2CF109F009F00A0319F10AFD0AF51FFD
:10092000972CF509F409F40A0319F50AFD0AF10CEC
:10093000F00C031CA42C7408F90775080318750F34
:10094000FA070318FB0A0310F01FAC2C7408FA070F
:100950000318FB0A7508FB07FB0CFA0CF90CF80CE2
:10096000031C972C7D1CBF2CFB09FA09F909F80917
:10097000F80A0319F90A0319FA0A0319FB0A7B0892
:10098000F3007A08F2007908F1007808F000080016
:1009900003138312C3013F0884000008C100C20191
:1009A000400884000008F0000030C2007008C10256
:1009B000031CC20300304206031DE02C0030410638
:1009C000FF30031D0030F30043083F078400000898
:1009D000F2007208003AFF3003190030F00073088B
:1009E000F0050319092D430AF0007008C3007008D0
:1009F0003F0784000008C100C2017008400784005E
:100A00000008F0000030C2007008C102031CC203DD
:100A1000DA2C4108F0004208F100080003138312A9
:100A2000FD01F31F202DF009F109F209F309F00A85
:100A30000319F10A0319F20A0319F30A8130FD07B9
:100A4000F71F2E2DF409F509F609F709F40A031921
:100A5000F50A0319F60A0319F70AFD0A49257D1C50
:100A6000482DF009F109F209F309F809F909FA0921
:100A7000FB09F00A0319F10A0319F20A0319F30A30
:100A80000319F80A0319F90A0319FA0A0319FB0AE8
:100A90000800031383122230FC00F801F901FA0167
:100AA000FB01FC0303197F2D0310FB0CFA0CF90C5E
:100AB000F80CF30CF20CF10CF00C031C512DFC03A0
:100AC0000319712D7408F80775080318750FF907D5
:100AD00076080318760FFA0777080318770FFB07D5
:100AE000552D7408F80775080318750FF90776086F
:100AF0000318760FFA0777080318770FFB0708002B
:100B000003138312710DF80DF90D7408F8027508BE
:100B1000031C750FF902F00DF10D0F30FC00710D83
:100B2000F80DF90D7408701C9B2DF8027508031C54
:100B3000750FF902A02DF80775080318750FF9074E
:100B4000F00DF10DFC0B8F2D7018AC2D7408F8070B
:100B500075080318750FF907080003138312F801CD
:100B6000F9011030FC00710DF80DF90D7408F80250
:100B70007508031C750FF9020318C52D7408F807D2
:100B800075080318750FF9070310F00DF10DFC0B34
:100B9000B32D080003138316981690308312980023
:100BA00083168616861783120C08F1000030F11A9E
:100BB0000130F1007108013A0319D32D0800031325
:100BC00083121A08CC001808F1000030F118013027
:100BD000F1007108013A031DEF2D181218164C0888
:100BE000F000080003138312FB09FA09F909F80958
:100BF000F80A0319F90A0319FA0A0319FB0A08008B
:100C0000031383120C08F1000030F11A0130F100D7
:100C10007108CC004C08F0000800FF3FFF3FFF3F89
:02400E00C430BC
:00000001FF
