:100000000428FF3FFF3FFF3FDF30031383168500C7
:100010002F30860087018B01031783129E019F01F9
:1000200019300313831699001815EF2587018501F0
:100030000617A101E830A2000330A300A401A50126
:10004000A601A70125267008003C03187728283050
:10005000BF002F30B700B8013730C000612428300E
:10006000BF005230B700B8013730C000ED24003077
:100070007106031D3D2800307006031D43288516B8
:10008000FF30A1004D282830BF00AB227008A4002B
:100090007108A5008516FF30A10080302506F2000A
:1000A0008030033A7202031D5728E8302402FF30E3
:1000B000031C0030F20080302506F00080300B3A3F
:1000C0007002031D6528B8302402FF300318003089
:1000D000F0007208F005031971282408A200250811
:1000E000A3008A2003138312A401A501A8018A207A
:1000F0000D3003138312FB00FF30FA00FB0B812845
:100100008428FA0B81287E28F330FA00FA0B86281F
:1001100000002228E830F4000330F5002208F00047
:100120002308F10007247008BD007108BE003D08D7
:10013000AF003E08B0006430F400F5012208F00082
:100140002308F10007247008B9007108BA003D08BF
:10015000F0003E08F1000A30F400F501A424700814
:100160003902BB007108031C013F3A02BC003B0886
:10017000B1003C08B2000A30F400F5012208F0009A
:100180002308F10007247008B9007108BA003B0881
:10019000F0003C08F1000A30F400F501A4247008D6
:1001A000B902031CBA037108BA023D08F0003E0808
:1001B000F1006430F400F501A42470083902F00065
:1001C0007108031C013F3A02F1007008B300710886
:1001D000B4000A30F400F501A42470082202B5002E
:1001E0007108031C013F2302B6003B08F0003C08E5
:1001F000F1006430F400F501A4247008B502031C7A
:10020000B6037108B6023D08F0003E08F100E83080
:10021000F4000330F500A4247008B502031CB603F3
:100220007108B60200303E06031D182901303D0654
:10023000031D1C290612061700303006031D222953
:1002400002302F06031D26290616061335088700DF
:100250000716871207130730FB00FF30FA00FB0B6D
:1002600032293529FA0B32292F297830FA00FA0B76
:10027000372900000000330887000712871607138C
:100280000730FB00FF30FA00FB0B47294A29FA0B25
:10029000472944297830FA00FA0B4C290000000065
:1002A000310887000712871207170730FB00FF305D
:1002B000FA00FB0B5C295F29FA0B5C29592978307D
:1002C000FA00FA0B6129000000002108FF3A031D23
:1002D0007B29A60A0319A70A80302706F000803080
:1002E0007002031D752914302602031C7B29A1010D
:1002F0008512A601A70108007C2903138312740844
:10030000F8027508031C750FF9027608031C760FB6
:10031000FA027708031C770FFB02F30D0730FC008D
:10032000730DF80DF90DFA0DFB0D7408731CA62959
:10033000F8027508031C750FF9027608031C760F86
:10034000FA027708031C770FFB02B329F807750838
:100350000318750FF90776080318760FFA07770860
:100360000318770FFB07F30DFC0B9029720DF80DA6
:10037000F90DFA0DFB0D7408731CCC29F8027508F1
:10038000031C750FF9027608031C760FFA02770832
:10039000031C770FFB02D929F80775080318750F9E
:1003A000F90776080318760FFA0777080318770F0E
:1003B000FB07F20D0730FC00720DF80DF90DFA0D78
:1003C000FB0D7408721CF229F8027508031C750FE6
:1003D000F9027608031C760FFA027708031C770FE0
:1003E000FB02FF29F80775080318750FF90776084F
:1003F0000318760FFA0777080318770FFB07F20D3B
:10040000FC0BDC29710DF80DF90DFA0DFB0D7408CC
:10041000721C182AF8027508031C750FF902760879
:10042000031C760FFA027708031C770FFB02252ABC
:10043000F80775080318750FF90776080318760F83
:10044000FA0777080318770FFB07F10D0730FC0058
:10045000710DF80DF90DFA0DFB0D7408711C3E2A93
:10046000F8027508031C750FF9027608031C760F55
:10047000FA027708031C770FFB024B2AF80775086E
:100480000318750FF90776080318760FFA0777082F
:100490000318770FFB07F10DFC0B282A700DF80DE0
:1004A000F90DFA0DFB0D7408711C642AF802750829
:1004B000031C750FF9027608031C760FFA02770801
:1004C000031C770FFB02712AF80775080318750FD4
:1004D000F90776080318760FFA0777080318770FDD
:1004E000FB07F00D0730FC00700DF80DF90DFA0D4B
:1004F000FB0D7408701C8A2AF8027508031C750F1E
:10050000F9027608031C760FFA027708031C770FAE
:10051000FB02972AF80775080318750FF907760884
:100520000318760FFA0777080318770FFB07F00D0B
:10053000FC0B742A7018AA2A7408F80775080318A7
:10054000750FF90776080318760FFA07770803186E
:10055000770FFB07080003138312C001C10110309D
:10056000C4002730C500C201C301C801C901CA01C6
:10057000CB01C601C70142083F0784000008F40010
:100580007408003A0319272B42083F07840000082B
:10059000F40074082D3A031DD42AFF30C600C701A9
:1005A000C20A0319C30ABB2A42083F078400000895
:1005B000F4007408203A0319172B42083F078400FF
:1005C0000008F0003030F800F901FA01FB01700872
:1005D000F400F501F601F7017408F0007508F10068
:1005E0007608F2007708F3007808F0027908031C17
:1005F000790FF1027A08031C7A0FF2027B08031CC0
:100600007B0FF3024408F4004508F500F601F701FA
:1006100033257008C80771080318710FC9077208DD
:100620000318720FCA0773080318730FCB070A3039
:10063000F400F5014408F0004508F100D2257008E7
:10064000C4007108C500C20A0319C30ABB2A4608C0
:10065000470403192F2B0630C400C501322B053087
:10066000C400C50143084506031D382B4408420653
:100670000319542B0A30F400F501F601F70148087C
:10068000F0004908F1004A08F2004B08F3006D231E
:100690007008C8007108C9007208CA007308CB004E
:1006A000C20A0319C30A322B4808C0004908C10016
:1006B00000304706031D5E2BFF304606031D682BE6
:1006C0004008003CC0004108031C013FC101C102B9
:1006D0004008F0004108F100080003138312FC01F8
:1006E000F71BFC0AFD01FB01FA01F901F80173088F
:1006F0007204710470040319012C73087706A000BA
:10070000A01BFD09F71F8F2BF409F509F609F7095E
:10071000F40A0319F50A0319F60A0319F70AF31F75
:100720009C2BF009F109F209F309F00A0319F10A07
:100730000319F20A0319F30A73087704A000A01B37
:10074000BD2B7D21FC1BDA2BFD1F012CF009F109CB
:10075000F209F309F00A0319F10A0319F20A03195D
:10076000F30AF809F909FA09FB09F80A0319F90A61
:100770000319FA0A0319FB0A012CF71FD42BF31BE8
:10078000CE2B7308FB007208FA007108F90070089C
:10079000F800F301F201F101F001A42BF301F201E1
:1007A000F101F001F00A0034F309F209F109F0094E
:1007B000FC17A12BF80A0319F90A0319FA0A0319FD
:1007C000FB0A74087802031DA42B75087902031D27
:1007D000A42B76087A02031DA42B77087B02031D45
:1007E000A42BFB01FA01F901F801F00A0319F10A3F
:1007F0000319F20A0319F30AF31FA42BA001201610
:10080000FF34A0017C1C052C1726003F08000313B1
:100810008312FD01F901F801710870040319003415
:1008200071087506FA00FA1BFD09FB01F51F1D2C66
:10083000F409F509F40A0319F50AF11F242CF0094B
:10084000F109F00A0319F10A71087504FA00FA1B9C
:10085000392CA5257B184C2CFD1F0034F009F1091B
:10086000F00A0319F10AF809F909F80A0319F90A53
:100870000034F51F482CF11B442C7108F900700856
:10088000F800F101F0012C2CF101F001F00A003424
:10089000F109F009FB0A292CF80A0319F90A74086E
:1008A0007802031D2C2C75087902031D2C2CF901EC
:1008B000F801F00A0319F10AF11F2C2C0000FF3493
:1008C000080003138312C101C201C501400884005E
:1008D0000008C40025267008003A03199A2C042643
:1008E0007008C30041083F07F100710884007108D7
:1008F00084007008800043084406031D842C4208CD
:100900004102C500C20A862CC201C5014208400747
:1009100084000008F1007108C4007108003A031D4A
:10092000922C9B2CC10A4108143C03189A2C1330BA
:10093000C5009B2C6A2C45083F07F0007008840016
:10094000700884008001080003138312FB01FA0180
:10095000F9018030F800FD01F11FB42CF109F00914
:10096000F00A0319F10AFD0AF51FBC2CF509F40978
:10097000F40A0319F50AFD0AF10CF00C031CC92C4A
:100980007408F90775080318750FFA070318FB0AAE
:100990000310F01FD12C7408FA070318FB0A75081E
:1009A000FB07FB0CFA0CF90CF80C031CBC2C7D1C8F
:1009B000E42CFB09FA09F909F809F80A0319F90AFC
:1009C0000319FA0A0319FB0A7B08F3007A08F200FC
:1009D0007908F1007808F000080003138312C301BE
:1009E0003F0884000008C100C201400884000008DC
:1009F000F0000030C2007008C102031CC2030030C6
:100A00004206031D052D00304106FF30031D003056
:100A1000F30043083F0784000008F2007208003A20
:100A2000FF3003190030F0007308F00503192E2D74
:100A3000430AF0007008C30070083F0784000008F4
:100A4000C100C2017008400784000008F0000030B7
:100A5000C2007008C102031CC203FF2C4108F00051
:100A60004208F100080003138312FD01F31F452D16
:100A7000F009F109F209F309F00A0319F10A03195F
:100A8000F20A0319F30A8130FD07F71F532DF40909
:100A9000F509F609F709F40A0319F50A0319F60A24
:100AA0000319F70AFD0A6E257D1C6D2DF009F10969
:100AB000F209F309F809F909FA09FB09F00A03191F
:100AC000F10A0319F20A0319F30A0319F80A0319C0
:100AD000F90A0319FA0A0319FB0A0800031383121F
:100AE0002230FC00F801F901FA01FB01FC030319B3
:100AF000A42D0310FB0CFA0CF90CF80CF30CF20CFF
:100B0000F10CF00C031C762DFC030319962D7408D0
:100B1000F80775080318750FF90776080318760F9C
:100B2000FA0777080318770FFB077A2D7408F80780
:100B300075080318750FF90776080318760FFA077A
:100B400077080318770FFB07080003138312710D52
:100B5000F80DF90D7408F8027508031C750FF902F9
:100B6000F00DF10D0F30FC00710DF80DF90D74084A
:100B7000701CC02DF8027508031C750FF902C52DF5
:100B8000F80775080318750FF907F00DF10DFC0B48
:100B9000B42D7018D12D7408F80775080318750F57
:100BA000F907080003138312F801F9011030FC0063
:100BB000710DF80DF90D7408F8027508031C750F16
:100BC000F9020318EA2D7408F80775080318750F61
:100BD000F9070310F00DF10DFC0BD82D08000313DD
:100BE00083169816903083129800831686168617FF
:100BF00083120C08F1000030F11A0130F100710885
:100C0000013A0319F82D0800031383121A08CC00C7
:100C10001808F1000030F1180130F1007108013AB4
:100C2000031D142E181218164C08F00008000313A8
:100C30008312FB09FA09F909F809F80A0319F90AF4
:100C40000319FA0A0319FB0A0800031383120C089C
:100C5000F1000030F11A0130F1007108CC004C08AD
:100C6000F0000800FF3FFF3FFF3FFF3FFF3FFF3F18
:02400E00C430BC
:00000001FF
