:100000000428FF3FFF3FFF3FDF30031383168500C7
:100010007F30860087018B01031783129E019F01A9
:10002000193003138316990018155225870185127C
:100030002130BE002F30B200B3013230BF000A249D
:100040002130BE0054227008BC007108BD003C087D
:10005000A8003D08A900E830F4000330F5003C0892
:10006000F0003D08F100B0237008BA007108BB0031
:100070003A08AA003B08AB006430F400F5013C08E4
:10008000F0003D08F100B0237008B4007108B5001D
:100090003A08F0003B08F1000A30F400F5014D2465
:1000A00070083402B8007108031C013F3502B90022
:1000B0003808AC003908AD000A30F400F5013C08FE
:1000C000F0003D08F100B0237008B4007108B500DD
:1000D0003808F0003908F1000A30F400F5014D2429
:1000E0007008B402031CB5037108B5023A08F000A9
:1000F0003B08F1006430F400F5014D24700834022F
:10010000B6007108031C013F3502B7003608AE0087
:100110003708AF003608F0003708F1000A30F40065
:10012000F5014D2470083C02B4007108031C013F26
:100130003D02B5003808F0003908F1006430F400E1
:10014000F5014D247008B402031CB5037108B50213
:100150003A08F0003B08F100E830F4000330F50005
:100160004D2470083402F0007108031C013F350271
:10017000F1007008B0007108B1001030F0070318EA
:10018000F10A700887000830FB00FF30FA00FB0B13
:10019000CA28CD28FA0BCA28C728C430FA00FA0B9F
:1001A000CF280000000020303607F0003708031881
:1001B000013FF1000030F107700887000830FB00B4
:1001C000FF30FA00FB0BE528E828FA0BE528E228C7
:1001D000C430FA00FA0BEA2800000000403038076B
:1001E000F00039080318013FF1000030F1077008F2
:1001F00087000830FB00FF30FA00FB0B00290329C1
:10020000FA0B0029FD28C430FA00FA0B052900007A
:10021000000080303A07F0003B080318013FF1006E
:100220000030F107700887000830FB00FF30FA004B
:10023000FB0B1B291E29FA0B1B291829C430FA00B5
:10024000FA0B202900000000182825290313831227
:100250007408F8027508031C750FF9027608031C70
:10026000760FFA027708031C770FFB02F30D0730B5
:10027000FC00730DF80DF90DFA0DFB0D7408731CDD
:100280004F29F8027508031C750FF9027608031C44
:10029000760FFA027708031C770FFB025C29F80738
:1002A00075080318750FF90776080318760FFA0713
:1002B00077080318770FFB07F30DFC0B3929720D34
:1002C000F80DF90DFA0DFB0D7408731C7529F80271
:1002D0007508031C750FF9027608031C760FFA02E5
:1002E0007708031C770FFB028229F80775080318AB
:1002F000750FF90776080318760FFA0777080318C1
:10030000770FFB07F20D0730FC00720DF80DF90DA9
:10031000FA0DFB0D7408721C9B29F8027508031C6A
:10032000750FF9027608031C760FFA027708031C92
:10033000770FFB02A829F80775080318750FF9074E
:1003400076080318760FFA0777080318770FFB076C
:10035000F20DFC0B8529710DF80DF90DFA0DFB0D51
:100360007408721CC129F8027508031C750FF90284
:100370007608031C760FFA027708031C770FFB023E
:10038000CE29F80775080318750FF90776080318C2
:10039000760FFA0777080318770FFB07F10D073080
:1003A000FC00710DF80DF90DFA0DFB0D7408711CB0
:1003B000E729F8027508031C750FF9027608031C7B
:1003C000760FFA027708031C770FFB02F429F8076F
:1003D00075080318750FF90776080318760FFA07E2
:1003E00077080318770FFB07F10DFC0BD129700D6F
:1003F000F80DF90DFA0DFB0D7408711C0D2AF802A9
:100400007508031C750FF9027608031C760FFA02B3
:100410007708031C770FFB021A2AF80775080318E0
:10042000750FF90776080318760FFA07770803188F
:10043000770FFB07F00D0730FC00700DF80DF90D7C
:10044000FA0DFB0D7408701C332AF8027508031CA2
:10045000750FF9027608031C760FFA027708031C61
:10046000770FFB02402AF80775080318750FF90784
:1004700076080318760FFA0777080318770FFB073B
:10048000F00DFC0B1D2A7018532A7408F807750824
:100490000318750FF90776080318760FFA0777081F
:1004A0000318770FFB07080003138312BF01C00175
:1004B0001030C3002730C400C101C201C701C80108
:1004C000C901CA01C501C60141083E0784000008F0
:1004D000F4007408003A0319D02A41083E0784004A
:1004E0000008F40074082D3A031D7D2AFF30C50072
:1004F000C601C10A0319C20A642A41083E078400E2
:100500000008F4007408203A0319C02A41083E0785
:1005100084000008F0003030F800F901FA01FB0116
:100520007008F400F501F601F7017408F000750891
:10053000F1007608F2007708F3007808F0027908F5
:10054000031C790FF1027A08031C7A0FF2027B0870
:10055000031C7B0FF3024308F4004408F500F60186
:10056000F70196247008C70771080318710FC807B0
:1005700072080318720FC90773080318730FCA07AC
:100580000A30F400F5014308F0004408F100352575
:100590007008C3007108C400C10A0319C20A642AA2
:1005A000450846040319D82A0630C300C401DB2AD3
:1005B0000530C300C40142084406031DE12A430874
:1005C00041060319FD2A0A30F400F501F601F7018E
:1005D0004708F0004808F1004908F2004A08F30013
:1005E00016237008C7007108C8007208C900730894
:1005F000CA00C10A0319C20ADB2A4708BF0048081B
:10060000C00000304606031D072BFF304506031DC2
:10061000112B3F08003CBF004008031C013FC001F4
:10062000C0023F08F0004008F100080003138312E5
:10063000FC01F71BFC0AFD01FB01FA01F901F801BD
:1006400073087204710470040319AA2B73087706E7
:10065000A000A01BFD09F71F382BF409F509F609C6
:10066000F709F40A0319F50A0319F60A0319F70A38
:10067000F31F452BF009F109F209F309F00A0319F8
:10068000F10A0319F20A0319F30A73087704A000A8
:10069000A01B662B2621FC1B832BFD1FAA2BF00918
:1006A000F109F209F309F00A0319F10A0319F20A30
:1006B0000319F30AF809F909FA09FB09F80A0319F9
:1006C000F90A0319FA0A0319FB0AAA2BF71F7D2B53
:1006D000F31B772B7308FB007208FA007108F9000E
:1006E0007008F800F301F201F101F0014D2BF30164
:1006F000F201F101F001F00A0034F309F209F10905
:10070000F009FC174A2BF80A0319F90A0319FA0A27
:100710000319FB0A74087802031D4D2B7508790232
:10072000031D4D2B76087A02031D4D2B77087B02A3
:10073000031D4D2BFB01FA01F901F801F00A031921
:10074000F10A0319F20A0319F30AF31F4D2BA00152
:100750002016FF34A0017C1CAE2B7A25003F080038
:1007600003138312FD01F901F801710870040319E4
:10077000003471087506FA00FA1BFD09FB01F51F2C
:10078000C62BF409F509F40A0319F50AF11FCD2B5C
:10079000F009F109F00A0319F10A71087504FA0069
:1007A000FA1BE22B08257B18F52BFD1F0034F009FE
:1007B000F109F00A0319F10AF809F909F80A03190D
:1007C000F90A0034F51FF12BF11BED2B7108F9002C
:1007D0007008F800F101F001D52BF101F001F00AE9
:1007E0000034F109F009FB0AD22BF80A0319F90ABF
:1007F00074087802031DD52B75087902031DD52BCB
:10080000F901F801F00A0319F10AF11FD52B0000D4
:10081000FF34080003138312C001C101C4013F0863
:1008200084000008C30088257008003A0319432C8F
:1008300067257008C20040083E07F1007108840077
:10084000710884007008800042084306031D2D2CA7
:1008500041084002C400C10A2F2CC101C401410853
:100860003F0784000008F1007108C3007108003AD6
:10087000031D3B2C442CC00A4008143C0318432C95
:100880001330C400442C132C44083E07F0007008B9
:100890008400700884008001080003138312FB01A8
:1008A000FA01F9018030F800FD01F11F5D2CF1091A
:1008B000F009F00A0319F10AFD0AF51F652CF50984
:1008C000F409F40A0319F50AFD0AF10CF00C031CF3
:1008D000722C7408F90775080318750FFA070318C6
:1008E000FB0A0310F01F7A2C7408FA070318FB0A9E
:1008F0007508FB07FB0CFA0CF90CF80C031C652CB3
:100900007D1C8D2CFB09FA09F909F809F80A03196D
:10091000F90A0319FA0A0319FB0A7B08F3007A089B
:10092000F2007908F1007808F00008000313831240
:10093000FD01F31FA82CF009F109F209F309F00AEF
:100940000319F10A0319F20A0319F30A8130FD07AA
:10095000F71FB62CF409F509F609F709F40A03198B
:10096000F50A0319F60A0319F70AFD0AD1247D1CBA
:10097000D02CF009F109F209F309F809F909FA098B
:10098000FB09F00A0319F10A0319F20A0319F30A21
:100990000319F80A0319F90A0319FA0A0319FB0AD9
:1009A0000800031383122230FC00F801F901FA0158
:1009B000FB01FC030319072D0310FB0CFA0CF90CC7
:1009C000F80CF30CF20CF10CF00C031CD92CFC030A
:1009D0000319F92C7408F80775080318750FF9073F
:1009E00076080318760FFA0777080318770FFB07C6
:1009F000DD2C7408F80775080318750FF9077608D9
:100A00000318760FFA0777080318770FFB0708001B
:100A100003138312710DF80DF90D7408F8027508AF
:100A2000031C750FF902F00DF10D0F30FC00710D74
:100A3000F80DF90D7408701C232DF8027508031CBD
:100A4000750FF902282DF80775080318750FF907B7
:100A5000F00DF10DFC0B172D7018342D7408F807EC
:100A600075080318750FF907080003138312F801BE
:100A7000F9011030FC00710DF80DF90D7408F80241
:100A80007508031C750FF90203184D2D7408F8073B
:100A900075080318750FF9070310F00DF10DFC0B25
:100AA0003B2D08000313831698169030831298008C
:100AB00083168616861783120C08F1000030F11A8F
:100AC0000130F1007108013A03195B2D080003138E
:100AD00083121A08CB001808F1000030F118013019
:100AE000F1007108013A031D772D181218164B08F2
:100AF000F000080003138312FB09FA09F909F80949
:100B0000F80A0319F90A0319FA0A0319FB0A08007B
:100B1000031383120C08F1000030F11A0130F100C8
:100B20007108CB004B08F0000800FF3FFF3FFF3F7C
:02400E00C430BC
:00000001FF
