:100000000428FF3FFF3FFF3FFF30031383168500A7
:100010006F30860087018B01031783129E019F01B9
:100020000313870119308316990018158A15332098
:100030008A11B201B301B401B501B601B7010130B3
:10004000A100A201B001B101A501A6018A157B2082
:100050008A117008003C03183C283830D3002F3038
:10006000C900CA014930D4004B263830D3009B2345
:100070007008BF007108C00001300505F200720869
:10008000013A031DA4283208003A031DA428FF30BA
:10009000B20000302206031D4F2801302106031D47
:1000A0007B282508013FF20000300318013F260796
:1000B000F3007208A5007308A6008030033AF00030
:1000C000803073067002031D67287208E73C03182E
:1000D0006D28E730A5000330A60080302606F0002A
:1000E00080307002031D76280030250203187A281C
:1000F000A501A601A4283008013FF2000030031832
:10010000013F3107F3007208B0007308B10080307E
:10011000033AF000803073067002031D91287208C4
:10012000E73C03189728E730B0000330B100803077
:100130003106F00080307002031DA028003030022C
:100140000318A428B001B10101300505F2007208BE
:10015000003A031DB0283208FF3A031DB028B2014F
:10016000003085180130F2007208013A031DCF28D3
:100170003308003A031DCF28FF30B30000302206B9
:10018000031DC42801302106031DCB280130A50220
:10019000031CA603CF280130B002031CB1030030BA
:1001A00085180130F2007208003A031DDC2833087C
:1001B000FF3A031DDC28B301003005190130F200BD
:1001C0007208013A031DEE283408003A031DEE2898
:1001D000FF30B400A501A601B001B101003005193E
:1001E0000130F2007208003A031DFB283408FF3A80
:1001F000031DFB28B401003085190130F20072089C
:10020000013A031D18293508003A031D1829FF304B
:10021000B50000302206031D0F2901302106031D01
:1002200015290230A100A20118290130A100A20164
:10023000003085190130F2007208003A031D2529AB
:100240003508FF3A031D2529B5010030051A013094
:10025000F2007208013A031D34293608003A031DE2
:100260003429FF30B6007A270030051A0130F20039
:100270007208003A031D41293608FF3A031D41293F
:10028000B6010030851A0130F2007208013A031DF0
:1002900050293708003A031D5029FF30B7009E252A
:1002A0000030851A0130F2007208003A031D592906
:1002B000B70100302206031D5F2901302106031D0E
:1002C0006A29E8302507BF0026080318013F033FCD
:1002D000C0007229D0303007BF0031080318013F39
:1002E000073FC000E830F4000330F5003F08F0009D
:1002F0004008F100F1257008D1007108D2005108C2
:10030000C1005208C2006430F400F5013F08F0005B
:100310004008F100F1257008CB007108CC005108AD
:10032000F0005208F1000A30F400F501922670083E
:100330004B02CF007108031C013F4C02D0004F0854
:10034000C3005008C4000A30F400F5013F08F00073
:100350004008F100F1257008CB007108CC004F086F
:10036000F0005008F1000A30F400F5019226700800
:10037000CB02031CCC037108CC025108F0005208D8
:10038000F1006430F400F501922670084B02CD00B4
:100390007108031C013F4C02CE004D08C5004E08F9
:1003A000C6004D08F0004E08F1000A30F400F501D7
:1003B000922670083F02CB007108031C013F4002E7
:1003C000CC004F08F0005008F1006430F400F50153
:1003D00092267008CB02031CCC037108CC02510892
:1003E000F0005208F100E830F4000330F5009226E6
:1003F00070084B02F0007108031C013F4C02F10031
:100400007008C7007108C8001030F0070318F10A1F
:10041000700887000730FB00FF30FA00FB0B112A41
:10042000142AFA0B112A0E2A7830FA00FA0B162A2F
:100430000000000020304D07F0004E080318013F77
:10044000F1000030F107700887000730FB00FF3033
:10045000FA00FB0B2C2A2F2AFA0B2C2A292A783097
:10046000FA00FA0B312A0000000040304F07F0007C
:1004700050080318013FF1000030F10770088700B1
:100480000730FB00FF30FA00FB0B472A4A2AFA0B21
:10049000472A442A7830FA00FA0B4C2A0000000060
:1004A00080305107F00052080318013FF10000307E
:1004B000F107700887000730FB00FF30FA00FB0BE4
:1004C000622A652AFA0B622A5F2A7830FA00FA0B50
:1004D000672A0000000026286C2A03138312740880
:1004E000F8027508031C750FF9027608031C760FD5
:1004F000FA027708031C770FFB02F30D0730FC00AC
:10050000730DF80DF90DFA0DFB0D7408731C962A86
:10051000F8027508031C750FF9027608031C760FA4
:10052000FA027708031C770FFB02A32AF807750865
:100530000318750FF90776080318760FFA0777087E
:100540000318770FFB07F30DFC0B802A720DF80DD3
:10055000F90DFA0DFB0D7408731CBC2AF80275081E
:10056000031C750FF9027608031C760FFA02770850
:10057000031C770FFB02C92AF80775080318750FCB
:10058000F90776080318760FFA0777080318770F2C
:10059000FB07F20D0730FC00720DF80DF90DFA0D96
:1005A000FB0D7408721CE22AF8027508031C750F13
:1005B000F9027608031C760FFA027708031C770FFE
:1005C000FB02EF2AF80775080318750FF90776087C
:1005D0000318760FFA0777080318770FFB07F20D59
:1005E000FC0BCC2A710DF80DF90DFA0DFB0D7408FA
:1005F000721C082BF8027508031C750FF9027608A7
:10060000031C760FFA027708031C770FFB02152BE9
:10061000F80775080318750FF90776080318760FA1
:10062000FA0777080318770FFB07F10D0730FC0076
:10063000710DF80DF90DFA0DFB0D7408711C2E2BC0
:10064000F8027508031C750FF9027608031C760F73
:10065000FA027708031C770FFB023B2BF80775089B
:100660000318750FF90776080318760FFA0777084D
:100670000318770FFB07F10DFC0B182B700DF80D0D
:10068000F90DFA0DFB0D7408711C542BF802750856
:10069000031C750FF9027608031C760FFA0277081F
:1006A000031C770FFB02612BF80775080318750F01
:1006B000F90776080318760FFA0777080318770FFB
:1006C000FB07F00D0730FC00700DF80DF90DFA0D69
:1006D000FB0D7408701C7A2BF8027508031C750F4B
:1006E000F9027608031C760FFA027708031C770FCD
:1006F000FB02872BF80775080318750FF9077608B2
:100700000318760FFA0777080318770FFB07F00D29
:10071000FC0B642B70189A2B7408F80775080318E3
:10072000750FF90776080318760FFA07770803188C
:10073000770FFB07080003138312D401D501103093
:10074000D8002730D900D601D701DC01DD01DE0158
:10075000DF01DA01DB015608530784000008F400CA
:100760007408003A0319192C56085307840000082E
:10077000F40074082D3A031DC42BFF30DA00DB01AE
:10078000D60A0319D70AAB2B560853078400000872
:10079000F4007408203A0319072C56085307840004
:1007A0000008F0003030F800F901FA01FB01700890
:1007B000F400F501F601F7017408F0007508F10086
:1007C0007608F2007708F3007808F0027908031C35
:1007D000790FF1027A08031C7A0FF2027B08031CDE
:1007E0007B0FF3025808F4005908F500F601F701F1
:1007F000DB267008DC0771080318710FDD0772082B
:100800000318720FDE0773080318730FDF070A302F
:10081000F400F5015808F0005908F1008A1500208D
:100820008A117008D8007108D900D60A0319D70AAE
:10083000AB2B5A085B040319212C0630D800D901D0
:10084000242C0530D800D90157085906031D2A2C3D
:10085000580856060319462C0A30F400F501F60133
:10086000F7015C08F0005D08F1005E08F2005F0827
:10087000F30002257008DC007108DD007208DE005C
:100880007308DF00D60A0319D70A242C5C08D400A9
:100890005D08D50000305B06031D502CFF305A0662
:1008A000031D5A2C5408003CD4005508031C013F7A
:1008B000D501D5025408F0005508F10008000313D3
:1008C00083126108803A031D672C00306006031D07
:1008D0007F2C620884002D308000840A3330800031
:1008E000840A32308000840A37308000840A36302F
:1008F0008000840A38308000840A8001012DE401E0
:1009000080306106F00080307002031D892C0030B9
:1009100060020318952CFF30E4006008003CE00002
:100920006108031C013FE101E1020130E300803076
:10093000F000803061067002031DA02C6008093CA5
:100940000318A32CE30A8030F000803061067002A7
:10095000031DAC2C6008633C0318AF2CE30A803005
:10096000033AF000803061067002031DB92C600864
:10097000E73C0318BC2CE30A8030273AF0008030B3
:1009800061067002031DC62C60080F3C0318C92CB9
:10099000E30A6208840020308000840A8000840A10
:1009A0008000840A8000840A8000840A8000840A0F
:1009B000800184036308003C0318FC2C0A30F40017
:1009C000F5016008F0006108F100F1257808F000F9
:1009D0007908F10030307007800084030A30F40099
:1009E000F5016008F0006108F100F1257008E000F1
:1009F0007108E100E303DA2C64080319012D2D309E
:100A00008000080003138312FC01F71BFC0AFD01A0
:100A1000FB01FA01F901F801730872047104700412
:100A20000319962D73087706A000A01BFD09F71F78
:100A3000242DF409F509F609F709F40A0319F50A52
:100A40000319F60A0319F70AF31F312DF009F1090A
:100A5000F209F309F00A0319F10A0319F20A03195A
:100A6000F30A73087704A000A01B522D6D22FC1B13
:100A70006F2DFD1F962DF009F109F209F309F00A17
:100A80000319F10A0319F20A0319F30AF809F9091B
:100A9000FA09FB09F80A0319F90A0319FA0A0319F2
:100AA000FB0A962DF71F692DF31B632D7308FB00BE
:100AB0007208FA007108F9007008F800F301F201F9
:100AC000F101F001392DF301F201F101F001F00A19
:100AD0000034F309F209F109F009FC17362DF80A80
:100AE0000319F90A0319FA0A0319FB0A74087802B0
:100AF000031D392D75087902031D392D76087A02F8
:100B0000031D392D77087B02031D392DFB01FA01E6
:100B1000F901F801F00A0319F10A0319F20A03199D
:100B2000F30AF31F392DA0012016FF34A0017C1C0D
:100B30009C2D8A156D208A11003F08000030031398
:100B400083122206031DA62D01302106031DC82D88
:100B50002508E83FF00003300318013F2607F100A5
:100B60007008A3007108A4007008E0007108E1009B
:100B70002730E2005F242730E0008A151D208A110B
:100B80002F30D300D4015330E0008A151D208A1184
:100B900000302206031DCE2D02302106031DF02D4C
:100BA0003008D03FF00007300318013F3107F10053
:100BB0007008AE007108AF007008E0007108E10035
:100BC0002730E2005F242730E0008A151D208A11BB
:100BD0002F30D300D4015330E0008A151D208A1134
:100BE000080003138312FD01F901F8017108700474
:100BF0000319003471087506FA00FA1BFD09FB01A0
:100C0000F51F072EF409F509F40A0319F50AF11F77
:100C10000E2EF009F109F00A0319F10A71087504A2
:100C2000FA00FA1B232E4D277B18362EFD1F0034A9
:100C3000F009F109F00A0319F10AF809F909F80AAB
:100C40000319F90A0034F51F322EF11B2E2E7108FC
:100C5000F9007008F800F101F001162EF101F00121
:100C6000F00A0034F109F009FB0A132EF80A0319FF
:100C7000F90A74087802031D162E75087902031DFF
:100C8000162EF901F801F00A0319F10AF11F162EC8
:100C90000000FF34080003138312D501D601D901E7
:100CA000540884000008D8008A157B208A11700837
:100CB000003A0319882E8A1548208A117008D70037
:100CC00055085307F100710884007108840070080A
:100CD000800057085806031D722E56085502D90089
:100CE000D60A742ED601D90156085407840000088C
:100CF000F1007108D8007108003A031D802E892E7A
:100D0000D50A5508143C0318882E1330D900892EB3
:100D1000542E59085307F0007008840070088400AE
:100D20008001080003138312FB01FA01F9018030EE
:100D3000F800FD01F11FA22EF109F009F00A0319D4
:100D4000F10AFD0AF51FAA2EF509F409F40A0319A0
:100D5000F50AFD0AF10CF00C031CB72E7408F90714
:100D600075080318750FFA070318FB0A0310F01F24
:100D7000BF2E7408FA070318FB0A7508FB07FB0C63
:100D8000FA0CF90CF80C031CAA2E7D1CD22EFB09C0
:100D9000FA09F909F809F80A0319F90A0319FA0A0C
:100DA0000319FB0A7B08F3007A08F2007908F100C6
:100DB0007808F000080003138312FD01F31FED2EE5
:100DC000F009F109F209F309F00A0319F10A03190C
:100DD000F20A0319F30A8130FD07F71FFB2EF4090D
:100DE000F509F609F709F40A0319F50A0319F60AD1
:100DF0000319F70AFD0A16277D1C152FF009F109C2
:100E0000F209F309F809F909FA09FB09F00A0319CB
:100E1000F10A0319F20A0319F30A0319F80A03196C
:100E2000F90A0319FA0A0319FB0A080003138312CB
:100E30002230FC00F801F901FA01FB01FC0303195F
:100E40004C2F0310FB0CFA0CF90CF80CF30CF20C01
:100E5000F10CF00C031C1E2FFC0303193E2F740829
:100E6000F80775080318750FF90776080318760F49
:100E7000FA0777080318770FFB07222F7408F80783
:100E800075080318750FF90776080318760FFA0727
:100E900077080318770FFB07080003138312710DFF
:100EA000F80DF90D7408F8027508031C750FF902A6
:100EB000F00DF10D0F30FC00710DF80DF90D7408F7
:100EC000701C682FF8027508031C750FF9026D2F4E
:100ED000F80775080318750FF907F00DF10DFC0BF5
:100EE0005C2F7018792F7408F80775080318750FB0
:100EF000F9070800523003138312D300D401533092
:100F0000E0008A151D208A112F30D300D401533000
:100F1000E0008A151D208A110800FF3FFF3FFF3FB8
:100F2000FF3FFF3FFF3FFF3FFF3FFF3FFF3FFF3FD1
:100F3000FF3FFF3FFF3FFF3FFF3FFF3FFF3FFF3FC1
:100F4000FF3FFF3FFF3FFF3FFF3FFF3FFF3FFF3FB1
:100F5000FF3FFF3FFF3FFF3FFF3FFF3FFF3FFF3FA1
:100F6000FF3FFF3FFF3FFF3FFF3FFF3FFF3FFF3F91
:100F7000FF3FFF3FFF3FFF3FFF3FFF3FFF3FFF3F81
:100F8000FF3FFF3FFF3FFF3FFF3FFF3FFF3FFF3F71
:100F9000FF3FFF3FFF3FFF3FFF3FFF3FFF3FFF3F61
:100FA000FF3FFF3FFF3FFF3FFF3FFF3FFF3FFF3F51
:100FB000FF3FFF3FFF3FFF3FFF3FFF3FFF3FFF3F41
:100FC000FF3FFF3FFF3FFF3FFF3FFF3FFF3FFF3F31
:100FD000FF3FFF3FFF3FFF3FFF3FFF3FFF3FFF3F21
:100FE000FF3FFF3FFF3FFF3FFF3FFF3FFF3FFF3F11
:100FF000FF3FFF3FFF3FFF3FFF3FFF3FFF3FFF3F01
:1010000003138312F801F9011030FC00710DF80D83
:10101000F90D7408F8027508031C750FF90203181E
:1010200018287408F80775080318750FF9070310D6
:10103000F00DF10DFC0B0628080003138312E101EB
:10104000600884000008E2006208003A03193228B0
:101050006208E5005B20E10A61086007840000087F
:10106000E200242808000313831698169030831298
:10107000980083168616861783120C08F10000303C
:10108000F11A0130F1007108013A03193C280800F7
:10109000031383121A08E0001808F1000030F11859
:1010A0000130F1007108013A031D58281812181672
:1010B0006008F0000800031383161808F1000030E0
:1010C000F1180130F1007108003A031D6928000091
:1010D0005B28831265089900080003138312FB093B
:1010E000FA09F909F809F80A0319F90A0319FA0AB9
:1010F0000319FB0A0800031383120C08F1000030E7
:10110000F11A0130F1007108E0006008F0000800F9
:02400E00C430BC
:00000001FF
