:100000000428FF3FFF3FFF3FFF30031383168500A7
:100010006F30860087018B01031783129E019F01B9
:100020000313870119308316990018158A151D20AE
:100030008A11B201B301B401B501B601B7010130B3
:10004000A100A201B001B101A501A6018A15652098
:100050008A117008003C031893283830D7002F30DD
:10006000CD00CE014D30D80046263830D7009E2333
:100070007008BF007108C00080307106F400803045
:10008000073A7402031D4628D0307002FF3003186F
:100090000030F40080307106F2008030033A7202C2
:1000A000031D5428E8307002FF30031C0030F200BA
:1000B00072087405F000031968280130A100A2013C
:1000C000E8303F02C1000330031C013F4002C20080
:1000D00080304006F20080300B3A7202031D722815
:1000E000B8303F02FF3003180030F2008030400685
:1000F000F0008030073A7002031D8028D0303F02A4
:10010000FF30031C0030F0007208F005031993283B
:100110000230A100A201D0303F02C3000730031C0F
:10012000013F4002C40001300505F2007208013AA7
:10013000031DFB283208003A031DFB28FF30B200E4
:1001400000302206031DA62801302106031DD228F7
:100150002508013FF20000300318013F2607F30095
:100160007208A5007308A6008030033AF0008030C2
:1001700073067002031DBE287208E73C0318C428EA
:10018000E730A5000330A60080302606F00080305E
:100190007002031DCD28003025020318D128A501C7
:1001A000A601FB283008013FF20000300318013F90
:1001B0003107F3007208B0007308B1008030033AD1
:1001C000F000803073067002031DE8287208E73CD7
:1001D0000318EE28E730B0000330B100803031065C
:1001E000F00080307002031DF72800303002031841
:1001F000FB28B001B10101300505F2007208003A98
:10020000031D07293208FF3A031D0729B2010030F8
:1002100085180130F2007208013A031D26293308BF
:10022000003A031D2629FF30B30000302206031DCB
:100230001B2901302106031D22290130A502031CC0
:10024000A60326290130B002031CB1030030851833
:100250000130F2007208003A031D33293308FF3AD7
:10026000031D3329B301003085190130F2007208F3
:10027000013A031D50293508003A031D5029FF306B
:10028000B50000302206031D472901302106031D59
:100290004D290230A100A20150290130A100A20184
:1002A000003085190130F2007208003A031D5D2903
:1002B0003508FF3A031D5D29B5010030851A01306C
:1002C000F2007208013A031D6C293708003A031D39
:1002D0006C29FF30B700A1250030851A0130F200EB
:1002E0007208003A031D7529B701E830F4000330A5
:1002F000F5003F08F0004008F100EC257008D5003B
:100300007108D6005508C5005608C6006430F400D0
:10031000F5013F08F0004008F100EC257008CF001F
:100320007108D0005508F0005608F1000A30F400BA
:10033000F5018D2670084F02D3007108031C013FA0
:100340005002D4005308C7005408C8000A30F40013
:10035000F5013F08F0004008F100EC257008CF00DF
:100360007108D0005308F0005408F1000A30F4007E
:10037000F5018D267008CF02031CD0037108D0024E
:100380005508F0005608F1006430F400F5018D26A0
:1003900070084F02D1007108031C013F5002D200C7
:1003A0005108C9005208CA005108F0005208F10073
:1003B0000A30F400F5018D2670083F02CF00710865
:1003C000031C013F4002D0005308F0005408F10024
:1003D0006430F400F5018D267008CF02031CD003B1
:1003E0007108D0025508F0005608F100E830F4001A
:1003F0000330F5008D2670084F02F0007108031CD1
:10040000013F5002F1007008CB007108CC001030A1
:10041000F0070318F10A700887000730FB00FF306F
:10042000FA00FB0B142A172AFA0B142A112A783027
:10043000FA00FA0B192A0000000020305107F000E2
:1004400052080318013FF1000030F10770088700DF
:100450000730FB00FF30FA00FB0B2F2A322AFA0B81
:100460002F2A2C2A7830FA00FA0B342A00000000D8
:1004700040305307F00054080318013FF1000030EA
:10048000F107700887000730FB00FF30FA00FB0B14
:100490004A2A4D2AFA0B4A2A472A7830FA00FA0BE0
:1004A0004F2A0000000080305507F000560803185E
:1004B000013FF1000030F107700887000730FB00B2
:1004C000FF30FA00FB0B652A682AFA0B652A622ABC
:1004D0007830FA00FA0B6A2A0000000026286F2AFA
:1004E000031383127408F8027508031C750FF902D0
:1004F0007608031C760FFA027708031C770FFB02BD
:10050000F30D0730FC00730DF80DF90DFA0DFB0D1E
:100510007408731C992AF8027508031C750FF902F8
:100520007608031C760FFA027708031C770FFB028C
:10053000A62AF80775080318750FF9077608031837
:10054000760FFA0777080318770FFB07F30DFC0BFC
:10055000832A720DF80DF90DFA0DFB0D7408731C4A
:10056000BF2AF8027508031C750FF9027608031CF0
:10057000760FFA027708031C770FFB02CC2AF807E4
:1005800075080318750FF90776080318760FFA0730
:1005900077080318770FFB07F20D0730FC00720D88
:1005A000F80DF90DFA0DFB0D7408721CE52AF8021E
:1005B0007508031C750FF9027608031C760FFA0202
:1005C0007708031C770FFB02F22AF8077508031857
:1005D000750FF90776080318760FFA0777080318DE
:1005E000770FFB07F20DFC0BCF2A710DF80DF90DFB
:1005F000FA0DFB0D7408721C0B2BF8027508031C16
:10060000750FF9027608031C760FFA027708031CAF
:10061000770FFB02182BF80775080318750FF907F9
:1006200076080318760FFA0777080318770FFB0789
:10063000F10D0730FC00710DF80DF90DFA0DFB0DF1
:100640007408711C312BF8027508031C750FF90230
:100650007608031C760FFA027708031C770FFB025B
:100660003E2BF80775080318750FF907760803186D
:10067000760FFA0777080318770FFB07F10DFC0BCD
:100680001B2B700DF80DF90DFA0DFB0D7408711C84
:10069000572BF8027508031C750FF9027608031C26
:1006A000760FFA027708031C770FFB02642BF8071A
:1006B00075080318750FF90776080318760FFA07FF
:1006C00077080318770FFB07F00D0730FC00700D5B
:1006D000F80DF90DFA0DFB0D7408701C7D2BF80256
:1006E0007508031C750FF9027608031C760FFA02D1
:1006F0007708031C770FFB028A2BF807750803188D
:10070000750FF90776080318760FFA0777080318AC
:10071000770FFB07F00DFC0B672B70189D2B7408EF
:10072000F80775080318750FF90776080318760F90
:10073000FA0777080318770FFB07080003138312E3
:10074000D801D9011030DC002730DD00DA01DB01EF
:10075000E001E101E201E301DE01DF015A08570790
:1007600084000008F4007408003A03191C2C5A088D
:10077000570784000008F40074082D3A031DC72BA6
:10078000FF30DE00DF01DA0A0319DB0AAE2B5A085C
:10079000570784000008F4007408203A03190A2C53
:1007A0005A08570784000008F0003030F800F901BB
:1007B000FA01FB017008F400F501F601F701740875
:1007C000F0007508F1007608F2007708F300780869
:1007D000F0027908031C790FF1027A08031C7A0FE2
:1007E000F2027B08031C7B0FF3025C08F4005D0837
:1007F000F500F601F701D6267008E0077108031826
:10080000710FE10772080318720FE20773080318EB
:10081000730FE3070A30F400F5015C08F0005D088F
:10082000F1008A1500208A117008DC007108DD00D3
:10083000DA0A0319DB0AAE2B5E085F040319242CC5
:100840000630DC00DD01272C0530DC00DD015B0813
:100850005D06031D2D2C5C085A060319492C0A302D
:10086000F400F501F601F7016008F0006108F100FD
:100870006208F2006308F30005257008E0007108C3
:10088000E1007208E2007308E300DA0A0319DB0AE8
:10089000272C6008D8006108D90000305F06031DCE
:1008A000532CFF305E06031D5D2C5808003CD80019
:1008B0005908031C013FD901D9025808F000590812
:1008C000F1000800031383126508803A031D6A2CA7
:1008D00000306406031D822C660884002D308000E1
:1008E000840A33308000840A32308000840A373032
:1008F0008000840A36308000840A38308000840A00
:100900008001042DE80180306506F000803070021F
:10091000031D8C2C003064020318982CFF30E80073
:100920006408003CE4006508031C013FE501E502A2
:100930000130E7008030F000803065067002031D52
:10094000A32C6408093C0318A62CE70A8030F000A9
:10095000803065067002031DAF2C6408633C0318E9
:10096000B22CE70A8030033AF0008030650670024E
:10097000031DBC2C6408E73C0318BF2CE70A803039
:10098000273AF000803065067002031DC92C640808
:100990000F3C0318CC2CE70A660884002030800046
:1009A000840A8000840A8000840A8000840A80000F
:1009B000840A8000840A800184036708003C0318CD
:1009C000FF2C0A30F400F5016408F0006508F1001E
:1009D000EC257808F0007908F100303070078000CD
:1009E00084030A30F400F5016408F0006508F100A2
:1009F000EC257008E4007108E500E703DD2C6808C9
:100A00000319042D2D308000080003138312FC010C
:100A1000F71BFC0AFD01FB01FA01F901F80173085B
:100A20007204710470040319992D73087706A000ED
:100A3000A01BFD09F71F272DF409F509F609F70991
:100A4000F40A0319F50A0319F60A0319F70AF31F42
:100A5000342DF009F109F209F309F00A0319F10A3A
:100A60000319F20A0319F30A73087704A000A01B04
:100A7000552D7022FC1B722DFD1F992DF009F109D7
:100A8000F209F309F00A0319F10A0319F20A03192A
:100A9000F30AF809F909FA09FB09F80A0319F90A2E
:100AA0000319FA0A0319FB0A992DF71F6C2DF31B82
:100AB000662D7308FB007208FA007108F9007008CF
:100AC000F800F301F201F101F0013C2DF301F20114
:100AD000F101F001F00A0034F309F209F109F0091B
:100AE000FC17392DF80A0319F90A0319FA0A031930
:100AF000FB0A74087802031D3C2D75087902031D5A
:100B00003C2D76087A02031D3C2D77087B02031DDD
:100B10003C2DFB01FA01F901F801F00A0319F10A71
:100B20000319F20A0319F30AF31F3C2DA001201642
:100B3000FF34A0017C1C9F2D8A1557208A11003F8D
:100B400008000030031383122206031DA92D013073
:100B50002106031DC72D2508E83FF00003300318C8
:100B6000013F2607F1007008A3007108A400700877
:100B7000E4007108E5002730E60062242730E40035
:100B800075272F30D700D8015730E4007527003083
:100B90002206031DCD2D02302106031DEB2D30084A
:100BA000D03FF00007300318013F3107F100700813
:100BB000AE007108AF007008E4007108E50027304E
:100BC000E60062242730E40075272F30D700D801D3
:100BD0005730E4007527080003138312FD01F90163
:100BE000F801710870040319003471087506FA00E1
:100BF000FA1BFD09FB01F51F022EF409F509F40AA1
:100C00000319F50AF11F092EF009F109F00A031979
:100C1000F10A71087504FA00FA1B1E2E48277B188A
:100C2000312EFD1F0034F009F109F00A0319F10A11
:100C3000F809F909F80A0319F90A0034F51F2D2EED
:100C4000F11B292E7108F9007008F800F101F0017C
:100C5000112EF101F001F00A0034F109F009FB0A4C
:100C60000E2EF80A0319F90A74087802031D112ED2
:100C700075087902031D112EF901F801F00A031914
:100C8000F10AF11F112E0000FF3408000313831234
:100C9000D901DA01DD01580884000008DC008A155A
:100CA00065208A117008003A0319832E8A153220B4
:100CB0008A117008DB0059085707F1007108840099
:100CC00071088400700880005B085C06031D6D2EAF
:100CD0005A085902DD00DA0A6F2EDA01DD015A08DE
:100CE000580784000008F1007108DC007108003A20
:100CF000031D7B2E842ED90A5908143C0318832E19
:100D00001330DD00842E4F2E5D085707F000700869
:100D10008400700884008001080003138312FB0123
:100D2000FA01F9018030F800FD01F11F9D2EF10953
:100D3000F009F00A0319F10AFD0AF51FA52EF509BD
:100D4000F409F40A0319F50AFD0AF10CF00C031C6E
:100D5000B22E7408F90775080318750FFA070318FF
:100D6000FB0A0310F01FBA2E7408FA070318FB0AD7
:100D70007508FB07FB0CFA0CF90CF80C031CA52EEC
:100D80007D1CCD2EFB09FA09F909F809F80A0319A7
:100D9000F90A0319FA0A0319FB0A7B08F3007A0817
:100DA000F2007908F1007808F000080003138312BC
:100DB000FD01F31FE82EF009F109F209F309F00A29
:100DC0000319F10A0319F20A0319F30A8130FD0726
:100DD000F71FF62EF409F509F609F709F40A0319C5
:100DE000F50A0319F60A0319F70AFD0A11277D1CF3
:100DF000102FF009F109F209F309F809F909FA09C4
:100E0000FB09F00A0319F10A0319F20A0319F30A9C
:100E10000319F80A0319F90A0319FA0A0319FB0A54
:100E20000800031383122230FC00F801F901FA01D3
:100E3000FB01FC030319472F0310FB0CFA0CF90C00
:100E4000F80CF30CF20CF10CF00C031C192FFC0342
:100E50000319392F7408F80775080318750FF90777
:100E600076080318760FFA0777080318770FFB0741
:100E70001D2F7408F80775080318750FF907760811
:100E80000318760FFA0777080318770FFB07080097
:100E900003138312710DF80DF90D7408F80275082B
:100EA000031C750FF902F00DF10D0F30FC00710DF0
:100EB000F80DF90D7408701C632FF8027508031CF7
:100EC000750FF902682FF80775080318750FF907F1
:100ED000F00DF10DFC0B572F7018742F7408F807E4
:100EE00075080318750FF907080003138312E5014D
:100EF000640884000008E6006608003A03198C2F95
:100F00006608E9008A1545208A11E50A6508640724
:100F100084000008E6007C2F0800FF3FFF3FFF3FF2
:100F2000FF3FFF3FFF3FFF3FFF3FFF3FFF3FFF3FD1
:100F3000FF3FFF3FFF3FFF3FFF3FFF3FFF3FFF3FC1
:100F4000FF3FFF3FFF3FFF3FFF3FFF3FFF3FFF3FB1
:100F5000FF3FFF3FFF3FFF3FFF3FFF3FFF3FFF3FA1
:100F6000FF3FFF3FFF3FFF3FFF3FFF3FFF3FFF3F91
:100F7000FF3FFF3FFF3FFF3FFF3FFF3FFF3FFF3F81
:100F8000FF3FFF3FFF3FFF3FFF3FFF3FFF3FFF3F71
:100F9000FF3FFF3FFF3FFF3FFF3FFF3FFF3FFF3F61
:100FA000FF3FFF3FFF3FFF3FFF3FFF3FFF3FFF3F51
:100FB000FF3FFF3FFF3FFF3FFF3FFF3FFF3FFF3F41
:100FC000FF3FFF3FFF3FFF3FFF3FFF3FFF3FFF3F31
:100FD000FF3FFF3FFF3FFF3FFF3FFF3FFF3FFF3F21
:100FE000FF3FFF3FFF3FFF3FFF3FFF3FFF3FFF3F11
:100FF000FF3FFF3FFF3FFF3FFF3FFF3FFF3FFF3F01
:1010000003138312F801F9011030FC00710DF80D83
:10101000F90D7408F8027508031C750FF90203181E
:1010200018287408F80775080318750FF9070310D6
:10103000F00DF10DFC0B062808000313831698161B
:1010400090308312980083168616861783120C0838
:10105000F1000030F11A0130F1007108013A031972
:1010600026280800031383121A08E4001808F10068
:101070000030F1180130F1007108013A031D4228D7
:10108000181218166408F0000800031383161808D5
:10109000F1000030F1180130F1007108003A031D31
:1010A000532800004528831269089900080003139B
:1010B0008312FB09FA09F909F809F80A0319F90A70
:1010C0000319FA0A0319FB0A0800031383120C0818
:1010D000F1000030F11A0130F1007108E4006408F9
:1010E000F0000800FF3FFF3FFF3FFF3FFF3FFF3F94
:02400E00C430BC
:00000001FF
