:100000000428FF3FFF3FFF3FFF30031383168500A7
:100010006F30860087018B01031783129E019F01B9
:100020001930031383169900181596228701AB0126
:10003000AC01A201A301AD01AE01AF01B001B1015C
:10004000B201B3010130A000A10101300505F100AA
:100050007108013A031D41282D08003A031D41286B
:10006000FF30AD0000302106031D38280130200686
:10007000031D3E28A20A0319A30A4128AB0A03194B
:10008000AC0A01300505F1007108003A031D4D2846
:100090002D08FF3A031D4D28AD01003085180130B1
:1000A000F1007108013A031D6C282E08003A031D67
:1000B0006C28FF30AE0000302106031D612801309E
:1000C0002006031D68280130A202031CA3036C282C
:1000D0000130AB02031CAC03003085180130F10085
:1000E0007108003A031D79282E08FF3A031D79286C
:1000F000AE01003005190130F1007108013A031D0D
:100100008B282F08003A031D8B28FF30AF00A20177
:10011000A301AB01AC01003005190130F1007108F9
:10012000003A031D98282F08FF3A031D9828AF01B5
:10013000003085190130F1007108013A031DB5281E
:100140003008003A031DB528FF30B000003021060A
:10015000031DAC2801302006031DB2280230A00088
:10016000A101B5280130A000A1010030851901309E
:10017000F1007108003A031DC2283008FF3A031D40
:10018000C228B0010030851A0130F1007108013A2F
:10019000031DD1283208003A031DD128FF30B200D8
:1001A000BA210030851A0130F1007108003A031DB0
:1001B000DA28B2018030033AF00080302306700262
:1001C000031DE4282208E73C0318EA28E730A200D0
:1001D0000330A30080302306F00080307002031D3E
:1001E000F328003022020318F728A201A30180306F
:1001F000033AF00080302C067002031D01292B0801
:10020000E73C03180729E730AB000330AC0080302F
:100210002C06F00080307002031D102900302B02E4
:1002200003181429AB01AC01B401252816290313C6
:1002300083123A08803A031D1F2900303906031D36
:1002400037293B0884002D308000840A3330800039
:10025000840A32308000840A37308000840A3630C5
:100260008000840A38308000840A8001B929BD01E9
:1002700080303A06F00080307002031D41290030C2
:10028000390203184D29FF30BD003908003CB90080
:100290003A08031C013FBA01BA020130BC008030A9
:1002A000F00080303A067002031D58293908093CD5
:1002B00003185B29BC0A8030F00080303A067002D7
:1002C000031D64293908633C03186729BC0A803080
:1002D000033AF00080303A067002031D7129390894
:1002E000E73C03187429BC0A8030273AF0008030BC
:1002F0003A067002031D7E2939080F3C0318812934
:10030000BC0A3B08840020308000840A8000840AF4
:100310008000840A8000840A8000840A8000840AA5
:10032000800184033C08003C0318B4290A30F4001F
:10033000F5013908F0003A08F100F9217808F000D9
:100340007908F10030307007800084030A30F4002F
:10035000F5013908F0003A08F100F9217008B900F8
:100360007108BA00BC0392293D080319B9292D3040
:10037000800008000030031383122106031DC229E8
:1003800001302006031DDA292208B9002308BA002B
:100390002430BB0017213130B500B6013530B9002B
:1003A00080222430B90080222F30B500B6013530CC
:1003B000B900802200302106031DE029023020060A
:1003C000031DF8292B08B9002C08BA002430BB0003
:1003D00017213230B500B6013530B9008022243003
:1003E000B90080222F30B500B6013530B900802227
:1003F000080003138312FD01F901F801710870046C
:100400000319003471087506FA00FA1BFD09FB0197
:10041000F51F0F2AF409F509F40A0319F50AF11F6B
:10042000162AF009F109F00A0319F10A7108750496
:10043000FA00FA1B2B2A53227B183E2AFD1F003498
:10044000F009F109F00A0319F10AF809F909F80AA3
:100450000319F90A0034F51F3A2AF11B362A7108EC
:10046000F9007008F800F101F0011E2AF101F00115
:10047000F00A0034F109F009FB0A1B2AF80A0319F3
:10048000F90A74087802031D1E2A75087902031DF3
:100490001E2AF901F801F00A0319F10AF11F1E2AB8
:1004A0000000FF34080003138312710DF80DF90DDD
:1004B0007408F8027508031C750FF902F00DF10DB0
:1004C0000F30FC00710DF80DF90D7408701C6E2AC8
:1004D000F8027508031C750FF902732AF8077508EE
:1004E0000318750FF907F00DF10DFC0B622A701857
:1004F0007F2A7408F80775080318750FF9070800B4
:1005000003138312BA01390884000008BB003B08BA
:10051000003A0319952A3B08BE00AB22BA0A3A08F2
:10052000390784000008BB00872A080003138316DC
:1005300098169030831298008316861686178312B9
:100540000C08F1000030F11A0130F1007108013A95
:1005500003199F2A0800031383161808F1000030BE
:10056000F1180130F1007108003A031DB92A0000AA
:10057000AB2A83123E0899000800FF3FFF3FFF3F70
:02400E00C430BC
:00000001FF
