:100000000428FF3FFF3FFF3FFF30031383168500A7
:100010006F30860087018B01031783129E019F01B9
:100020000313870119308316990018158A151620B5
:100030008A11AE01AF01B001B101B201B3010130CB
:10004000A100A201AC01AD01A301A4018A155020B9
:100050008A117008003A031944283430D1002F3037
:10006000C700C8014730D20032263430D1008E2379
:100070007008BB007108BC002F30C700C8014730B2
:10008000DE008A1500208A1101300505F200720891
:10009000013A031D60282E08003A031D6028FF3036
:1000A000AE0000302206031D572801302106031D33
:1000B0005D28A30A0319A40A6028AC0A0319AD0A33
:1000C00001300505F2007208003A031D6C282E0865
:1000D000FF3A031D6C28AE01003085180130F20094
:1000E0007208013A031D8B282F08003A031D8B2844
:1000F000FF30AF0000302206031D802801302106AA
:10010000031D87280130A302031CA4038B280130A0
:10011000AC02031CAD03003085180130F2007208F8
:10012000003A031D98282F08FF3A031D9828AF01B5
:10013000003005190130F2007208013A031DAA28A7
:100140003008003A031DAA28FF30B000A301A40123
:10015000AC01AD01003005190130F2007208003A1F
:10016000031DB7283008FF3A031DB728B00100303F
:1001700085190130F2007208013A031DD4283108B4
:10018000003A031DD428FF30B10000302206031DC1
:10019000CB2801302106031DD1280230A100A20185
:1001A000D4280130A100A201003085190130F200ED
:1001B0007208003A031DE1283108FF3A031DE128C7
:1001C000B1010030051A0130F2007208013A031D36
:1001D000FA283208003A031DFA28FF30B200003036
:1001E000061A0130F2007208003A031DF9280616BB
:1001F000FA2806120030051A0130F2007208003A9F
:10020000031D07293208FF3A031D0729B2010030F8
:10021000851A0130F2007208013A031D19293308CA
:10022000003A031D1929FF30B3008D25BD0A0319BB
:10023000BE0A0030851A0130F2007208003A031D30
:100240002229B3018030033AF00080302406700286
:10025000031D2C292308E73C03183229E730A300AB
:100260000330A40080302406F00080307002031DAB
:100270003B290030230203183F29A301A401803049
:10028000033AF00080302D067002031D49292C0826
:10029000E73C03184F29E730AC000330AD00803055
:1002A0002D06F00080307002031D582900302C020A
:1002B00003185C29AC01AD0100302206031D622940
:1002C00001302106031D69292308BB002408BC0056
:1002D0006D292C08BB002D08BC00E830F400033069
:1002E000F5003B08F0003C08F100D8257008CF006D
:1002F0007108D0004F08BF005008C0006430F400FF
:10030000F5013B08F0003C08F100D8257008C90051
:100310007108CA004F08F0005008F1000A30F400DC
:10032000F501792670084902CD007108031C013FD0
:100330004A02CE004D08C1004E08C2000A30F40047
:10034000F5013B08F0003C08F100D8257008C90011
:100350007108CA004D08F0004E08F1000A30F400A0
:10036000F50179267008C902031CCA037108CA0284
:100370004F08F0005008F1006430F400F5017926D0
:1003800070084902CB007108031C013F4A02CC00EF
:100390004B08C3004C08C4004B08F0004C08F100A7
:1003A0000A30F400F501792670083B02C900710893
:1003B000031C013F3C02CA004D08F0004E08F1004A
:1003C0006430F400F50179267008C902031CCA03E1
:1003D0007108CA024F08F0005008F100E830F4003C
:1003E0000330F500792670084902F0007108031CFB
:1003F000013F4A02F1007008C5007108C6001030C4
:10040000F0070318F10A700887000430FB00FF3082
:10041000FA00FB0B0C2A0F2AFA0B0C2A092AE230ED
:10042000FA00FA0B112A20304B07F0004C08031891
:10043000013FF1000030F107700887000430FB0035
:10044000FF30FA00FB0B252A282AFA0B252A222A3C
:10045000E230FA00FA0B2A2A40304D07F0004E082D
:100460000318013FF1000030F107700887000430E5
:10047000FB00FF30FA00FB0B3E2A412AFA0B3E2A12
:100480003B2AE230FA00FA0B432A80304F07F00093
:1004900050080318013FF1000030F1077008870091
:1004A0000430FB00FF30FA00FB0B572A5A2AFA0BE4
:1004B000572A542AE230FA00FA0B5C2A26285F2ACF
:1004C000031383127408F8027508031C750FF902F0
:1004D0007608031C760FFA027708031C770FFB02DD
:1004E000F30D0730FC00730DF80DF90DFA0DFB0D3F
:1004F0007408731C892AF8027508031C750FF90229
:100500007608031C760FFA027708031C770FFB02AC
:10051000962AF80775080318750FF9077608031867
:10052000760FFA0777080318770FFB07F30DFC0B1C
:10053000732A720DF80DF90DFA0DFB0D7408731C7A
:10054000AF2AF8027508031C750FF9027608031C20
:10055000760FFA027708031C770FFB02BC2AF80714
:1005600075080318750FF90776080318760FFA0750
:1005700077080318770FFB07F20D0730FC00720DA8
:10058000F80DF90DFA0DFB0D7408721CD52AF8024E
:100590007508031C750FF9027608031C760FFA0222
:1005A0007708031C770FFB02E22AF8077508031887
:1005B000750FF90776080318760FFA0777080318FE
:1005C000770FFB07F20DFC0BBF2A710DF80DF90D2B
:1005D000FA0DFB0D7408721CFB2AF8027508031C47
:1005E000750FF9027608031C760FFA027708031CD0
:1005F000770FFB02082BF80775080318750FF9072A
:1006000076080318760FFA0777080318770FFB07A9
:10061000F10D0730FC00710DF80DF90DFA0DFB0D11
:100620007408711C212BF8027508031C750FF90260
:100630007608031C760FFA027708031C770FFB027B
:100640002E2BF80775080318750FF907760803189D
:10065000760FFA0777080318770FFB07F10DFC0BED
:100660000B2B700DF80DF90DFA0DFB0D7408711CB4
:10067000472BF8027508031C750FF9027608031C56
:10068000760FFA027708031C770FFB02542BF8074A
:1006900075080318750FF90776080318760FFA071F
:1006A00077080318770FFB07F00D0730FC00700D7B
:1006B000F80DF90DFA0DFB0D7408701C6D2BF80286
:1006C0007508031C750FF9027608031C760FFA02F1
:1006D0007708031C770FFB027A2BF80775080318BD
:1006E000750FF90776080318760FFA0777080318CD
:1006F000770FFB07F00DFC0B572B70188D2B740830
:10070000F80775080318750FF90776080318760FB0
:10071000FA0777080318770FFB0708000313831203
:10072000D201D3011030D6002730D700D401D50133
:10073000DA01DB01DC01DD01D801D90154085107E0
:1007400084000008F4007408003A03190A2C5408C5
:10075000510784000008F40074082D3A031DB72BDC
:10076000FF30D800D901D40A0319D50A9E2B5408AA
:10077000510784000008F4007408203A0319FA2B8A
:100780005408510784000008F0003030F800F901E7
:10079000FA01FB017008F400F501F601F701740895
:1007A000F0007508F1007608F2007708F300780889
:1007B000F0027908031C790FF1027A08031C7A0F02
:1007C000F2027B08031C7B0FF3025608F400570863
:1007D000F500F601F701C2267008DA077108031860
:1007E000710FDB0772080318720FDC077308031818
:1007F000730FDD070A30F400F5015608F0005708C2
:10080000F10061277008D6007108D700D40A0319D7
:10081000D50A9E2B580859040319122C0630D6000D
:10082000D701152C0530D600D70155085706031DF2
:100830001B2C560854060319372C0A30F400F50116
:10084000F601F7015A08F0005B08F1005C08F200BD
:100850005D08F300F3247008DA007108DB00720809
:10086000DC007308DD00D40A0319D50A152C5A08D8
:10087000D2005B08D30000305906031D412CFF3025
:100880005806031D4B2C5208003CD2005308031C91
:10089000013FD301D3025208F0005308F1000800D1
:1008A000031383125F08803A031D582C00305E0644
:1008B000031D702C600884002D308000840A3330C2
:1008C0008000840A32308000840A37308000840A35
:1008D00036308000840A38308000840A8001F22C8F
:1008E000E20180305F06F00080307002031D7A2C38
:1008F00000305E020318862CFF30E2005E08003CE8
:10090000DE005F08031C013FDF01DF020130E10070
:100910008030F00080305F067002031D912C5E086D
:10092000093C0318942CE10A8030F00080305F0607
:100930007002031D9D2C5E08633C0318A02CE10A85
:100940008030033AF00080305F067002031DAA2C4D
:100950005E08E73C0318AD2CE10A8030273AF0002E
:1009600080305F067002031DB72C5E080F3C031831
:10097000BA2CE10A6008840020308000840A8000DC
:10098000840A8000840A8000840A8000840A80002F
:10099000840A800184036108003C0318ED2C0A30AE
:1009A000F400F5015E08F0005F08F100D825780832
:1009B000F0007908F10030307007800084030A30BD
:1009C000F400F5015E08F0005F08F100D82570081A
:1009D000DE007108DF00E103CB2C62080319F22C62
:1009E0002D308000080003138312FC01F71BFC0A62
:1009F000FD01FB01FA01F901F801730872047104A9
:100A000070040319872D73087706A000A01BFD0949
:100A1000F71F152DF409F509F609F709F40A03196A
:100A2000F50A0319F60A0319F70AF31F222DF00934
:100A3000F109F209F309F00A0319F10A0319F20A9C
:100A40000319F30A73087704A000A01B432D60224A
:100A5000FC1B602DFD1F872DF009F109F209F30938
:100A6000F00A0319F10A0319F20A0319F30AF80943
:100A7000F909FA09FB09F80A0319F90A0319FA0A2C
:100A80000319FB0A872DF71F5A2DF31B542D7308EA
:100A9000FB007208FA007108F9007008F800F30111
:100AA000F201F101F0012A2DF301F201F101F0014F
:100AB000F00A0034F309F209F109F009FC17272DB7
:100AC000F80A0319F90A0319FA0A0319FB0A740848
:100AD0007802031D2A2D75087902031D2A2D760838
:100AE0007A02031D2A2D77087B02031D2A2DFB01A4
:100AF000FA01F901F801F00A0319F10A0319F20ADF
:100B00000319F30AF31F2A2DA0012016FF34A001B8
:100B10007C1C8B2D7E27003F0800003003138312BE
:100B20002206031D952D01302106031DB32D230838
:100B3000DE002408DF002530E00050243130D100F1
:100B4000D2015130DE008A1500208A112530DE00E6
:100B50008A1500208A112F30D100D2015130DE00D9
:100B60008A1500208A1100302206031DB92D02309B
:100B70002106031DD72D2C08DE002D08DF002530AF
:100B8000E00050243230D100D2015130DE008A150D
:100B900000208A112530DE008A1500208A112F30AE
:100BA000D100D2015130DE008A1500208A110800E0
:100BB00003138312FD01F901F80171087004031990
:100BC000003471087506FA00FA1BFD09FB01F51FD8
:100BD000EE2DF409F509F40A0319F50AF11FF52DB4
:100BE000F009F109F00A0319F10A71087504FA0015
:100BF000FA1B0A2E34277B181D2EFD1F0034F00926
:100C0000F109F00A0319F10AF809F909F80A0319B8
:100C1000F90A0034F51F192EF11B152E7108F90081
:100C20007008F800F101F001FD2DF101F001F00A6A
:100C30000034F109F009FB0AFA2DF80A0319F90A40
:100C400074087802031DFD2D75087902031DFD2D22
:100C5000F901F801F00A0319F10AF11FFD2D000056
:100C6000FF34080003138312D301D401D7015208C3
:100C700084000008D6008A1550208A117008003AB6
:100C800003196F2E8A152B208A117008D50053087E
:100C90005107F10071088400710884007008800019
:100CA00055085606031D592E54085302D700D40A7E
:100CB0005B2ED401D7015408520784000008F100CC
:100CC0007108D6007108003A031D672E702ED30AF2
:100CD0005308143C03186F2E1330D700702E3B2E90
:100CE00057085107F00070088400700884008001E4
:100CF000080003138312FB01FA01F9018030F800A8
:100D0000FD01F11F892EF109F009F00A0319F10A1A
:100D1000FD0AF51F912EF509F409F40A0319F50AE5
:100D2000FD0AF10CF00C031C9E2E7408F9077508DF
:100D30000318750FFA070318FB0A0310F01FA62EFD
:100D40007408FA070318FB0A7508FB07FB0CFA0C7A
:100D5000F90CF80C031C912E7D1CB92EFB09FA0925
:100D6000F909F809F80A0319F90A0319FA0A031923
:100D7000FB0A7B08F3007A08F2007908F100780892
:100D8000F000080003138312FD01F31FD42EF009B5
:100D9000F109F209F309F00A0319F10A0319F20A39
:100DA0000319F30A8130FD07F71FE22EF409F50954
:100DB000F609F709F40A0319F50A0319F60A0319E3
:100DC000F70AFD0AFD267D1CFC2EF009F109F20947
:100DD000F309F809F909FA09FB09F00A0319F10AFC
:100DE0000319F20A0319F30A0319F80A0319F90A95
:100DF0000319FA0A0319FB0A0800031383122230AD
:100E0000FC00F801F901FA01FB01FC030319332F7F
:100E10000310FB0CFA0CF90CF80CF30CF20CF10CAF
:100E2000F00C031C052FFC030319252F7408F80789
:100E300075080318750FF90776080318760FFA0777
:100E400077080318770FFB07092F7408F807750850
:100E50000318750FF90776080318760FFA07770855
:100E60000318770FFB07080003138312710DF80DA9
:100E7000F90D7408F8027508031C750FF902F00DDE
:100E8000F10D0F30FC00710DF80DF90D7408701C98
:100E90004F2FF8027508031C750FF902542FF8073D
:100EA00075080318750FF907F00DF10DFC0B432FB2
:100EB0007018602F7408F80775080318750FF90784
:100EC000080003138312F801F9011030FC00710DC2
:100ED000F80DF90D7408F8027508031C750FF90276
:100EE0000318792F7408F80775080318750FF907A8
:100EF0000310F00DF10DFC0B672F08000313831294
:100F0000FB09FA09F909F809F80A0319F90A03199A
:100F1000FA0A0319FB0A0800FF3FFF3FFF3FFF3FAC
:100F2000FF3FFF3FFF3FFF3FFF3FFF3FFF3FFF3FD1
:100F3000FF3FFF3FFF3FFF3FFF3FFF3FFF3FFF3FC1
:100F4000FF3FFF3FFF3FFF3FFF3FFF3FFF3FFF3FB1
:100F5000FF3FFF3FFF3FFF3FFF3FFF3FFF3FFF3FA1
:100F6000FF3FFF3FFF3FFF3FFF3FFF3FFF3FFF3F91
:100F7000FF3FFF3FFF3FFF3FFF3FFF3FFF3FFF3F81
:100F8000FF3FFF3FFF3FFF3FFF3FFF3FFF3FFF3F71
:100F9000FF3FFF3FFF3FFF3FFF3FFF3FFF3FFF3F61
:100FA000FF3FFF3FFF3FFF3FFF3FFF3FFF3FFF3F51
:100FB000FF3FFF3FFF3FFF3FFF3FFF3FFF3FFF3F41
:100FC000FF3FFF3FFF3FFF3FFF3FFF3FFF3FFF3F31
:100FD000FF3FFF3FFF3FFF3FFF3FFF3FFF3FFF3F21
:100FE000FF3FFF3FFF3FFF3FFF3FFF3FFF3FFF3F11
:100FF000FF3FFF3FFF3FFF3FFF3FFF3FFF3FFF3F01
:1010000003138312DF015E0884000008E00060081B
:10101000003A031915286008E3003E20DF0A5F0844
:101020005E0784000008E000072808000313831609
:1010300098169030831298008316861686178312AE
:101040000C08F1000030F11A0130F1007108013A8A
:1010500003191F280800031383121A08DE0018085A
:10106000F1000030F1180130F1007108013A031D60
:101070003B28181218165E08F000080003138316A8
:101080001808F1000030F1180130F1007108003A41
:10109000031D4C2800003E288312630899000800B5
:1010A000031383120C08F1000030F11A0130F10033
:1010B0007108DE005E08F0000800FF3FFF3FFF3FC1
:02400E00C430BC
:00000001FF
