:100000000428FF3FFF3FFF3FFF30031383168500A7
:100010006F30860087018B01031783129E019F01B9
:10002000193003138316990018156A238701AB0151
:10003000AC01A201A301AD01AE01AF01B001B1015C
:10004000B201B3010130A000A10101300505F200A9
:100050007208013A031D41282D08003A031D41286A
:10006000FF30AD0000302106031D38280130200686
:10007000031D3E28A20A0319A30A4128AB0A03194B
:10008000AC0A01300505F2007208003A031D4D2844
:100090002D08FF3A031D4D28AD01003085180130B1
:1000A000F2007208013A031D6C282E08003A031D65
:1000B0006C28FF30AE0000302106031D612801309E
:1000C0002006031D68280130A202031CA3036C282C
:1000D0000130AB02031CAC03003085180130F20084
:1000E0007208003A031D79282E08FF3A031D79286B
:1000F000AE01003005190130F2007208013A031D0B
:100100008B282F08003A031D8B28FF30AF00A20177
:10011000A301AB01AC01003005190130F2007208F7
:10012000003A031D98282F08FF3A031D9828AF01B5
:10013000003085190130F2007208013A031DB5281C
:100140003008003A031DB528FF30B000003021060A
:10015000031DAC2801302006031DB2280230A00088
:10016000A101B5280130A000A1010030851901309E
:10017000F2007208003A031DC2283008FF3A031D3E
:10018000C228B0010030851A0130F2007208013A2D
:10019000031DD1283208003A031DD128FF30B200D8
:1001A0008E220030851A0130F2007208003A031DD9
:1001B000DA28B2018030033AF00080302306700262
:1001C000031DE4282208E73C0318EA28E730A200D0
:1001D0000330A30080302306F00080307002031D3E
:1001E000F328003022020318F728A201A30180306F
:1001F000033AF00080302C067002031D01292B0801
:10020000E73C03180729E730AB000330AC0080302F
:100210002C06F00080307002031D102900302B02E4
:1002200003181429AB01AC012208013FC3000030C0
:100230000318013F2307C4004308A2004408A30099
:100240000730FB00FF30FA00FB0B27292A29FA0BA5
:10025000272924297830FA00FA0B2C290000000005
:10026000E830F4000330F5004308F0004408F100E2
:10027000CD227008C1007108C2004108B4004208D4
:10028000B5006430F400F5014308F0004408F100C3
:10029000CD220A30F400F501CD227808F00079086B
:1002A000F1007008BF007108C0003F08B6004008A8
:1002B000B7000A30F400F5014308F0004408F100EB
:1002C000CD220A30F400F501CD227808F00079083B
:1002D000F1007008BD007108BE003D08B8003E087E
:1002E000B9000A30F400F5014308F0004408F100B9
:1002F000CD227808F0007908F1007008BA00710882
:10030000BB0010303F07F20040080318013FF30024
:100310000030F307720887000730FB00FF30FA0057
:10032000FB0B93299629FA0B932990297830FA0030
:10033000FA0B9829000000002030F0070318F10A9A
:10034000700887000730FB00FF30FA00FB0BA9297B
:10035000AC29FA0BA929A6297830FA00FA0BAE29A4
:100360000000000040303D07F0003E080318013F48
:10037000F1000030F107700887000730FB00FF3004
:10038000FA00FB0BC429C729FA0BC429C12978300C
:10039000FA00FA0BC9290000000080304107F00084
:1003A00042080318013FF1000030F1077008870090
:1003B0000730FB00FF30FA00FB0BDF29E229FA0BC4
:1003C000DF29DC297830FA00FA0BE429000000006C
:1003D000BC012528EA29031383124A08803A031D29
:1003E000F32900304906031D0B2A4B0884002D30E9
:1003F0008000840A33308000840A32308000840A0E
:1004000037308000840A36308000840A383080001B
:10041000840A80018D2ACD0180304A06F0008030A8
:100420007002031D152A003049020318212AFF30EB
:10043000CD004908003CC9004A08031C013FCA011D
:10044000CA020130CC008030F00080304A067002D1
:10045000031D2C2A4908093C03182F2ACC0A803096
:10046000F00080304A067002031D382A4908633CB8
:1004700003183B2ACC0A8030033AF00080304A0649
:100480007002031D452A4908E73C0318482ACC0A94
:100490008030273AF00080304A067002031D522A4D
:1004A00049080F3C0318552ACC0A4B088400203019
:1004B0008000840A8000840A8000840A8000840A04
:1004C0008000840A8000840A800184034C08003C78
:1004D0000318882A0A30F400F5014908F0004A0898
:1004E000F100CD227808F0007908F1003030700773
:1004F000800084030A30F400F5014908F0004A083E
:10050000F100CD227008C9007108CA00CC03662A28
:100510004D0803198D2A2D30800008000030031388
:1005200083122106031D962A01302006031DAE2AE0
:100530002208C9002308CA002430CB00EB21313047
:10054000C500C6014530C90054232430C9005423D6
:100550002F30C500C6014530C900542300302106A4
:10056000031DB42A02302006031DCC2A2B08C90023
:100570002C08CA002430CB00EB213230C500C60164
:100580004530C90054232430C90054232F30C500FE
:10059000C6014530C9005423080003138312FD012E
:1005A000F901F80171087004031900347108750627
:1005B000FA00FA1BFD09FB01F51FE32AF409F5090E
:1005C000F40A0319F50AF11FEA2AF009F109F00A01
:1005D0000319F10A71087504FA00FA1BFF2A272390
:1005E0007B18122BFD1F0034F009F109F00A0319E2
:1005F000F10AF809F909F80A0319F90A0034F51F94
:100600000E2BF11B0A2B7108F9007008F800F1019C
:10061000F001F22AF101F001F00A0034F109F009C9
:10062000FB0AEF2AF80A0319F90A74087802031D75
:10063000F22A75087902031DF22AF901F801F00A7D
:100640000319F10AF11FF22A0000FF340800031316
:100650008312710DF80DF90D7408F8027508031C6A
:10066000750FF902F00DF10D0F30FC00710DF80D52
:10067000F90D7408701C422BF8027508031C750FE5
:10068000F902472BF80775080318750FF907F00DE5
:10069000F10DFC0B362B7018532B7408F8077508F6
:1006A0000318750FF907080003138312CA014908DC
:1006B00084000008CB004B08003A0319692B4B0853
:1006C000CE007F23CA0A4A08490784000008CB00ED
:1006D0005B2B080003138316981690308312980042
:1006E00083168616861783120C08F1000030F11A63
:1006F0000130F1007108013A0319732B080003134C
:1007000083161808F1000030F1180130F10071086B
:10071000003A031D8D2B00007F2B83124E08990099
:100720000800FF3FFF3FFF3FFF3FFF3FFF3FFF3F0F
:02400E00C430BC
:00000001FF
