:100000000428FF3FFF3FFF3FFF30031383168500A7
:100010006F30860087018B01031783129E019F01B9
:100020001930031383169900181548228701A0017F
:10003000A101A901AA01AB01AC01AD01AE01AF0163
:1000400082227008003C03182D282230B3002F3084
:10005000B100B2013130B400AD2101300505F1002D
:100060007108013A031D3D282908003A031D3D2867
:10007000FF30A900A00A0319A10A01300505F1000B
:100080007108003A031D49282908FF3A031D492831
:10009000A901003085180130F1007108013A031DF3
:1000A0005B282A08003A031D5B28FF30AA000130B4
:1000B000A002031CA103003085180130F100710873
:1000C000003A031D68282A08FF3A031D6828AA0180
:1000D000003005190130F1007108013A031D78283C
:1000E0002B08003A031D7828FF30AB00A001A101C6
:1000F000003005190130F1007108003A031D852810
:100100002B08FF3A031D8528AB010030851A01300A
:10011000F1007108013A031D94282C08003A031DD0
:100120009428FF30AC001D220030851A0130F10008
:100130007108003A031D9D28AC018030033AF0009D
:10014000803021067002031DA7282008E73C031811
:10015000AD28E730A0000330A100B0012028AF286F
:10016000031383123B08803A031DB82800303A0677
:10017000031DD0283C0884002D308000840A3330D1
:100180008000840A32308000840A37308000840A7C
:1001900036308000840A38308000840A8001522979
:1001A000BE0180303B06F00080307002031DDA286B
:1001B00000303A020318E628FF30BE003A08003C3F
:1001C000BA003B08031C013FBB01BB020130BD006C
:1001D0008030F00080303B067002031DF1283A08A1
:1001E000093C0318F428BD0A8030F00080303B063B
:1001F0007002031DFD283A08633C03180029BD0A5C
:100200008030033AF00080303B067002031D0A295B
:100210003A08E73C03180D29BD0A8030273AF00060
:1002200080303B067002031D17293A080F3C031863
:100230001A29BD0A3C08840020308000840A80000E
:10024000840A8000840A8000840A8000840A800076
:10025000840A800184033D08003C03184D290A30BC
:10026000F400F5013A08F0003B08F100532178084A
:10027000F0007908F10030307007800084030A3004
:10028000F400F5013A08F0003B08F1005321700832
:10029000BA007108BB00BD032B293E08031952297F
:1002A0002D308000080003138312FD01F901F801CD
:1002B000710870040319003471087506FA00FA1BFE
:1002C000FD09FB01F51F6929F409F509F40A031971
:1002D000F50AF11F7029F009F109F00A0319F10A72
:1002E00071087504FA00FA1B8529F0217B189829FA
:1002F000FD1F0034F009F109F00A0319F10AF809A9
:10030000F909F80A0319F90A0034F51F9429F11BB9
:1003100090297108F9007008F800F101F0017829BE
:10032000F101F001F00A0034F109F009FB0A752926
:10033000F80A0319F90A74087802031D7829750868
:100340007902031D7829F901F801F00A0319F10A6D
:10035000F11F78290000FF34080003138312B50150
:10036000B601B901340884000008B8008222700880
:10037000003A0319E6295D227008B70035083307F3
:10038000F10071088400710884007008800037084B
:100390003806031DD02936083502B900B60AD2291D
:1003A000B601B9013608340784000008F10071086D
:1003B000B8007108003A031DDE29E729B50A35089F
:1003C000143C0318E6291330B900E729B629390887
:1003D0003307F00070088400700884008001080072
:1003E00003138312710DF80DF90D7408F8027508E6
:1003F000031C750FF902F00DF10D0F30FC00710DAB
:10040000F80DF90D7408701C0B2AF8027508031C0E
:10041000750FF902102AF80775080318750FF90708
:10042000F00DF10DFC0BFF2970181C2A7408F80759
:1004300075080318750FF90708005030031383126D
:10044000B3003130B400B5013330BA003222200895
:10045000BA002108BB002230BC00B0202230BA0014
:100460003222080003138312BB013A0884000008FB
:10047000BC003C08003A0319472A3C08BF00702220
:10048000BB0A3B083A0784000008BC00392A080070
:1004900003138316981690308312980083168616DD
:1004A000861783120C08F1000030F11A0130F100B8
:1004B0007108013A0319512A0800031383121A081C
:1004C000BA001808F1000030F1180130F10071088D
:1004D000013A031D6D2A181218163A08F000080098
:1004E000031383161808F1000030F1180130F100F1
:1004F0007108003A031D7E2A0000702A83123F080B
:1005000099000800031383120C08F1000030F11A5F
:100510000130F1007108BA003A08F0000800FF3F0E
:02400E00C430BC
:00000001FF
