:100000000428FF3FFF3FFF3FFF30031383168500A7
:100010006F30860087018B01031783129E019F01B9
:100020000313870119308316990018150824AB01B2
:10003000AC01A201A301AD01AE01AF01B001B1015C
:10004000B2010130A000A10101300505F2007208E3
:10005000013A031D40282D08003A031D4028FF30B7
:10006000AD0000302106031D372801302006031D96
:100070003D28A20A0319A30A4028AB0A0319AC0AB7
:1000800001300505F2007208003A031D4C282D08C6
:10009000FF3A031D4C28AD01003085180130F200F5
:1000A0007208013A031D6B282E08003A031D6B28C5
:1000B000FF30AE0000302106031D6028013020060D
:1000C000031D67280130A202031CA3036B28013023
:1000D000AB02031CAC03003085180130F20072083B
:1000E000003A031D78282E08FF3A031D7828AE0138
:1000F000003005190130F2007208013A031D8A2808
:100100002F08003A031D8A28FF30AF00A201A30187
:10011000AB01AC01003005190130F2007208003A61
:10012000031D97282F08FF3A031D9728AF010030C1
:1001300085190130F2007208013A031DB428300815
:10014000003A031DB428FF30B00000302106031D23
:10015000AB2801302006031DB1280230A000A10108
:10016000B4280130A000A101003085190130F2004F
:100170007208003A031DC1283008FF3A031DC12848
:10018000B0010030051A0130F2007208013A031D77
:10019000DA283108003A031DDA28FF30B1000030B8
:1001A000061A0130F2007208003A031DD92806161B
:1001B000DA2806120030051A0130F2007208003AFF
:1001C000031DE7283108FF3A031DE728B10100307D
:1001D000851A0130F2007208013A031DF92832082D
:1001E000003A031DF928FF30B200E322B30A0319D5
:1001F000B40A0030851A0130F2007208003A031D7B
:100200000229B2018030033AF000803023067002E8
:10021000031D0C292208E73C03181229E730A2002D
:100220000330A30080302306F00080307002031DED
:100230001B290030220203181F29A201A3018030CC
:10024000033AF00080302C067002031D29292B0888
:10025000E73C03182F29E730AB000330AC008030B7
:100260002C06F00080307002031D382900302B026C
:1002700003183C29AB01AC0100302106031D4229C3
:1002800001302006031D49292208B5002308B600C5
:100290004D292B08B5002C08B600E830F4000330D7
:1002A000F5003508F0003608F10022237008C5007B
:1002B0007108C6004508B7004608B8006430F4006D
:1002C000F5013508F0003608F10022237008BF0060
:1002D0007108C0004508F0004608F1000A30F4003B
:1002E000F5017C2370083F02C3007108031C013F25
:1002F0004002C4004308B9004408BA000A30F400C0
:10030000F5013508F0003608F10022237008BF001F
:100310007108C0004308F0004408F1000A30F400FE
:10032000F5017C237008BF02031CC0037108C002E2
:100330004508F0004608F1006430F400F5017C2324
:1003400070083F02C1007108031C013F4002C20057
:100350004108BB004208BC004108F0004208F1001F
:100360000A30F400F5017C2370083502BF007108E3
:10037000031C013F3602C0004308F0004408F100AE
:100380006430F400F5017C237008BF02031CC00335
:100390007108C0024508F0004608F100E830F4009A
:1003A0000330F5007C2370083F02F0007108031C45
:1003B000013F4002F1007008BD007108BE0010301E
:1003C000F0070318F10A700887000430FB00FF30C3
:1003D000FA00FB0BEC29EF29FA0BEC29E929E230B2
:1003E000FA00FA0BF12920304107F0004208031807
:1003F000013FF1000030F107700887000430FB0076
:10040000FF30FA00FB0B052A082AFA0B052A022AFC
:10041000E230FA00FA0B0A2A40304307F0004408A1
:100420000318013FF1000030F10770088700043025
:10043000FB00FF30FA00FB0B1E2A212AFA0B1E2AB2
:100440001B2AE230FA00FA0B232A80304507F0001D
:1004500046080318013FF1000030F10770088700DB
:100460000430FB00FF30FA00FB0B372A3A2AFA0B64
:10047000372A342AE230FA00FA0B3C2A24283F2A91
:10048000031383124C08803A031D482A00304B06A0
:10049000031D602A4D0884002D308000840A33300B
:1004A0008000840A32308000840A37308000840A59
:1004B00036308000840A38308000840A8001E22AC5
:1004C000CF0180304C06F00080307002031D6A2A94
:1004D00000304B020318762AFF30CF004B08003C57
:1004E000CB004C08031C013FCC01CC020130CE00F4
:1004F0008030F00080304C067002031D812A4B08CA
:10050000093C0318842ACE0A8030F00080304C0663
:100510007002031D8D2A4B08633C0318902ACE0AF3
:100520008030033AF00080304C067002031D9A2A96
:100530004B08E73C03189D2ACE0A8030273AF0008A
:1005400080304C067002031DA72A4B080F3C03188D
:10055000AA2ACE0A4D08840020308000840A800038
:10056000840A8000840A8000840A8000840A800053
:10057000840A800184034E08003C0318DD2A0A30F7
:10058000F400F5014B08F0004C08F1002223780834
:10059000F0007908F10030307007800084030A30E1
:1005A000F400F5014B08F0004C08F100222370081C
:1005B000CB007108CC00CE03BB2A4F080319E22AF6
:1005C0002D30800008000030031383122106031D24
:1005D000EB2A01302006031D032B2208CB00230841
:1005E000CC002430CD0040223130C700C801473054
:1005F000CB00F2232430CB00F2232F30C700C801F8
:100600004730CB00F22300302106031D092B0230B6
:100610002006031D212B2B08CB002C08CC002430F6
:10062000CD0040223230C700C8014730CB00F22352
:100630002430CB00F2232F30C700C8014730CB0055
:10064000F223080003138312FD01F901F801710878
:1006500070040319003471087506FA00FA1BFD09CD
:10066000FB01F51F382BF409F509F40A0319F50A03
:10067000F11F3F2BF009F109F00A0319F10A710883
:100680007504FA00FA1B542BC5237B18672BFD1F3A
:100690000034F009F109F00A0319F10AF809F9091F
:1006A000F80A0319F90A0034F51F632BF11B5F2BBD
:1006B0007108F9007008F800F101F001472BF10111
:1006C000F001F00A0034F109F009FB0A442BF80AA2
:1006D0000319F90A74087802031D472B750879027B
:1006E000031D472BF901F801F00A0319F10AF11F64
:1006F000472B0000FF34080003138312FB01FA01AB
:10070000F9018030F800FD01F11F8C2BF109F0098F
:10071000F00A0319F10AFD0AF51F942BF509F409F3
:10072000F40A0319F50AFD0AF10CF00C031CA12BC5
:100730007408F90775080318750FFA070318FB0A00
:100740000310F01FA92B7408FA070318FB0A750899
:10075000FB07FB0CFA0CF90CF80C031C942B7D1C0A
:10076000BC2BFB09FA09F909F809F80A0319F90A77
:100770000319FA0A0319FB0A7B08F3007A08F2004E
:100780007908F1007808F000080003138312710D56
:10079000F80DF90D7408F8027508031C750FF902BD
:1007A000F00DF10D0F30FC00710DF80DF90D74080E
:1007B000701CE02BF8027508031C750FF902E52B7D
:1007C000F80775080318750FF907F00DF10DFC0B0C
:1007D000D42B7018F12B7408F80775080318750FDF
:1007E000F907080003138312CC014B0884000008AA
:1007F000CD004D08003A0319072C4D08D0001D24E8
:10080000CC0A4C084B0784000008CD00F92B0800E7
:100810000313831698169030831298008316861659
:10082000861783120C08F1000030F11A0130F10034
:100830007108013A0319112C0800031383161808D4
:10084000F1000030F1180130F1007108003A031D89
:100850002B2C00001D2C8312500899000800FF3F2C
:02400E00C430BC
:00000001FF
