:100000000428FF3FFF3FFF3FFF30031383168500A7
:100010006F30860087018B01031783129E019F01B9
:100020000313870119308316990018158A15332098
:100030008A11B201B301B401B501B601B7010130B3
:10004000A100A201B001B101A501A6018627700897
:10005000003C03188D283830D3002F30C900CA0166
:100060004930D40059263830D300A9237008BF0086
:100070007108C00080307106F4008030073A7402C5
:10008000031D4428D0307002FF3003180030F40004
:1000900080307106F2008030033A7202031D52284C
:1000A000E8307002FF30031C0030F2007208740563
:1000B000F000031964280130A100A201D030BF0272
:1000C000031CC0030730C00280304006F2008030BD
:1000D0000B3A7202031D6E28B8303F02FF3003183E
:1000E0000030F20080304006F0008030073A7002A5
:1000F000031D7C28D0303F02FF30031C0030F0008D
:100100007208F00503198D280230A100A201E83021
:10011000BF02031CC0030330C00201300505F2001A
:100120007208013A031DF5283208003A031DF5282C
:10013000FF30B20000302206031DA0280130210646
:10014000031DCC282508013FF20000300318013FB1
:100150002607F3007208A5007308A6008030033A52
:10016000F000803073067002031DB8287208E73C67
:100170000318BE28E730A5000330A600803026060D
:10018000F00080307002031DC728003025020318DC
:10019000CB28A501A601F5283008013FF200003068
:1001A0000318013F3107F3007208B0007308B10073
:1001B0008030033AF000803073067002031DE2289D
:1001C0007208E73C0318E828E730B0000330B100BC
:1001D00080303106F00080307002031DF1280030BD
:1001E00030020318F528B001B10101300505F20015
:1001F0007208003A031D01293208FF3A031D012944
:10020000B201003085180130F2007208013A031D76
:1002100020293308003A031D2029FF30B3000030A5
:100220002206031D152901302106031D1C2901305A
:10023000A502031CA60320290130B002031CB10350
:10024000003085180130F2007208003A031D2D2994
:100250003308FF3A031D2D29B30100308519013001
:10026000F2007208013A031D4A293508003A031DBD
:100270004A29FF30B50000302206031D4129013014
:100280002106031D47290230A100A2014A2901309D
:10029000A100A201003085190130F2007208003A75
:1002A000031D57293508FF3A031D5729B5010030B2
:1002B000851A0130F2007208013A031D66293708D9
:1002C000003A031D6629FF30B700AC250030851ABF
:1002D0000130F2007208003A031D6F29B7010030A7
:1002E0002206031D752901302106031D8029E830EF
:1002F0002507BF0026080318013F033FC0008829D7
:10030000D0303007BF0031080318013F073FC0005D
:10031000E830F4000330F5003F08F0004008F10039
:10032000FF257008D1007108D2005108C1005208A1
:10033000C2006430F400F5013F08F0004008F1000D
:10034000FF257008CB007108CC005108F00052085E
:10035000F1000A30F400F5019E2670084B02CF0030
:100360007108031C013F4C02D0004F08C300500825
:10037000C4000A30F400F5013F08F0004008F10025
:10038000FF257008CB007108CC004F08F000500822
:10039000F1000A30F400F5019E267008CB02031C20
:1003A000CC037108CC025108F0005208F10064300F
:1003B000F400F5019E2670084B02CD007108031C65
:1003C000013F4C02CE004D08C5004E08C6004D0846
:1003D000F0004E08F1000A30F400F5019E26700886
:1003E0003F02CB007108031C013F4002CC004F08C4
:1003F000F0005008F1006430F400F5019E2670080A
:10040000CB02031CCC037108CC025108F000520847
:10041000F100E830F4000330F5009E2670084B022E
:10042000F0007108031C013F4C02F1007008C70086
:100430007108C8001030F0070318F10A700887002F
:100440000430FB00FF30FA00FB0B272A2A2AFA0BA4
:10045000272A242AE230FA00FA0B2C2A20304D07F2
:10046000F0004E080318013FF1000030F10770085A
:1004700087000430FB00FF30FA00FB0B402A432AC0
:10048000FA0B402A3D2AE230FA00FA0B452A4030A6
:100490004F07F00050080318013FF1000030F1074A
:1004A000700887000430FB00FF30FA00FB0B592A6C
:1004B0005C2AFA0B592A562AE230FA00FA0B5E2A15
:1004C00080305107F00052080318013FF10000305E
:1004D000F107700887000430FB00FF30FA00FB0BC7
:1004E000722A752AFA0B722A6F2AE230FA00FA0B86
:1004F000772A26287A2A031383127408F8027508CB
:10050000031C750FF9027608031C760FFA027708B0
:10051000031C770FFB02F30D0730FC00730DF80D81
:10052000F90DFA0DFB0D7408731CA42AF802750866
:10053000031C750FF9027608031C760FFA02770880
:10054000031C770FFB02B12AF80775080318750F13
:10055000F90776080318760FFA0777080318770F5C
:10056000FB07F30DFC0B8E2A720DF80DF90DFA0D39
:10057000FB0D7408731CCA2AF8027508031C750F5A
:10058000F9027608031C760FFA027708031C770F2E
:10059000FB02D72AF80775080318750FF9077608C4
:1005A0000318760FFA0777080318770FFB07F20D89
:1005B0000730FC00720DF80DF90DFA0DFB0D7408F3
:1005C000721CF02AF8027508031C750FF9027608F0
:1005D000031C760FFA027708031C770FFB02FD2A33
:1005E000F80775080318750FF90776080318760FD2
:1005F000FA0777080318770FFB07F20DFC0BDA2ACE
:10060000710DF80DF90DFA0DFB0D7408721C162B07
:10061000F8027508031C750FF9027608031C760FA3
:10062000FA027708031C770FFB02232BF8077508E3
:100630000318750FF90776080318760FFA0777087D
:100640000318770FFB07F10D0730FC00710DF80D53
:10065000F90DFA0DFB0D7408711C3C2BF80275089E
:10066000031C750FF9027608031C760FFA0277084F
:10067000031C770FFB02492BF80775080318750F49
:10068000F90776080318760FFA0777080318770F2B
:10069000FB07F10DFC0B262B700DF80DF90DFA0D73
:1006A000FB0D7408711C622BF8027508031C750F92
:1006B000F9027608031C760FFA027708031C770FFD
:1006C000FB026F2BF80775080318750FF9077608FA
:1006D0000318760FFA0777080318770FFB07F00D5A
:1006E0000730FC00700DF80DF90DFA0DFB0D7408C4
:1006F000701C882BF8027508031C750FF902760828
:10070000031C760FFA027708031C770FFB02952B68
:10071000F80775080318750FF90776080318760FA0
:10072000FA0777080318770FFB07F00DFC0B722B05
:100730007018A82B7408F80775080318750FF907C7
:1007400076080318760FFA0777080318770FFB0768
:10075000080003138312D401D5011030D8002730CC
:10076000D900D601D701DC01DD01DE01DF01DA01AC
:10077000DB015608530784000008F4007408003AAF
:100780000319272C5608530784000008F400740846
:100790002D3A031DD22BFF30DA00DB01D60A0319F4
:1007A000D70AB92B5608530784000008F4007408D0
:1007B000203A0319152C5608530784000008F0004E
:1007C0003030F800F901FA01FB017008F400F5017E
:1007D000F601F7017408F0007508F1007608F200E0
:1007E0007708F3007808F0027908031C790FF1020A
:1007F0007A08031C7A0FF2027B08031C7B0FF302BA
:100800005808F4005908F500F601F701E7267008CA
:10081000DC0771080318710FDD0772080318720FE7
:10082000DE0773080318730FDF070A30F400F501C1
:100830005808F0005908F1008A1500208A11700844
:10084000D8007108D900D60A0319D70AB92B5A085B
:100850005B0403192F2C0630D800D901322C053047
:10086000D800D90157085906031D382C58085606D8
:100870000319542C0A30F400F501F601F7015C0865
:10088000F0005D08F1005E08F2005F08F30010253B
:100890007008DC007108DD007208DE007308DF00FC
:1008A000D60A0319D70A322C5C08D4005D08D5009B
:1008B00000305B06031D5E2CFF305A06031D682CBA
:1008C0005408003CD4005508031C013FD501D50253
:1008D0005408F0005508F100080003138312610862
:1008E000803A031D752C00306006031D8D2C6208B4
:1008F00084002D308000840A33308000840A323036
:100900008000840A37308000840A36308000840AF0
:1009100038308000840A80010F2DE40180306106A8
:10092000F00080307002031D972C00306002031825
:10093000A32CFF30E4006008003CE0006108031CC9
:10094000013FE101E1020130E3008030F00080303E
:1009500061067002031DAE2C6008093C0318B12C1F
:10096000E30A8030F000803061067002031DBA2C6B
:100970006008633C0318BD2CE30A8030033AF000A2
:10098000803061067002031DC72C6008E73C031825
:10099000CA2CE30A8030273AF000803061067002EA
:1009A000031DD42C60080F3C0318D72CE30A6208FF
:1009B000840020308000840A8000840A8000840A39
:1009C0008000840A8000840A8000840A80018403F5
:1009D0006308003C03180A2D0A30F400F501600892
:1009E000F0006108F100FF257808F0007908F100B7
:1009F00030307007800084030A30F400F50160088D
:100A0000F0006108F100FF257008E0007108E100C6
:100A1000E303E82C640803190F2D2D308000080033
:100A200003138312FC01F71BFC0AFD01FB01FA0111
:100A3000F901F80173087204710470040319A42DFC
:100A400073087706A000A01BFD09F71F322DF409DB
:100A5000F509F609F709F40A0319F50A0319F60A64
:100A60000319F70AF31F3F2DF009F109F209F30901
:100A7000F00A0319F10A0319F20A0319F30A7308B9
:100A80007704A000A01B602D7B22FC1B7D2DFD1F89
:100A9000A42DF009F109F209F309F00A0319F10A8A
:100AA0000319F20A0319F30AF809F909FA09FB090B
:100AB000F80A0319F90A0319FA0A0319FB0AA42D03
:100AC000F71F772DF31B712D7308FB007208FA00D6
:100AD0007108F9007008F800F301F201F101F0016A
:100AE000472DF301F201F101F001F00A0034F3099E
:100AF000F209F109F009FC17442DF80A0319F90A63
:100B00000319FA0A0319FB0A74087802031D472D1A
:100B100075087902031D472D76087A02031D472DBB
:100B200077087B02031D472DFB01FA01F901F8014B
:100B3000F00A0319F10A0319F20A0319F30AF31F61
:100B4000472DA0012016FF34A0017C1CAA2D8A1578
:100B50006D208A11003F0800003003138312220623
:100B6000031DB42D01302106031DD62D2508E83FB5
:100B7000F00003300318013F2607F1007008A300BE
:100B80007108A4007008E0007108E1002730E2005D
:100B90006D242730E0008A151D208A112F30D300E4
:100BA000D4015330E0008A151D208A11003022063E
:100BB000031DDC2D02302106031DFE2D3008D03F21
:100BC000F00007300318013F3107F1007008AE0054
:100BD0007108AF007008E0007108E1002730E20002
:100BE0006D242730E0008A151D208A112F30D30094
:100BF000D4015330E0008A151D208A110800031328
:100C00008312FD01F901F801710870040319003421
:100C100071087506FA00FA1BFD09FB01F51F152E78
:100C2000F409F509F40A0319F50AF11F1C2EF0095D
:100C3000F109F00A0319F10A71087504FA00FA1BA8
:100C4000312E59277B18442EFD1F0034F009F1097D
:100C5000F00A0319F10AF809F909F80A0319F90A5F
:100C60000034F51F402EF11B3C2E7108F90070086E
:100C7000F800F101F001242EF101F001F00A003436
:100C8000F109F009FB0A212EF80A0319F90A740880
:100C90007802031D242E75087902031D242EF90104
:100CA000F801F00A0319F10AF11F242E0000FF34A5
:100CB000080003138312D501D601D901540884001A
:100CC0000008D80086277008003A0319942E8A1568
:100CD00048208A117008D70055085307F1007108A1
:100CE0008400710884007008800057085806031DAE
:100CF0007E2E56085502D900D60A802ED601D9017B
:100D00005608540784000008F1007108D8007108E3
:100D1000003A031D8C2E952ED50A5508143C031855
:100D2000942E1330D900952E622E59085307F000E7
:100D30007008840070088400800108000313831287
:100D4000FB01FA01F9018030F800FD01F11FAE2E20
:100D5000F109F009F00A0319F10AFD0AF51FB62E90
:100D6000F509F409F40A0319F50AFD0AF10CF00C6F
:100D7000031CC32E7408F90775080318750FFA07CA
:100D80000318FB0A0310F01FCB2E7408FA07031890
:100D9000FB0A7508FB07FB0CFA0CF90CF80C031C9A
:100DA000B62E7D1CDE2EFB09FA09F909F809F80AAE
:100DB0000319F90A0319FA0A0319FB0A7B08F3005D
:100DC0007A08F2007908F1007808F00008000313AF
:100DD0008312FD01F31FF92EF009F109F209F3095D
:100DE000F00A0319F10A0319F20A0319F30A813010
:100DF000FD07F71F072FF409F509F609F709F40AAB
:100E00000319F50A0319F60A0319F70AFD0A22273E
:100E10007D1C212FF009F109F209F309F809F909FC
:100E2000FA09FB09F00A0319F10A0319F20A031976
:100E3000F30A0319F80A0319F90A0319FA0A03193C
:100E4000FB0A0800031383122230FC00F801F901A9
:100E5000FA01FB01FC030319582F0310FB0CFA0CD9
:100E6000F90CF80CF30CF20CF10CF00C031C2A2F0B
:100E7000FC0303194A2F7408F80775080318750F47
:100E8000F90776080318760FFA0777080318770F23
:100E9000FB072E2F7408F80775080318750FF9075C
:100EA00076080318760FFA0777080318770FFB0701
:100EB000080003138312710DF80DF90D7408F80280
:100EC0007508031C750FF902F00DF10D0F30FC00D1
:100ED000710DF80DF90D7408701C742FF802750867
:100EE000031C750FF902792FF80775080318750FA1
:100EF000F907F00DF10DFC0B682F7018852F7408A1
:100F0000F80775080318750FF90708000313831213
:100F10000C08F1000030F11A0130F1007108E00016
:100F20006008F0000800FF3FFF3FFF3FFF3FFF3F2B
:100F3000FF3FFF3FFF3FFF3FFF3FFF3FFF3FFF3FC1
:100F4000FF3FFF3FFF3FFF3FFF3FFF3FFF3FFF3FB1
:100F5000FF3FFF3FFF3FFF3FFF3FFF3FFF3FFF3FA1
:100F6000FF3FFF3FFF3FFF3FFF3FFF3FFF3FFF3F91
:100F7000FF3FFF3FFF3FFF3FFF3FFF3FFF3FFF3F81
:100F8000FF3FFF3FFF3FFF3FFF3FFF3FFF3FFF3F71
:100F9000FF3FFF3FFF3FFF3FFF3FFF3FFF3FFF3F61
:100FA000FF3FFF3FFF3FFF3FFF3FFF3FFF3FFF3F51
:100FB000FF3FFF3FFF3FFF3FFF3FFF3FFF3FFF3F41
:100FC000FF3FFF3FFF3FFF3FFF3FFF3FFF3FFF3F31
:100FD000FF3FFF3FFF3FFF3FFF3FFF3FFF3FFF3F21
:100FE000FF3FFF3FFF3FFF3FFF3FFF3FFF3FFF3F11
:100FF000FF3FFF3FFF3FFF3FFF3FFF3FFF3FFF3F01
:1010000003138312F801F9011030FC00710DF80D83
:10101000F90D7408F8027508031C750FF90203181E
:1010200018287408F80775080318750FF9070310D6
:10103000F00DF10DFC0B0628080003138312E101EB
:10104000600884000008E2006208003A03193228B0
:101050006208E5005B20E10A61086007840000087F
:10106000E200242808000313831698169030831298
:10107000980083168616861783120C08F10000303C
:10108000F11A0130F1007108013A03193C280800F7
:10109000031383121A08E0001808F1000030F11859
:1010A0000130F1007108013A031D58281812181672
:1010B0006008F0000800031383161808F1000030E0
:1010C000F1180130F1007108003A031D6928000091
:1010D0005B28831265089900080003138312FB093B
:1010E000FA09F909F809F80A0319F90A0319FA0AB9
:1010F0000319FB0A0800FF3FFF3FFF3FFF3FFF3F91
:02400E00C430BC
:00000001FF
