:100000000428FF3FFF3FFF3FFF30031383168500A7
:100010006F30860087018B01031783129E019F01B9
:100020001930031383169900181519228701A001AE
:10003000A101A201A301A401A501A601A701A80194
:10004000A901AA01AB01AC01AD01AE01AF01532280
:100050007008003C031835282E227008B000700884
:10006000413A031D3528FF30AF0001300505F1008E
:100070007108013A031D45282208003A031D45284E
:10008000FF30A200A00A0319A10A01300505F10002
:100090007108003A031D51282208FF3A031D512818
:1000A000A201003085180130F1007108013A031DEA
:1000B00063282308003A031D6328FF30A3000130A2
:1000C000A002031CA103003085180130F100710863
:1000D000003A031D70282308FF3A031D7028A3016E
:1000E000003005190130F1007108013A031D822822
:1000F0002408003A031D8228FF30A4000130A0022A
:10010000031CA103003005190130F1007108003A09
:10011000031D8F282408FF3A031D8F28A4010030F7
:10012000851A0130F1007108013A031DA528250840
:10013000003A031DA528FF30A5002C08FF3A031D37
:10014000A328AC01A528FF30AC000030851A01308F
:10015000F1007108003A031DAE28A5012C08FF3AF2
:10016000FF30031D0030F1002F08FF3AFF30031D60
:100170000030F0007108F0040319C8282008C600F8
:100180002108C7003130C800D9203130C600032211
:100190008030033AF000803021067002031DD2281F
:1001A0002008E73C0318D628A001A101B0012728A8
:1001B000D828031383124708803A031DE128003032
:1001C0004606031DF928480884002D308000840A63
:1001D00033308000840A32308000840A3730800057
:1001E000840A36308000840A38308000840A800116
:1001F0007B29CA0180304706F00080307002031D61
:1002000003290030460203180F29FF30CA004608B0
:10021000003CC6004708031C013FC701C70201306C
:10022000C9008030F000803047067002031D1A2993
:100230004608093C03181D29C90A8030F0008030A7
:1002400047067002031D26294608633C0318292926
:10025000C90A8030033AF000803047067002031D5F
:1002600033294608E73C03183629C90A8030273A63
:10027000F000803047067002031D402946080F3CFD
:1002800003184329C90A4808840020308000840AE2
:100290008000840A8000840A8000840A8000840A26
:1002A0008000840A800184034908003C03187629F1
:1002B0000A30F400F5014608F0004708F1007C21FF
:1002C0007808F0007908F10030307007800084036E
:1002D0000A30F400F5014608F0004708F1007C21DF
:1002E0007008C6007108C700C90354294A080319D9
:1002F0007B292D308000080003138312FD01F901D2
:10030000F801710870040319003471087506FA00C9
:10031000FA1BFD09FB01F51F9229F409F509F40AFE
:100320000319F50AF11F9929F009F109F00A0319D7
:10033000F10A71087504FA00FA1BAE29D6217B1860
:10034000C129FD1F0034F009F109F00A0319F10A6F
:10035000F809F909F80A0319F90A0034F51FBD294B
:10036000F11BB9297108F9007008F800F101F001DA
:10037000A129F101F001F00A0034F109F009FB0AAA
:100380009E29F80A0319F90A74087802031DA129A5
:1003900075087902031DA129F901F801F00A031972
:1003A000F10AF11FA1290000FF3408000313831292
:1003B000710DF80DF90D7408F8027508031C750F1E
:1003C000F902F00DF10D0F30FC00710DF80DF90D73
:1003D0007408701CF129F8027508031C750FF902E6
:1003E000F629F80775080318750FF907F00DF10DD8
:1003F000FC0BE5297018022A7408F8077508031821
:10040000750FF907080003138312C701460884001B
:100410000008C8004808003A0319182A4808CB0009
:100420004122C70A4708460784000008C8000A2A74
:1004300008000313831698169030831298008316D1
:100440008616861783120C08F1000030F11A01306D
:10045000F1007108013A0319222A080003138312DC
:100460001A08C6001808F1000030F1180130F10038
:100470007108013A031D3E2A181218164608F000AA
:100480000800031383161808F1000030F11801303A
:10049000F1007108003A031D4F2A0000412A83121F
:1004A0004B0899000800031383120C08F100003078
:1004B000F11A0130F1007108C6004608F00008008A
:02400E00C430BC
:00000001FF
