:100000000428FF3FFF3FFF3FFF30031383168500A7
:100010006F30860087018B01031783129E019F01B9
:10002000031387011930831699001815C424AC01F5
:10003000AD01A301A401AE01AF01B001B101B20154
:10004000B3010130A100A2010130B400B5010130BB
:100050000505F4007408013A031D43282E08003AF0
:10006000031D4328FF30AE0000302206031D3A284E
:1000700001302106031D4028A30A0319A40A4328BE
:10008000AC0A0319AD0A01300505F4007408003A02
:10009000031D4F282E08FF3A031D4F28AE010030E4
:1000A00085180130F4007408013A031D6E282F08EA
:1000B000003A031D6E28FF30AF0000302206031DFA
:1000C000632801302106031D6A280130A302031CA6
:1000D000A4036E280130AC02031CAD030030851868
:1000E0000130F4007408003A031D7B282F08FF3A02
:1000F000031D7B28AF01003005190130F40074089E
:10010000013A031D8D283008003A031D8D28FF3069
:10011000B000A301A401AC01AD010030051901300C
:10012000F4007408003A031D9A283008FF3A031DB2
:100130009A28B001003085190130F4007408013AA2
:10014000031DB7283108003A031DB728FF30B1005E
:1001500000302206031DAE2801302106031DB428FD
:100160000230A100A201B7280130A100A201003095
:1001700085190130F4007408003A031DC4283108C1
:10018000FF3A031DC428B1010030851A0130F40084
:100190007408013A031DD6283308003A031DD628F7
:1001A000FF30B3005023B40A0319B50A0030851A92
:1001B0000130F4007408003A031DDF28B3018030D9
:1001C000033AF000803024067002031DE92823085A
:1001D000E73C0318EF28E730A3000330A400803089
:1001E0002406F00080307002031DF828003023023E
:1001F0000318FC28A301A4018030033AF0008030EA
:100200002D067002031D06292C08E73C03180C2953
:10021000E730AC000330AD0080302D06F0008030B8
:100220007002031D152900302C0203181929AC0196
:10023000AD013408F0003508F10090247008B600D4
:100240007108B7007208B8007308B900F32270088B
:10025000CA007108CB00E830F4000330F5004A080A
:10026000F0004B08F1008F237008C8007108C90026
:100270004808BA004908BB006430F400F5014A0898
:10028000F0004B08F1008F237008C2007108C30012
:100290004808F0004908F1000A30F400F501E923AC
:1002A00070084202C6007108031C013F4302C700E8
:1002B0004608BC004708BD000A30F400F5014A08B2
:1002C000F0004B08F1008F237008C2007108C300D2
:1002D0004608F0004708F1000A30F400F501E92370
:1002E0007008C202031CC3037108C3024808F0006F
:1002F0004908F1006430F400F501E9237008420276
:10030000C4007108031C013F4302C5004408BE003D
:100310004508BF004408F0004508F1000A30F40029
:10032000F501E92370084A02C2007108031C013F6D
:100330004B02C3004608F0004708F1006430F400A7
:10034000F501E9237008C202031CC3037108C3024C
:100350004808F0004908F100E830F4000330F500E7
:10036000E92370084202F0007108031C013F4302B8
:10037000F1007008C0007108C1001030F0070318C8
:10038000F10A700887000830FB00FF30FA00FB0B11
:10039000CA29CD29FA0BCA29C729C430FA00FA0B99
:1003A000CF290000000020304407F0004508031862
:1003B000013FF1000030F107700887000830FB00B2
:1003C000FF30FA00FB0BE529E829FA0BE529E229C1
:1003D000C430FA00FA0BEA2900000000403046075A
:1003E000F00047080318013FF1000030F1077008E2
:1003F00087000830FB00FF30FA00FB0B002A032ABD
:10040000FA0B002AFD29C430FA00FA0B052A000075
:10041000000080304807F00049080318013FF10050
:100420000030F107700887000830FB00FF30FA0049
:10043000FB0B1B2A1E2AFA0B1B2A182AC430FA00AF
:10044000FA0B202A000000003408013FF4000030BD
:100450000318013F3507F5007408B4007508B500AE
:100460008030F000803075067002031D392A740850
:10047000143C03183D2A06163E2A06128030033A21
:10048000F000803035067002031D482A3408E73C2E
:1004900003184E2AE730B4000330B50027284F2A4E
:1004A000031383125108803A031D582A0030500666
:1004B000031D702A520884002D308000840A3330D6
:1004C0008000840A32308000840A37308000840A39
:1004D00036308000840A38308000840A8001F22A95
:1004E000D40180305106F00080307002031D7A2A5A
:1004F000003050020318862AFF30D4005008003C18
:10050000D0005108031C013FD101D1020130D300BA
:100510008030F000803051067002031D912A50088F
:10052000093C0318942AD30A8030F0008030510629
:100530007002031D9D2A5008633C0318A02AD30AA9
:100540008030033AF000803051067002031DAA2A61
:100550005008E73C0318AD2AD30A8030273AF00050
:10056000803051067002031DB72A50080F3C031853
:10057000BA2AD30A5208840020308000840A8000FE
:10058000840A8000840A8000840A8000840A800033
:10059000840A800184035308003C0318ED2A0A30C2
:1005A000F400F5015008F0005108F1008F2378089D
:1005B000F0007908F10030307007800084030A30C1
:1005C000F400F5015008F0005108F1008F23700885
:1005D000D0007108D100D303CB2A54080319F22AA2
:1005E0002D308000080003138312FB0173080319E8
:1005F000302B7208FA00F2178E30F302F31F332B00
:10060000F309F30A08307302031C162BF300F10DF3
:100610007208F100F20108307302031C162BF3007C
:10062000F10DF1017308031D03101E2B730803194C
:100630001E2B0310F20CF10CF30B192B7B1B711CFE
:10064000282B031C282BF10A0319F20AF21B3F2B5B
:10065000FA1F422BF209F109F10A0319F20A422B9F
:10066000F201F101422B7B14FB1F452BF201FA1F13
:10067000452BFF30F200F100FA0DF20C452B013052
:10068000FC00472B0030FC00472BFF30FC00FC082F
:1006900003194B2BEB247108F0007208F1000800DD
:1006A0000030031383122206031D582B013021064C
:1006B000031D702B2308D0002408D1002530D20060
:1006C00050223130CC00CD014C30D000AE2425304A
:1006D000D000AE242F30CC00CD014C30D000AE2461
:1006E00000302206031D762B02302106031D8E2BBF
:1006F0002C08D0002D08D1002530D20050223230F5
:10070000CC00CD014C30D000AE242530D000AE243A
:100710002F30CC00CD014C30D000AE2408000313A4
:100720008312FD01F901F801710870040319003406
:1007300071087506FA00FA1BFD09FB01F51FA52BD0
:10074000F409F509F40A0319F50AF11FAC2BF009B5
:10075000F109F00A0319F10A71087504FA00FA1B8D
:10076000C12B63247B18D42BFD1F0034F009F10941
:10077000F00A0319F10AF809F909F80A0319F90A44
:100780000034F51FD02BF11BCC2B7108F900700839
:10079000F800F101F001B42BF101F001F00A00348E
:1007A000F109F009FB0AB12BF80A0319F90A7408D8
:1007B0007802031DB42B75087902031DB42BF901CF
:1007C000F801F00A0319F10AF11FB42B0000FF34FD
:1007D000080003138312FB01FA01F9018030F800CD
:1007E000FD01F11FF92BF109F009F00A0319F10AD3
:1007F000FD0AF51F012CF509F409F40A0319F50A9D
:10080000FD0AF10CF00C031C0E2C7408F907750896
:100810000318750FFA070318FB0A0310F01F162CB4
:100820007408FA070318FB0A7508FB07FB0CFA0C9F
:10083000F90CF80C031C012C7D1C292CFB09FA096E
:10084000F909F809F80A0319F90A0319FA0A031948
:10085000FB0A7B08F3007A08F2007908F1007808B7
:10086000F000080003138312A0017208031D492C35
:100870007108F2007008F100F001A0157208031D64
:10088000492C7108F200F101A01120167208031919
:10089000572C2008F302031D031C5B2C0310F21BD2
:1008A0005F2CF00DF10DF20DF30B4F2C5B2C013092
:1008B000FC000825622C0230FC00FA24622C043073
:1008C000FC001125080003138312710DF80DF90DBA
:1008D0007408F8027508031C750FF902F00DF10D8C
:1008E0000F30FC00710DF80DF90D7408701C7E2C92
:1008F000F8027508031C750FF902832CF8077508B8
:100900000318750FF907F00DF10DFC0B722C701820
:100910008F2C7408F80775080318750FF90708007D
:10092000031383127008F8007108F000F101F2015E
:10093000F301FB01FC019630F300FA01F01FA62C35
:10094000F809F009F80A0319F00AFA177008F1001B
:100950007808F000F801F201322408000313831232
:10096000D101500884000008D2005208003A03194F
:10097000C32C5208D500D924D10A5108500784004D
:100980000008D200B52C0800031383169816903087
:100990008312980083168616861783120C08F100BE
:1009A0000030F11A0130F1007108013A0319CD2C21
:1009B0000800031383161808F1000030F118013005
:1009C000F1007108003A031DE72C0000D92C8312B6
:1009D000550899000800031383127B14FB1FF82CA1
:1009E000F201FA1FFF30F200F100F000FA0DF20CF4
:1009F000FF300800031383127B15FB1F062D013007
:100A0000F300F201F101F001FA0DF20CFF300800E1
:100A100003138312F201F101F001F801F301003038
:100A2000080003138312FA1FF21300300800FF3F7F
:02400E00C430BC
:00000001FF
