:100000000428FF3FFF3FFF3FFF30031383168500A7
:100010006F30860087018B01031783129E019F01B9
:100020000313870119308316990018158A151D20AE
:100030008A11B201B301B401B501B601B7010130B3
:10004000A800A901B001B101AC01AD018A1565207C
:100050008A117008003C03183C283830D3002F3038
:10006000C900CA014930D40024263830D3007C238B
:100070007008BF007108C00001300505F200720869
:10008000013A031DA4283208003A031DA428FF30BA
:10009000B20000302906031D4F2801302806031D39
:1000A0007B282C08013FF20000300318013F2D0788
:1000B000F3007208AC007308AD008030033AF00022
:1000C000803073067002031D67287208E73C03182E
:1000D0006D28E730AC000330AD0080302D06F00015
:1000E00080307002031D762800302C0203187A2815
:1000F000AC01AD01A4283008013FF2000030031824
:10010000013F3107F3007208B0007308B10080307E
:10011000033AF000803073067002031D91287208C4
:10012000E73C03189728E730B0000330B100803077
:100130003106F00080307002031DA028003030022C
:100140000318A428B001B10101300505F2007208BE
:10015000003A031DB0283208FF3A031DB028B2014F
:10016000003085180130F2007208013A031DCF28D3
:100170003308003A031DCF28FF30B30000302906B2
:10018000031DC42801302806031DCB280130AC0212
:10019000031CAD03CF280130B002031CB1030030B3
:1001A00085180130F2007208003A031DDC2833087C
:1001B000FF3A031DDC28B301003085190130F2003D
:1001C0007208013A031DF9283508003A031DF92881
:1001D000FF30B50000302906031DF0280130280645
:1001E000031DF6280230A800A901F9280130A80053
:1001F000A901003085190130F2007208003A031D90
:1002000006293508FF3A031D0629B5010030051AF5
:100210000130F2007208013A031D15293608003A30
:10022000031D1529FF30B60053270030051A013091
:10023000F2007208003A031D22293608FF3A031D16
:100240002229B6010030851A0130F2007208013A05
:10025000031D31293708003A031D3129FF30B7004B
:100260007F250030851A0130F2007208003A031D24
:100270003A29B70100302906031D4029013028061C
:10028000031D4B29E8302C07BF002D080318013F40
:10029000033FC0005329D0303007BF003108031896
:1002A000013F073FC000E830F4000330F5003F088D
:1002B000F0004008F100CA257008D1007108D20092
:1002C0005108C1005208C2006430F400F5013F0833
:1002D000F0004008F100CA257008CB007108CC007E
:1002E0005108F0005208F1000A30F400F5016B26C5
:1002F00070084B02CF007108031C013F4C02D00074
:100300004F08C3005008C4000A30F400F5013F084C
:10031000F0004008F100CA257008CB007108CC003D
:100320004F08F0005008F1000A30F400F5016B2688
:100330007008CB02031CCC037108CC025108F000FA
:100340005208F1006430F400F5016B2670084B028E
:10035000CD007108031C013F4C02CE004D08C500C2
:100360004E08C6004D08F0004E08F1000A30F400B7
:10037000F5016B2670083F02CB007108031C013F9A
:100380004002CC004F08F0005008F1006430F40047
:10039000F5016B267008CB02031CCC037108CC025C
:1003A0005108F0005208F100E830F4000330F50085
:1003B0006B2670084B02F0007108031C013F4C02D1
:1003C000F1007008C7007108C8001030F00703186A
:1003D000F10A700887000730FB00FF30FA00FB0BC2
:1003E000F229F529FA0BF229EF297830FA00FA0BF5
:1003F000F7290000000020304D07F0004E080318D8
:10040000013FF1000030F107700887000730FB0062
:10041000FF30FA00FB0B0D2A102AFA0B0D2A0A2ACC
:100420007830FA00FA0B122A0000000040304F0723
:10043000F00050080318013FF1000030F107700888
:1004400087000730FB00FF30FA00FB0B282A2B2A1D
:10045000FA0B282A252A7830FA00FA0B2D2A0000F8
:10046000000080305107F00052080318013FF100EE
:100470000030F107700887000730FB00FF30FA00FA
:10048000FB0B432A462AFA0B432A402A7830FA000B
:10049000FA0B482A0000000026284D2A0313831275
:1004A0007408F8027508031C750FF9027608031C1E
:1004B000760FFA027708031C770FFB02F30D073063
:1004C000FC00730DF80DF90DFA0DFB0D7408731C8B
:1004D000772AF8027508031C750FF9027608031CC9
:1004E000760FFA027708031C770FFB02842AF807BD
:1004F00075080318750FF90776080318760FFA07C1
:1005000077080318770FFB07F30DFC0B612A720DB8
:10051000F80DF90DFA0DFB0D7408731C9D2AF802F5
:100520007508031C750FF9027608031C760FFA0292
:100530007708031C770FFB02AA2AF807750803182F
:10054000750FF90776080318760FFA07770803186E
:10055000770FFB07F20D0730FC00720DF80DF90D57
:10056000FA0DFB0D7408721CC32AF8027508031CEF
:10057000750FF9027608031C760FFA027708031C40
:10058000770FFB02D02AF80775080318750FF907D3
:1005900076080318760FFA0777080318770FFB071A
:1005A000F20DFC0BAD2A710DF80DF90DFA0DFB0DD6
:1005B0007408721CE92AF8027508031C750FF90209
:1005C0007608031C760FFA027708031C770FFB02EC
:1005D000F62AF80775080318750FF9077608031847
:1005E000760FFA0777080318770FFB07F10D07302E
:1005F000FC00710DF80DF90DFA0DFB0D7408711C5E
:100600000F2BF8027508031C750FF9027608031CFE
:10061000760FFA027708031C770FFB021C2BF807F2
:1006200075080318750FF90776080318760FFA078F
:1006300077080318770FFB07F10DFC0BF92A700DF3
:10064000F80DF90DFA0DFB0D7408711C352BF8022D
:100650007508031C750FF9027608031C760FFA0261
:100660007708031C770FFB02422BF8077508031865
:10067000750FF90776080318760FFA07770803183D
:10068000770FFB07F00D0730FC00700DF80DF90D2A
:10069000FA0DFB0D7408701C5B2BF8027508031C27
:1006A000750FF9027608031C760FFA027708031C0F
:1006B000770FFB02682BF80775080318750FF90709
:1006C00076080318760FFA0777080318770FFB07E9
:1006D000F00DFC0B452B70187B2B7408F807750880
:1006E0000318750FF90776080318760FFA077708CD
:1006F0000318770FFB07080003138312D401D501F9
:100700001030D8002730D900D601D701DC01DD0137
:10071000DE01DF01DA01DB0156085307840000081F
:10072000F4007408003A0319FA2B560853078400A2
:100730000008F40074082D3A031DA52BFF30DA00E1
:10074000DB01D60A0319D70A8C2B560853078400FD
:100750000008F4007408203A0319E82B56085307E0
:1007600084000008F0003030F800F901FA01FB01C4
:100770007008F400F501F601F7017408F00075083F
:10078000F1007608F2007708F3007808F0027908A3
:10079000031C790FF1027A08031C7A0FF2027B081E
:1007A000031C7B0FF3025808F4005908F500F6010A
:1007B000F701B4267008DC0771080318710FDD0714
:1007C00072080318720FDE0773080318730FDF0730
:1007D0000A30F400F5015808F0005908F1008A15B4
:1007E00000208A117008D8007108D900D60A0319B0
:1007F000D70A8C2B5A085B040319022C0630D80048
:10080000D901052C0530D800D90157085906031D18
:100810000B2C580856060319272C0A30F400F50152
:10082000F601F7015C08F0005D08F1005E08F200D7
:100830005F08F300E3247008DC007108DD00720833
:10084000DE007308DF00D60A0319D70A052C5C08FE
:10085000D4005D08D50000305B06031D312CFF304D
:100860005A06031D3B2C5408003CD4005508031CB9
:10087000013FD501D5025408F0005508F1000800E9
:10088000031383126108803A031D482C0030600670
:10089000031D602C620884002D308000840A3330F0
:1008A0008000840A32308000840A37308000840A55
:1008B00036308000840A38308000840A8001E22CBF
:1008C000E40180306106F00080307002031D6A2C64
:1008D000003060020318762CFF30E4006008003C12
:1008E000E0006108031C013FE101E1020130E30087
:1008F0008030F000803061067002031D812C60089A
:10090000093C0318842CE30A8030F0008030610633
:100910007002031D8D2C6008633C0318902CE30AC1
:100920008030033AF000803061067002031D9A2C7B
:100930006008E73C03189D2CE30A8030273AF0005A
:10094000803061067002031DA72C60080F3C03185D
:10095000AA2CE30A6208840020308000840A800008
:10096000840A8000840A8000840A8000840A80004F
:10097000840A800184036308003C0318DD2C0A30DC
:10098000F400F5016008F0006108F100CA2578085C
:10099000F0007908F10030307007800084030A30DD
:1009A000F400F5016008F0006108F100CA25700844
:1009B000E0007108E100E303BB2C64080319E22C9A
:1009C0002D308000080003138312FC01F71BFC0A82
:1009D000FD01FB01FA01F901F801730872047104C9
:1009E00070040319772D73087706A000A01BFD097A
:1009F000F71F052DF409F509F609F709F40A03199B
:100A0000F50A0319F60A0319F70AF31F122DF00964
:100A1000F109F209F309F00A0319F10A0319F20ABC
:100A20000319F30A73087704A000A01B332D4E228C
:100A3000FC1B502DFD1F772DF009F109F209F30978
:100A4000F00A0319F10A0319F20A0319F30AF80963
:100A5000F909FA09FB09F80A0319F90A0319FA0A4C
:100A60000319FB0A772DF71F4A2DF31B442D73083A
:100A7000FB007208FA007108F9007008F800F30131
:100A8000F201F101F0011A2DF301F201F101F0017F
:100A9000F00A0034F309F209F109F009FC17172DE7
:100AA000F80A0319F90A0319FA0A0319FB0A740868
:100AB0007802031D1A2D75087902031D1A2D760878
:100AC0007A02031D1A2D77087B02031D1A2DFB01E4
:100AD000FA01F901F801F00A0319F10A0319F20AFF
:100AE0000319F30AF31F1A2DA0012016FF34A001E9
:100AF0007C1C7D2D8A1557208A11003F080000308C
:100B0000031383122906031D872D01302806031DB8
:100B1000A52D2C08E83FF00003300318013F2D07F6
:100B2000F1007008AA007108AB007008E0007108BD
:100B3000E1002130E20040242130E00065272F3021
:100B4000D300D4015330E000652700302906031D8F
:100B5000AB2D02302806031DC92D3008D03FF00010
:100B600007300318013F3107F1007008AE0071082B
:100B7000AF007008E0007108E1002130E20040247D
:100B80002130E00065272F30D300D4015330E0003E
:100B90006527080003138312FD01F901F8017108AC
:100BA00070040319003471087506FA00FA1BFD0978
:100BB000FB01F51FE02DF409F509F40A0319F50A04
:100BC000F11FE72DF009F109F00A0319F10A710884
:100BD0007504FA00FA1BFC2D26277B180F2EFD1F2B
:100BE0000034F009F109F00A0319F10AF809F909CA
:100BF000F80A0319F90A0034F51F0B2EF11B072E12
:100C00007108F9007008F800F101F001EF2DF10111
:100C1000F001F00A0034F109F009FB0AEC2DF80AA2
:100C20000319F90A74087802031DEF2D750879027B
:100C3000031DEF2DF901F801F00A0319F10AF11F64
:100C4000EF2D0000FF34080003138312D501D601F5
:100C5000D901540884000008D8008A1565208A113B
:100C60007008003A0319612E8A1532208A11700823
:100C7000D70055085307F1007108840071088400FB
:100C80007008800057085806031D4B2E5608550261
:100C9000D900D60A4D2ED601D90156085407840032
:100CA0000008F1007108D8007108003A031D592EA0
:100CB000622ED50A5508143C0318612E1330D90052
:100CC000622E2D2E59085307F0007008840070081A
:100CD00084008001080003138312FB01FA01F9016B
:100CE0008030F800FD01F11F7B2EF109F009F00AB8
:100CF0000319F10AFD0AF51F832EF509F409F40A18
:100D00000319F50AFD0AF10CF00C031C902E74086F
:100D1000F90775080318750FFA070318FB0A031083
:100D2000F01F982E7408FA070318FB0A7508FB07D2
:100D3000FB0CFA0CF90CF80C031C832E7D1CAB2E5B
:100D4000FB09FA09F909F809F80A0319F90A03195C
:100D5000FA0A0319FB0A7B08F3007A08F200790803
:100D6000F1007808F000080003138312FD01F31F5F
:100D7000C62EF009F109F209F309F00A0319F10A84
:100D80000319F20A0319F30A8130FD07F71FD42E65
:100D9000F409F509F609F709F40A0319F50A031924
:100DA000F60A0319F70AFD0AEF267D1CEE2EF0095C
:100DB000F109F209F309F809F909FA09FB09F00A3E
:100DC0000319F10A0319F20A0319F30A0319F80ABD
:100DD0000319F90A0319FA0A0319FB0A0800031395
:100DE00083122230FC00F801F901FA01FB01FC0337
:100DF0000319252F0310FB0CFA0CF90CF80CF30C5B
:100E0000F20CF10CF00C031CF72EFC030319172F46
:100E10007408F80775080318750FF90776080318A2
:100E2000760FFA0777080318770FFB07FB2E740875
:100E3000F80775080318750FF90776080318760F79
:100E4000FA0777080318770FFB07080003138312CC
:100E5000710DF80DF90D7408F8027508031C750F73
:100E6000F902F00DF10D0F30FC00710DF80DF90DC8
:100E70007408701C412FF8027508031C750FF902E5
:100E8000462FF80775080318750FF907F00DF10DD7
:100E9000FC0B352F7018522F7408F80775080318CB
:100EA000750FF9070800413003138312E000E101D8
:100EB0002130E20040242130E00065272F30D300AC
:100EC000D4015330E0006527080003138312E101C9
:100ED000600884000008E2006208003A03197C2FD1
:100EE0006208E5008A1545208A11E10A6108600759
:100EF00084000008E2006C2F0800FF3FFF3FFF3F27
:100F0000FF3FFF3FFF3FFF3FFF3FFF3FFF3FFF3FF1
:100F1000FF3FFF3FFF3FFF3FFF3FFF3FFF3FFF3FE1
:100F2000FF3FFF3FFF3FFF3FFF3FFF3FFF3FFF3FD1
:100F3000FF3FFF3FFF3FFF3FFF3FFF3FFF3FFF3FC1
:100F4000FF3FFF3FFF3FFF3FFF3FFF3FFF3FFF3FB1
:100F5000FF3FFF3FFF3FFF3FFF3FFF3FFF3FFF3FA1
:100F6000FF3FFF3FFF3FFF3FFF3FFF3FFF3FFF3F91
:100F7000FF3FFF3FFF3FFF3FFF3FFF3FFF3FFF3F81
:100F8000FF3FFF3FFF3FFF3FFF3FFF3FFF3FFF3F71
:100F9000FF3FFF3FFF3FFF3FFF3FFF3FFF3FFF3F61
:100FA000FF3FFF3FFF3FFF3FFF3FFF3FFF3FFF3F51
:100FB000FF3FFF3FFF3FFF3FFF3FFF3FFF3FFF3F41
:100FC000FF3FFF3FFF3FFF3FFF3FFF3FFF3FFF3F31
:100FD000FF3FFF3FFF3FFF3FFF3FFF3FFF3FFF3F21
:100FE000FF3FFF3FFF3FFF3FFF3FFF3FFF3FFF3F11
:100FF000FF3FFF3FFF3FFF3FFF3FFF3FFF3FFF3F01
:1010000003138312F801F9011030FC00710DF80D83
:10101000F90D7408F8027508031C750FF90203181E
:1010200018287408F80775080318750FF9070310D6
:10103000F00DF10DFC0B062808000313831698161B
:1010400090308312980083168616861783120C0838
:10105000F1000030F11A0130F1007108013A031972
:1010600026280800031383121A08E0001808F1006C
:101070000030F1180130F1007108013A031D4228D7
:10108000181218166008F0000800031383161808D9
:10109000F1000030F1180130F1007108003A031D31
:1010A000532800004528831265089900080003139F
:1010B0008312FB09FA09F909F809F80A0319F90A70
:1010C0000319FA0A0319FB0A0800031383120C0818
:1010D000F1000030F11A0130F1007108E000600801
:1010E000F0000800FF3FFF3FFF3FFF3FFF3FFF3F94
:02400E00C430BC
:00000001FF
