:100000000428FF3FFF3FFF3FFF30031383168500A7
:100010006F30860087018B01031783129E019F01B9
:100020000313870119308316990018158A150020CB
:100030008A11B201B301B401B501B601B7010130B3
:10004000A100A201B001B101A501A6018A154820B5
:100050008A117008003C03183C283830D3002F3038
:10006000C900CA014930D4001C263830D300762399
:100070007008BF007108C00001300505F200720869
:10008000013A031DA4283208003A031DA428FF30BA
:10009000B20000302206031D4F2801302106031D47
:1000A0007B282508013FF20000300318013F260796
:1000B000F3007208A5007308A6008030033AF00030
:1000C000803073067002031D67287208E73C03182E
:1000D0006D28E730A5000330A60080302606F0002A
:1000E00080307002031D76280030250203187A281C
:1000F000A501A601A4283008013FF2000030031832
:10010000013F3107F3007208B0007308B10080307E
:10011000033AF000803073067002031D91287208C4
:10012000E73C03189728E730B0000330B100803077
:100130003106F00080307002031DA028003030022C
:100140000318A428B001B10101300505F2007208BE
:10015000003A031DB0283208FF3A031DB028B2014F
:10016000003085180130F2007208013A031DCF28D3
:100170003308003A031DCF28FF30B30000302206B9
:10018000031DC42801302106031DCB280130A50220
:10019000031CA603CF280130B002031CB1030030BA
:1001A00085180130F2007208003A031DDC2833087C
:1001B000FF3A031DDC28B301003085190130F2003D
:1001C0007208013A031DF9283508003A031DF92881
:1001D000FF30B50000302206031DF0280130210653
:1001E000031DF6280230A100A201F9280130A10068
:1001F000A201003085190130F2007208003A031D97
:1002000006293508FF3A031D0629B5010030051AF5
:100210000130F2007208013A031D1F293608003A26
:10022000031D1F29FF30B6000030061A0130F2000E
:100230007208003A031D1E2906161F2906120030F7
:10024000051A0130F2007208003A031D2C29360805
:10025000FF3A031D2C29B6010030851A0130F20047
:100260007208013A031D3B293708003A031D3B2958
:10027000FF30B70077250030851A0130F200720890
:10028000003A031D4429B70100302206031D4A2904
:1002900001302106031D51292508BF002608C00092
:1002A00055293008BF003108C000E830F4000330A1
:1002B000F5003F08F0004008F100C2257008D100A9
:1002C0007108D2005108C1005208C2006430F40025
:1002D000F5013F08F0004008F100C2257008CB008E
:1002E0007108CC005108F0005208F1000A30F40007
:1002F000F501632670084B02CF007108031C013F13
:100300004C02D0004F08C3005008C4000A30F4006B
:10031000F5013F08F0004008F100C2257008CB004D
:100320007108CC004F08F0005008F1000A30F400CA
:10033000F50163267008CB02031CCC037108CC02C4
:100340005108F0005208F1006430F400F501632612
:1003500070084B02CD007108031C013F4C02CE0017
:100360004D08C5004E08C6004D08F0004E08F100CB
:100370000A30F400F501632670083F02CB007108D3
:10038000031C013F4002CC004F08F0005008F10070
:100390006430F400F50163267008CB02031CCC0323
:1003A0007108CC025108F0005208F100E830F40066
:1003B0000330F500632670084B02F0007108031C3F
:1003C000013F4C02F1007008C7007108C8001030EE
:1003D000F0070318F10A700887000430FB00FF30B3
:1003E000FA00FB0BF429F729FA0BF429F129E23082
:1003F000FA00FA0BF92920304D07F0004E080318D7
:10040000013FF1000030F107700887000430FB0065
:10041000FF30FA00FB0B0D2A102AFA0B0D2A0A2ACC
:10042000E230FA00FA0B122A40304F07F000500871
:100430000318013FF1000030F10770088700043015
:10044000FB00FF30FA00FB0B262A292AFA0B262A8A
:10045000232AE230FA00FA0B2B2A80305107F000F1
:1004600052080318013FF1000030F10770088700BF
:100470000430FB00FF30FA00FB0B3F2A422AFA0B44
:100480003F2A3C2AE230FA00FA0B442A2628472A5F
:10049000031383127408F8027508031C750FF90220
:1004A0007608031C760FFA027708031C770FFB020D
:1004B000F30D0730FC00730DF80DF90DFA0DFB0D6F
:1004C0007408731C712AF8027508031C750FF90271
:1004D0007608031C760FFA027708031C770FFB02DD
:1004E0007E2AF80775080318750FF90776080318B0
:1004F000760FFA0777080318770FFB07F30DFC0B4D
:100500005B2A720DF80DF90DFA0DFB0D7408731CC2
:10051000972AF8027508031C750FF9027608031C68
:10052000760FFA027708031C770FFB02A42AF8075C
:1005300075080318750FF90776080318760FFA0780
:1005400077080318770FFB07F20D0730FC00720DD8
:10055000F80DF90DFA0DFB0D7408721CBD2AF80296
:100560007508031C750FF9027608031C760FFA0252
:100570007708031C770FFB02CA2AF80775080318CF
:10058000750FF90776080318760FFA07770803182E
:10059000770FFB07F20DFC0BA72A710DF80DF90D73
:1005A000FA0DFB0D7408721CE32AF8027508031C8F
:1005B000750FF9027608031C760FFA027708031C00
:1005C000770FFB02F02AF80775080318750FF90773
:1005D00076080318760FFA0777080318770FFB07DA
:1005E000F10D0730FC00710DF80DF90DFA0DFB0D42
:1005F0007408711C092BF8027508031C750FF902A9
:100600007608031C760FFA027708031C770FFB02AB
:10061000162BF80775080318750FF90776080318E5
:10062000760FFA0777080318770FFB07F10DFC0B1D
:10063000F32A700DF80DF90DFA0DFB0D7408711CFD
:100640002F2BF8027508031C750FF9027608031C9E
:10065000760FFA027708031C770FFB023C2BF80792
:1006600075080318750FF90776080318760FFA074F
:1006700077080318770FFB07F00D0730FC00700DAB
:10068000F80DF90DFA0DFB0D7408701C552BF802CE
:100690007508031C750FF9027608031C760FFA0221
:1006A0007708031C770FFB02622BF8077508031805
:1006B000750FF90776080318760FFA0777080318FD
:1006C000770FFB07F00DFC0B3F2B7018752B740890
:1006D000F80775080318750FF90776080318760FE1
:1006E000FA0777080318770FFB0708000313831234
:1006F000D401D5011030D8002730D900D601D70158
:10070000DC01DD01DE01DF01DA01DB015608530700
:1007100084000008F4007408003A0319F22B56080C
:10072000530784000008F40074082D3A031D9F2B22
:10073000FF30DA00DB01D60A0319D70A862B5608E8
:10074000530784000008F4007408203A0319E22BD0
:100750005608530784000008F0003030F800F90113
:10076000FA01FB017008F400F501F601F7017408C5
:10077000F0007508F1007608F2007708F3007808B9
:10078000F0027908031C790FF1027A08031C7A0F32
:10079000F2027B08031C7B0FF3025808F40059088F
:1007A000F500F601F701AC267008DC0771080318A4
:1007B000710FDD0772080318720FDE077308031844
:1007C000730FDF070A30F400F5015808F0005908EC
:1007D000F1004B277008D8007108D900D60A031918
:1007E000D70A862B5A085B040319FA2B0630D80067
:1007F000D901FD2B0530D800D90157085906031D32
:10080000032C5808560603191F2C0A30F400F50172
:10081000F601F7015C08F0005D08F1005E08F200E7
:100820005F08F300DB247008DC007108DD0072084B
:10083000DE007308DF00D60A0319D70AFD2B5C0817
:10084000D4005D08D50000305B06031D292CFF3065
:100850005A06031D332C5408003CD4005508031CD1
:10086000013FD501D5025408F0005508F1000800F9
:10087000031383126108803A031D402C0030600688
:10088000031D582C620884002D308000840A333008
:100890008000840A32308000840A37308000840A65
:1008A00036308000840A38308000840A8001DA2CD7
:1008B000E40180306106F00080307002031D622C7C
:1008C0000030600203186E2CFF30E4006008003C2A
:1008D000E0006108031C013FE101E1020130E30097
:1008E0008030F000803061067002031D792C6008B2
:1008F000093C03187C2CE30A8030F000803061064C
:100900007002031D852C6008633C0318882CE30AE1
:100910008030033AF000803061067002031D922C93
:100920006008E73C0318952CE30A8030273AF00072
:10093000803061067002031D9F2C60080F3C031875
:10094000A22CE30A6208840020308000840A800020
:10095000840A8000840A8000840A8000840A80005F
:10096000840A800184036308003C0318D52C0A30F4
:10097000F400F5016008F0006108F100C225780874
:10098000F0007908F10030307007800084030A30ED
:10099000F400F5016008F0006108F100C22570085C
:1009A000E0007108E100E303B32C64080319DA2CBA
:1009B0002D308000080003138312FC01F71BFC0A92
:1009C000FD01FB01FA01F901F801730872047104D9
:1009D000700403196F2D73087706A000A01BFD0992
:1009E000F71FFD2CF409F509F609F709F40A0319B4
:1009F000F50A0319F60A0319F70AF31F0A2DF0097D
:100A0000F109F209F309F00A0319F10A0319F20ACC
:100A10000319F30A73087704A000A01B2B2D4822AA
:100A2000FC1B482DFD1F6F2DF009F109F209F30998
:100A3000F00A0319F10A0319F20A0319F30AF80973
:100A4000F909FA09FB09F80A0319F90A0319FA0A5C
:100A50000319FB0A6F2DF71F422DF31B3C2D730862
:100A6000FB007208FA007108F9007008F800F30141
:100A7000F201F101F001122DF301F201F101F00197
:100A8000F00A0034F309F209F109F009FC170F2DFF
:100A9000F80A0319F90A0319FA0A0319FB0A740878
:100AA0007802031D122D75087902031D122D760898
:100AB0007A02031D122D77087B02031D122DFB0104
:100AC000FA01F901F801F00A0319F10A0319F20A0F
:100AD0000319F30AF31F122DA0012016FF34A00101
:100AE0007C1C752D8A153A208A11003F08000030C1
:100AF000031383122206031D7F2D01302106031DDF
:100B00009D2D2508E83FF00003300318013F26071C
:100B1000F1007008A3007108A4007008E0007108DB
:100B2000E1002730E20038242730E00068272F302A
:100B3000D300D4015330E000682700302206031DA3
:100B4000A32D02302106031DC12D3008D03FF00037
:100B500007300318013F3107F1007008AE0071083B
:100B6000AF007008E0007108E1002730E20038248F
:100B70002730E00068272F30D300D4015330E00045
:100B80006827080003138312FD01F901F8017108B9
:100B900070040319003471087506FA00FA1BFD0988
:100BA000FB01F51FD82DF409F509F40A0319F50A1C
:100BB000F11FDF2DF009F109F00A0319F10A71089C
:100BC0007504FA00FA1BF42D1E277B18072EFD1F53
:100BD0000034F009F109F00A0319F10AF809F909DA
:100BE000F80A0319F90A0034F51F032EF11BFF2D33
:100BF0007108F9007008F800F101F001E72DF1012A
:100C0000F001F00A0034F109F009FB0AE42DF80ABA
:100C10000319F90A74087802031DE72D7508790293
:100C2000031DE72DF901F801F00A0319F10AF11F7C
:100C3000E72D0000FF34080003138312D501D6010D
:100C4000D901540884000008D8008A1548208A1168
:100C50007008003A0319592E8A1515208A11700858
:100C6000D70055085307F10071088400710884000B
:100C70007008800057085806031D432E5608550279
:100C8000D900D60A452ED601D9015608540784004A
:100C90000008F1007108D8007108003A031D512EB8
:100CA0005A2ED50A5508143C0318592E1330D90072
:100CB0005A2E252E59085307F0007008840070083A
:100CC00084008001080003138312FB01FA01F9017B
:100CD0008030F800FD01F11F732EF109F009F00AD0
:100CE0000319F10AFD0AF51F7B2EF509F409F40A30
:100CF0000319F50AFD0AF10CF00C031C882E740888
:100D0000F90775080318750FFA070318FB0A031093
:100D1000F01F902E7408FA070318FB0A7508FB07EA
:100D2000FB0CFA0CF90CF80C031C7B2E7D1CA32E7B
:100D3000FB09FA09F909F809F80A0319F90A03196C
:100D4000FA0A0319FB0A7B08F3007A08F200790813
:100D5000F1007808F000080003138312FD01F31F6F
:100D6000BE2EF009F109F209F309F00A0319F10A9C
:100D70000319F20A0319F30A8130FD07F71FCC2E7D
:100D8000F409F509F609F709F40A0319F50A031934
:100D9000F60A0319F70AFD0AE7267D1CE62EF0097C
:100DA000F109F209F309F809F909FA09FB09F00A4E
:100DB0000319F10A0319F20A0319F30A0319F80ACD
:100DC0000319F90A0319FA0A0319FB0A08000313A5
:100DD00083122230FC00F801F901FA01FB01FC0347
:100DE00003191D2F0310FB0CFA0CF90CF80CF30C73
:100DF000F20CF10CF00C031CEF2EFC0303190F2F67
:100E00007408F80775080318750FF90776080318B2
:100E1000760FFA0777080318770FFB07F32E74088D
:100E2000F80775080318750FF90776080318760F89
:100E3000FA0777080318770FFB07080003138312DC
:100E4000710DF80DF90D7408F8027508031C750F83
:100E5000F902F00DF10D0F30FC00710DF80DF90DD8
:100E60007408701C392FF8027508031C750FF902FD
:100E70003E2FF80775080318750FF907F00DF10DEF
:100E8000FC0B2D2F70184A2F7408F80775080318EB
:100E9000750FF907080003138312F801F9011030E8
:100EA000FC00710DF80DF90D7408F8027508031CAB
:100EB000750FF9020318632F7408F80775080318F3
:100EC000750FF9070310F00DF10DFC0B512F080001
:100ED00003138312E101600884000008E200620845
:100EE000003A03197F2F6208E5008A1528208A112D
:100EF000E10A6108600784000008E2006F2F080023
:100F0000FF3FFF3FFF3FFF3FFF3FFF3FFF3FFF3FF1
:100F1000FF3FFF3FFF3FFF3FFF3FFF3FFF3FFF3FE1
:100F2000FF3FFF3FFF3FFF3FFF3FFF3FFF3FFF3FD1
:100F3000FF3FFF3FFF3FFF3FFF3FFF3FFF3FFF3FC1
:100F4000FF3FFF3FFF3FFF3FFF3FFF3FFF3FFF3FB1
:100F5000FF3FFF3FFF3FFF3FFF3FFF3FFF3FFF3FA1
:100F6000FF3FFF3FFF3FFF3FFF3FFF3FFF3FFF3F91
:100F7000FF3FFF3FFF3FFF3FFF3FFF3FFF3FFF3F81
:100F8000FF3FFF3FFF3FFF3FFF3FFF3FFF3FFF3F71
:100F9000FF3FFF3FFF3FFF3FFF3FFF3FFF3FFF3F61
:100FA000FF3FFF3FFF3FFF3FFF3FFF3FFF3FFF3F51
:100FB000FF3FFF3FFF3FFF3FFF3FFF3FFF3FFF3F41
:100FC000FF3FFF3FFF3FFF3FFF3FFF3FFF3FFF3F31
:100FD000FF3FFF3FFF3FFF3FFF3FFF3FFF3FFF3F21
:100FE000FF3FFF3FFF3FFF3FFF3FFF3FFF3FFF3F11
:100FF000FF3FFF3FFF3FFF3FFF3FFF3FFF3FFF3F01
:101000000313831698169030831298008316861661
:10101000861783120C08F1000030F11A0130F1003C
:101020007108013A031909280800031383121A08EA
:10103000E0001808F1000030F1180130F1007108EB
:10104000013A031D2528181218166008F000080040
:10105000031383161808F1000030F1180130F10075
:101060007108003A031D36280000282883126508FD
:101070009900080003138312FB09FA09F909F8091A
:10108000F80A0319F90A0319FA0A0319FB0A0800F6
:10109000031383120C08F1000030F11A0130F10043
:1010A0007108E0006008F0000800FF3FFF3FFF3FCD
:02400E00C430BC
:00000001FF
