:100000000428FF3FFF3FFF3FFF30031383168500A7
:100010007F30860087018B01031783129E019F01A9
:10002000193003138316990018159E208701A0012B
:10003000A101A201A301A401A501A601A701A80194
:10004000C6207008003C03182828B3207008A900B7
:1000500001300505F1007108013A031D3828220816
:10006000003A031D3828FF30A200A00A0319A10A94
:1000700001300505F1007108003A031D44282208EB
:10008000FF3A031D4428A201003085180130F10019
:100090007108013A031D56282308003A031D56280B
:1000A000FF30A3000130A002031CA103003085181B
:1000B0000130F1007108003A031D63282308FF3A5C
:1000C000031D6328A3010030851A0130F100710877
:1000D000013A031D79282708003A031D7928FF30CB
:1000E000A7002A08FF3A031D7728AA017928FF30C4
:1000F000AA000030851A0130F1007108003A031D92
:100100008228A7012A08FF3AFF30031D0030F000C3
:100110007008F00403198D288D288030033AF00010
:10012000803021067002031D97282008E73C031841
:100130009B28A001A101A90120289D280313831653
:1001400098169030831298008316861686178312AD
:100150000C08F1000030F11A0130F1007108013A89
:100160000319A7280800031383121A08AB00180804
:10017000F1000030F1180130F1007108013A031D5F
:10018000C328181218162B08F00008000313831256
:100190000C08F1000030F11A0130F1007108AB00D9
:1001A0002B08F0000800FF3FFF3FFF3FFF3FFF3FEE
:02400E00C430BC
:00000001FF
