:100000000428FF3FFF3FFF3FDF30031383168500C7
:100010007F30860087018B01031783129E019F01A9
:1000200003138701A101A201A301A401A501A60157
:10003000A701A801A901AA01193083169900181572
:10004000B425EA257008003C031835292B30B80088
:100050002F30B200B3013230B9006C242B30B8001D
:10006000B6227008A1007108A200E830F400033045
:10007000F50012247008A9007108AA00003071066A
:10008000031D442801307006031DBE286430F400AF
:10009000F5012108F0002208F10012247008B400D4
:1000A0007108B5002908F0002A08F1000A30F400B0
:1000B000F501AF2470083402B6007108031C013F3B
:1000C0003502B7003608A7003708A8000A30F40048
:1000D000F5012108F0002208F10012247008B40094
:1000E0007108B5003608F0003708F1000A30F40056
:1000F000F501AF247008B402031CB5037108B50202
:100100002908F0002A08F1006430F400F501AF245A
:1001100070083402F0007108031C013F3502F10041
:100120007008A5007108A6000A30F400F501AF249C
:1001300070082102A3007108031C013F2202A400E1
:100140003608F0003708F1006430F400F501AF2400
:100150007008A302031CA4037108A4022908F0007C
:100160002A08F100E830F4000330F500AF247008ED
:10017000A302031CA4037108A40235296430F4000F
:10018000F5012108F0002208F10012247008B400E3
:100190007108B5002908F0002A08F1000A30F400BF
:1001A000F501AF2470083402B6007108031C013F4A
:1001B0003502B7003608A7003708A8000A30F40057
:1001C000F5012108F0002208F10012247008B400A3
:1001D0007108B5003608F0003708F1000A30F40065
:1001E000F501AF247008B402031CB5037108B50211
:1001F0002908F0002A08F1006430F400F501AF246A
:1002000070083402F0007108031C013F3502F10050
:100210007008A5007108A6000A30F400F501AF24AB
:1002200070082102A3007108031C013F2202A400F0
:100230003608F0003708F1006430F400F501AF240F
:100240007008A302031CA4037108A4022908F0008B
:100250002A08F100E830F4000330F500AF247008FC
:10026000A302031CA4037108A40210302307F000AA
:1002700024080318013FF1000030F10770088700DF
:100280000730FB00FF30FA00FB0B47294A29FA0B25
:10029000472944297830FA00FA0B4C290000000065
:1002A00020302507F00026080318013FF100003038
:1002B000F107700887000730FB00FF30FA00FB0BE6
:1002C00062296529FA0B62295F297830FA00FA0B56
:1002D00067290000000040302707F00028080318B5
:1002E000013FF1000030F107700887000730FB0084
:1002F000FF30FA00FB0B7D298029FA0B7D297A2932
:100300007830FA00FA0B82290000000021288729A2
:10031000031383127408F8027508031C750FF902A1
:100320007608031C760FFA027708031C770FFB028E
:10033000F30D0730FC00730DF80DF90DFA0DFB0DF0
:100340007408731CB129F8027508031C750FF902B3
:100350007608031C760FFA027708031C770FFB025E
:10036000BE29F80775080318750FF90776080318F2
:10037000760FFA0777080318770FFB07F30DFC0BCE
:100380009B29720DF80DF90DFA0DFB0D7408731C05
:10039000D729F8027508031C750FF9027608031CAB
:1003A000760FFA027708031C770FFB02E429F8079F
:1003B00075080318750FF90776080318760FFA0702
:1003C00077080318770FFB07F20D0730FC00720D5A
:1003D000F80DF90DFA0DFB0D7408721CFD29F802D9
:1003E0007508031C750FF9027608031C760FFA02D4
:1003F0007708031C770FFB020A2AF8077508031811
:10040000750FF90776080318760FFA0777080318AF
:10041000770FFB07F20DFC0BE729710DF80DF90DB5
:10042000FA0DFB0D7408721C232AF8027508031CD0
:10043000750FF9027608031C760FFA027708031C81
:10044000770FFB02302AF80775080318750FF907B4
:1004500076080318760FFA0777080318770FFB075B
:10046000F10D0730FC00710DF80DF90DFA0DFB0DC3
:100470007408711C492AF8027508031C750FF902EB
:100480007608031C760FFA027708031C770FFB022D
:10049000562AF80775080318750FF9077608031828
:1004A000760FFA0777080318770FFB07F10DFC0B9F
:1004B000332A700DF80DF90DFA0DFB0D7408711C3F
:1004C0006F2AF8027508031C750FF9027608031CE1
:1004D000760FFA027708031C770FFB027C2AF807D5
:1004E00075080318750FF90776080318760FFA07D1
:1004F00077080318770FFB07F00D0730FC00700D2D
:10050000F80DF90DFA0DFB0D7408701C952AF80210
:100510007508031C750FF9027608031C760FFA02A2
:100520007708031C770FFB02A22AF8077508031847
:10053000750FF90776080318760FFA07770803187E
:10054000770FFB07F00DFC0B7F2A7018B52A740893
:10055000F80775080318750FF90776080318760F62
:10056000FA0777080318770FFB07080003138312B5
:10057000B901BA011030BD002730BE00BB01BC017B
:10058000C101C201C301C401BF01C0013B0838075A
:1005900084000008F4007408003A0319322B3B0869
:1005A000380784000008F40074082D3A031DDF2A80
:1005B000FF30BF00C001BB0A0319BC0AC62A3B08B2
:1005C000380784000008F4007408203A0319222B2D
:1005D0003B08380784000008F0003030F800F901CB
:1005E000FA01FB017008F400F501F601F701740847
:1005F000F0007508F1007608F2007708F30078083B
:10060000F0027908031C790FF1027A08031C7A0FB3
:10061000F2027B08031C7B0FF3023D08F4003E0846
:10062000F500F601F701F8247008C10771080318F6
:10063000710FC20772080318720FC30773080318FB
:10064000730FC4070A30F400F5013D08F0003E08BE
:10065000F10097257008BD007108BE00BB0A0319A0
:10066000BC0AC62A3F08400403193A2B0630BD00D5
:10067000BE013D2B0530BD00BE013C083E06031DFA
:10068000432B3D083B0603195F2B0A30F400F501AC
:10069000F601F7014108F0004208F1004308F200BA
:1006A0004408F30078237008C1007108C200720882
:1006B000C3007308C400BB0A0319BC0A3D2B4108E0
:1006C000B9004208BA0000304006031D692BFF3014
:1006D0003F06031D732B3908003CB9003A08031C80
:1006E000013FBA01BA023908F0003A08F1000800E7
:1006F00003138312FC01F71BFC0AFD01FB01FA0145
:10070000F901F801730872047104700403190C2CC8
:1007100073087706A000A01BFD09F71F9A2BF409A8
:10072000F509F609F709F40A0319F50A0319F60A97
:100730000319F70AF31FA72BF009F109F209F309CE
:10074000F00A0319F10A0319F20A0319F30A7308EC
:100750007704A000A01BC82B8821FC1BE52BFD1FE4
:100760000C2CF009F109F209F309F00A0319F10A56
:100770000319F20A0319F30AF809F909FA09FB093E
:10078000F80A0319F90A0319FA0A0319FB0A0C2CCF
:10079000F71FDF2BF31BD92B7308FB007208FA003D
:1007A0007108F9007008F800F301F201F101F0019D
:1007B000AF2BF301F201F101F001F00A0034F3096B
:1007C000F209F109F009FC17AC2BF80A0319F90A30
:1007D0000319FA0A0319FB0A74087802031DAF2BE8
:1007E00075087902031DAF2B76087A02031DAF2B23
:1007F00077087B02031DAF2BFB01FA01F901F80119
:10080000F00A0319F10A0319F20A0319F30AF31F94
:10081000AF2BA0012016FF34A0017C1C102CDC257E
:10082000003F080003138312FD01F901F80171086C
:1008300070040319003471087506FA00FA1BFD09EB
:10084000FB01F51F282CF409F509F40A0319F50A30
:10085000F11F2F2CF009F109F00A0319F10A7108B0
:100860007504FA00FA1B442C6A257B18572CFD1FCF
:100870000034F009F109F00A0319F10AF809F9093D
:10088000F80A0319F90A0034F51F532CF11B4F2CF9
:100890007108F9007008F800F101F001372CF1013E
:1008A000F001F00A0034F109F009FB0A342CF80ACF
:1008B0000319F90A74087802031D372C75087902A8
:1008C000031D372CF901F801F00A0319F10AF11F91
:1008D000372C0000FF34080003138312BA01BB0158
:1008E000BE01390884000008BD00EA257008003AFE
:1008F0000319A52CC9257008BC003A083807F10077
:100900007108840071088400700880003C083D066E
:10091000031D8F2C3B083A02BE00BB0A912CBB0181
:10092000BE013B08390784000008F1007108BD00D2
:100930007108003A031D9D2CA62CBA0A3A08143CF3
:100940000318A52C1330BE00A62C752C3E083807C2
:10095000F000700884007008840080010800031310
:100960008312FB01FA01F9018030F800FD01F11F4B
:10097000BF2CF109F009F00A0319F10AFD0AF51F6D
:10098000C72CF509F409F40A0319F50AFD0AF10C5C
:10099000F00C031CD42C7408F90775080318750FA4
:1009A000FA070318FB0A0310F01FDC2C7408FA077F
:1009B0000318FB0A7508FB07FB0CFA0CF90CF80C82
:1009C000031CC72C7D1CEF2CFB09FA09F909F80957
:1009D000F80A0319F90A0319FA0A0319FB0A7B0832
:1009E000F3007A08F2007908F1007808F0000800B6
:1009F00003138312FD01F31F0A2DF009F109F20917
:100A0000F309F00A0319F10A0319F20A0319F30AA8
:100A10008130FD07F71F182DF409F509F609F709CC
:100A2000F40A0319F50A0319F60A0319F70AFD0A6D
:100A300033257D1C322DF009F109F209F309F8097B
:100A4000F909FA09FB09F00A0319F10A0319F20A74
:100A50000319F30A0319F80A0319F90A0319FA0A20
:100A60000319FB0A0800031383122230FC00F8016B
:100A7000F901FA01FB01FC030319692D0310FB0CBA
:100A8000FA0CF90CF80CF30CF20CF10CF00C031C42
:100A90003B2DFC0303195B2D7408F8077508031838
:100AA000750FF90776080318760FFA077708031809
:100AB000770FFB073F2D7408F80775080318750FAB
:100AC000F90776080318760FFA0777080318770FE7
:100AD000FB07080003138312710DF80DF90D74085C
:100AE000F8027508031C750FF902F00DF10D0F30B7
:100AF000FC00710DF80DF90D7408701C852DF802BD
:100B00007508031C750FF9028A2DF807750803187C
:100B1000750FF907F00DF10DFC0B792D7018962D5E
:100B20007408F80775080318750FF9070800031310
:100B30008312F801F9011030FC00710DF80DF90D68
:100B40007408F8027508031C750FF9020318AF2D1D
:100B50007408F80775080318750FF9070310F00DEE
:100B6000F10DFC0B9D2D0800031383169816903091
:100B70008312980083168616861783120C08F100DC
:100B80000030F11A0130F1007108013A0319BD2D4E
:100B90000800031383121A08C5001808F10000307A
:100BA000F1180130F1007108013A031DD92D181216
:100BB00018164508F000080003138312FB09FA0910
:100BC000F909F809F80A0319F90A0319FA0A0319C5
:100BD000FB0A0800031383120C08F1000030F11A1D
:100BE0000130F1007108C5004508F0000800FF3F22
:02400E00C430BC
:00000001FF
