:100000000428FF3FFF3FFF3FDF30031383168500C7
:100010007F30860087018B01031783129E019F01A9
:10002000031387011930831699001815D325092663
:100030007008003C0318A5292130C8002F30BE00ED
:10004000BF013E30C9008B242108313A031DE62848
:100050002130C800D5227008C6007108C7004608C4
:10006000B6004708B7006430F400F5014608F00018
:100070004708F10031247008C4007108C500440825
:10008000B8004508B9000A30F400F5014608F00050
:100090004708F10031247008C0007108C10044080D
:1000A000F0004508F1000A30F400F501CE24700894
:1000B0004002C2007108031C013F4102C300420814
:1000C000BA004308BB004208F0004308F1000A30C0
:1000D000F400F501CE2470084602C0007108031C2C
:1000E000013F4702C1004408F0004508F1006430B8
:1000F000F400F501CE2470084002F0007108031CE2
:10010000013F4102F1007008BC007108BD00813060
:1001100087000730FB00FF30FA00FB0B9028932884
:10012000FA0B90288D287830FA00FA0B95280000F9
:1001300000001030F0070318F10A7008870007303C
:10014000FB00FF30FA00FB0BA628A928FA0BA62813
:10015000A3287830FA00FA0BAB280000000020300A
:100160004207F00043080318013FF1000030F10797
:10017000700887000730FB00FF30FA00FB0BC12836
:10018000C428FA0BC128BE287830FA00FA0BC6281A
:100190000000000040304407F00045080318013F0C
:1001A000F1000030F107700887000730FB00FF30D6
:1001B000FA00FB0BDC28DF28FA0BDC28D928783082
:1001C000FA00FA0BE12800000000A5298230870020
:1001D0002130C800D5227008C6007108C700460843
:1001E000B6004708B7006430F400F5014608F00097
:1001F0004708F10031247008C4007108C5004408A4
:10020000B8004508B9000A30F400F5014608F000CE
:100210004708F10031247008C0007108C10044088B
:10022000F0004508F1000A30F400F501CE24700812
:100230004002C2007108031C013F4102C300420892
:10024000BA004308BB004208F0004308F1000A303E
:10025000F400F501CE2470084602C0007108031CAA
:10026000013F4702C1004408F0004508F100643036
:10027000F400F501CE2470084002F0007108031C60
:10028000013F4102F1007008BC007108BD008130DF
:1002900087000730FB00FF30FA00FB0B5029532981
:1002A000FA0B50294D297830FA00FA0B5529000035
:1002B00000001030F0070318F10A700887000730BB
:1002C000FB00FF30FA00FB0B66296929FA0B66294F
:1002D00063297830FA00FA0B6B2900000000203007
:1002E0004207F00043080318013FF1000030F10716
:1002F000700887000730FB00FF30FA00FB0B8129F4
:100300008429FA0B81297E297830FA00FA0B862994
:100310000000000040304407F00045080318013F8A
:10032000F1000030F107700887000730FB00FF3054
:10033000FA00FB0B9C299F29FA0B9C2999297830FC
:10034000FA00FA0BA129000000001728A6290313C0
:1003500083127408F8027508031C750FF9027608F9
:10036000031C760FFA027708031C770FFB02F30DCC
:100370000730FC00730DF80DF90DFA0DFB0D740834
:10038000731CD029F8027508031C750FF902760852
:10039000031C760FFA027708031C770FFB02DD2996
:1003A000F80775080318750FF90776080318760F14
:1003B000FA0777080318770FFB07F30DFC0BBA2930
:1003C000720DF80DF90DFA0DFB0D7408731CF6296A
:1003D000F8027508031C750FF9027608031C760FE6
:1003E000FA027708031C770FFB02032AF807750847
:1003F0000318750FF90776080318760FFA077708C0
:100400000318770FFB07F20D0730FC00720DF80D93
:10041000F90DFA0DFB0D7408721C1C2AF802750800
:10042000031C750FF9027608031C760FFA02770891
:10043000031C770FFB02292AF80775080318750FAC
:10044000F90776080318760FFA0777080318770F6D
:10045000FB07F20DFC0B062A710DF80DF90DFA0DD4
:10046000FB0D7408721C422AF8027508031C750FF4
:10047000F9027608031C760FFA027708031C770F3F
:10048000FB024F2AF80775080318750FF90776085D
:100490000318760FFA0777080318770FFB07F10D9B
:1004A0000730FC00710DF80DF90DFA0DFB0D740805
:1004B000711C682AF8027508031C750FF90276088A
:1004C000031C760FFA027708031C770FFB02752ACC
:1004D000F80775080318750FF90776080318760FE3
:1004E000FA0777080318770FFB07F10DFC0B522A68
:1004F000700DF80DF90DFA0DFB0D7408711C8E2AA4
:10050000F8027508031C750FF9027608031C760FB4
:10051000FA027708031C770FFB029B2AF80775087D
:100520000318750FF90776080318760FFA0777088E
:100530000318770FFB07F00D0730FC00700DF80D66
:10054000F90DFA0DFB0D7408701CB42AF802750839
:10055000031C750FF9027608031C760FFA02770860
:10056000031C770FFB02C12AF80775080318750FE3
:10057000F90776080318760FFA0777080318770F3C
:10058000FB07F00DFC0B9E2A7018D42A7408F8079C
:1005900075080318750FF90776080318760FFA0720
:1005A00077080318770FFB07080003138312C901AC
:1005B000CA011030CD002730CE00CB01CC01D101D3
:1005C000D201D301D401CF01D0014B0848078400E8
:1005D0000008F4007408003A0319512B4B0848072F
:1005E00084000008F40074082D3A031DFE2AFF3031
:1005F000CF00D001CB0A0319CC0AE52A4B084807E3
:1006000084000008F4007408203A0319412B4B08B9
:10061000480784000008F0003030F800F901FA01C2
:10062000FB017008F400F501F601F7017408F00011
:100630007508F1007608F2007708F3007808F002F8
:100640007908031C790FF1027A08031C7A0FF20271
:100650007B08031C7B0FF3024D08F4004E08F500E5
:10066000F601F70117257008D10771080318710FFB
:10067000D20772080318720FD30773080318730F99
:10068000D4070A30F400F5014D08F0004E08F100DF
:10069000B6257008CD007108CE00CB0A0319CC0A2C
:1006A000E52A4F0850040319592B0630CD00CE011E
:1006B0005C2B0530CD00CE014C084E06031D622B8D
:1006C0004D084B0603197E2B0A30F400F501F601A4
:1006D000F7015108F0005208F1005308F2005408E5
:1006E000F30097237008D1007108D2007208D3007C
:1006F0007308D400CB0A0319CC0A5C2B5108C9003B
:100700005208CA0000305006031D882BFF304F06E8
:10071000031D922B4908003CC9004A08031C013FF5
:10072000CA01CA024908F0004A08F1000800031390
:100730008312FC01F71BFC0AFD01FB01FA01F90120
:10074000F801730872047104700403192B2C7308E8
:100750007706A000A01BFD09F71FB92BF409F509C6
:10076000F609F709F40A0319F50A0319F60A031939
:10077000F70AF31FC62BF009F109F209F309F00A91
:100780000319F10A0319F20A0319F30A730877042B
:10079000A000A01BE72BA721FC1B042CFD1F2B2C6A
:1007A000F009F109F209F309F00A0319F10A031932
:1007B000F20A0319F30AF809F909FA09FB09F80A18
:1007C0000319F90A0319FA0A0319FB0A2B2CF71F5C
:1007D000FE2BF31BF82B7308FB007208FA0071085C
:1007E000F9007008F800F301F201F101F001CE2BDD
:1007F000F301F201F101F001F00A0034F309F2090A
:10080000F109F009FC17CB2BF80A0319F90A0319AF
:10081000FA0A0319FB0A74087802031DCE2B750827
:100820007902031DCE2B76087A02031DCE2B7708A2
:100830007B02031DCE2BFB01FA01F901F801F00A3E
:100840000319F10A0319F20A0319F30AF31FCE2B55
:10085000A0012016FF34A0017C1C2F2CFB25003F9B
:10086000080003138312FD01F901F80171087004F7
:100870000319003471087506FA00FA1BFD09FB0123
:10088000F51F472CF409F509F40A0319F50AF11FBD
:100890004E2CF009F109F00A0319F10A71087504E8
:1008A000FA00FA1B632C89257B18762CFD1F003477
:1008B000F009F109F00A0319F10AF809F909F80A2F
:1008C0000319F90A0034F51F722CF11B6E2C710804
:1008D000F9007008F800F101F001562CF101F00167
:1008E000F00A0034F109F009FB0A532CF80A031945
:1008F000F90A74087802031D562C75087902031D45
:10090000562CF901F801F00A0319F10AF11F562CCF
:100910000000FF34080003138312CA01CB01CE018B
:10092000490884000008CD0009267008003A031920
:10093000C42CE8257008CC004A084807F10071086B
:10094000840071088400700880004C084D06031D67
:10095000AE2C4B084A02CE00CB0AB02CCB01CE0104
:100960004B08490784000008F1007108CD007108A8
:10097000003A031DBC2CC52CCA0A4A08143C0318B3
:10098000C42C1330CE00C52C942C4E084807F00020
:10099000700884007008840080010800031383122B
:1009A000FB01FA01F9018030F800FD01F11FDE2C96
:1009B000F109F009F00A0319F10AFD0AF51FE62C06
:1009C000F509F409F40A0319F50AFD0AF10CF00C13
:1009D000031CF32C7408F90775080318750FFA0740
:1009E0000318FB0A0310F01FFB2C7408FA07031806
:1009F000FB0A7508FB07FB0CFA0CF90CF80C031C3E
:100A0000E62C7D1C0E2DFB09FA09F909F809F80AF4
:100A10000319F90A0319FA0A0319FB0A7B08F30000
:100A20007A08F2007908F1007808F0000800031352
:100A30008312FD01F31F292DF009F109F209F309D1
:100A4000F00A0319F10A0319F20A0319F30A8130B3
:100A5000FD07F71F372DF409F509F609F709F40A20
:100A60000319F50A0319F60A0319F70AFD0A5225B4
:100A70007D1C512DF009F109F209F309F809F90972
:100A8000FA09FB09F00A0319F10A0319F20A03191A
:100A9000F30A0319F80A0319F90A0319FA0A0319E0
:100AA000FB0A0800031383122230FC00F801F9014D
:100AB000FA01FB01FC030319882D0310FB0CFA0C4F
:100AC000F90CF80CF30CF20CF10CF00C031C5A2D81
:100AD000FC0303197A2D7408F80775080318750FBD
:100AE000F90776080318760FFA0777080318770FC7
:100AF000FB075E2D7408F80775080318750FF907D2
:100B000076080318760FFA0777080318770FFB07A4
:100B1000080003138312710DF80DF90D7408F80223
:100B20007508031C750FF902F00DF10D0F30FC0074
:100B3000710DF80DF90D7408701CA42DF8027508DC
:100B4000031C750FF902A92DF80775080318750F16
:100B5000F907F00DF10DFC0B982D7018B52D7408E8
:100B6000F80775080318750FF907080003138312B7
:100B7000F801F9011030FC00710DF80DF90D740841
:100B8000F8027508031C750FF9020318CE2D7408BE
:100B9000F80775080318750FF9070310F00DF10D2C
:100BA000FC0BBC2D0800031383169816903083129B
:100BB000980083168616861783120C08F100003001
:100BC000F11A0130F1007108013A0319DC2D080017
:100BD000031383121A08D5001808F1000030F11829
:100BE0000130F1007108013A031DF82D1812181692
:100BF0005508F000080003138312FB09FA09F909EC
:100C0000F809F80A0319F90A0319FA0A0319FB0A81
:100C10000800031383120C08F1000030F11A0130B0
:100C2000F1007108D5005508F0000800FF3FFF3FB4
:02400E00FFFFB2
:00000001FF
