:100000000428FF3FFF3FFF3FD030031383168500D6
:100010006F30860087018B01031783129E019F01B9
:1000200003138701A101A201A301A401A501A60157
:10003000A701A801A901AA01193083169900181572
:1000400035262B30BA002F30B200B3013230BB005E
:10005000ED242B30BA0037237008A1007108A200EC
:10006000E830F4000330F50093247008A90071080B
:10007000AA0000307106031D3F2801307006031DE1
:1000800020296430F400F5012108F0002208F10075
:1000900093247008B4007108B5002908F0002A08FC
:1000A000F1000A30F400F501302570083402B80080
:1000B0007108031C013F3502B9003808A700390850
:1000C000A8000A30F400F5012108F0002208F10030
:1000D00093247008B4007108B5003808F00039089E
:1000E000F1000A30F400F50130257008B402031C59
:1000F000B5037108B5022908F0002A08F100643040
:10010000F400F501302570083402B6007108031CB4
:10011000013F3502B7003608A5003708A6003608AB
:10012000F0003708F1000A30F400F50130257008BE
:100130002102B4007108031C013F2202B5003808F7
:10014000F0003908F1006430F400F5013025700842
:10015000B402031CB5037108B5022908F0002A088F
:10016000F100E830F4000330F50030257008340267
:10017000F0007108031C013F3502F1007008A30074
:100180007108A4001030F0070318F10A7008870006
:100190000730FB00FF30FA00FB0BCF28D228FA0B08
:1001A000CF28CC287830FA00FA0BD42800000000C1
:1001B00020303607F00037080318013FF100003007
:1001C000F107700887000730FB00FF30FA00FB0BD7
:1001D000EA28ED28FA0BEA28E7287830FA00FA0B2B
:1001E000EF280000000040303807F00039080318FD
:1001F000013FF1000030F107700887000730FB0075
:10020000FF30FA00FB0B05290829FA0B0529022902
:100210007830FA00FA0B0A290000000081308700CC
:100220000730FB00FF30FA00FB0B17291A29FA0BE5
:10023000172914297830FA00FA0B1C290000000055
:1002400000302A06031D262902302906031D072A2D
:100250006430F400F5012108F0002208F100932435
:100260007008B4007108B5002908F0002A08F100F0
:100270000A30F400F501302570083402B800710826
:10028000031C013F3502B9003808A7003908A8004F
:100290000A30F400F5012108F0002208F10093244F
:1002A0007008B4007108B5003808F0003908F10092
:1002B0000A30F400F50130257008B402031CB503C0
:1002C0007108B5022908F0002A08F1006430F40032
:1002D000F501302570083402B6007108031C013F97
:1002E0003502B7003608A5003708A6003608F0002A
:1002F0003708F1000A30F400F501302570082102BA
:10030000B4007108031C013F2202B5003808F00058
:100310003908F1006430F400F50130257008B402AA
:10032000031CB5037108B5022908F0002A08F10082
:10033000E830F4000330F500302570083402F00096
:100340007108031C013F3502F1007008A300710819
:10035000A4001030F0070318F10A70088700073076
:10036000FB00FF30FA00FB0BB629B929FA0BB629BE
:10037000B3297830FA00FA0BBB29000000002030C6
:100380003607F00037080318013FF1000030F1078D
:10039000700887000730FB00FF30FA00FB0BD12903
:1003A000D429FA0BD129CE297830FA00FA0BD629B4
:1003B0000000000040303807F00039080318013F02
:1003C000F1000030F107700887000730FB00FF30B4
:1003D000FA00FB0BEC29EF29FA0BEC29E92978301C
:1003E000FA00FA0BF1290000000082308700073084
:1003F000FB00FF30FA00FB0BFE29012AFA0BFE2955
:10040000FB297830FA00FA0B032A000000002128AB
:10041000082A031383127408F8027508031C750F69
:10042000F9027608031C760FFA027708031C770F8F
:10043000FB02F30D0730FC00730DF80DF90DFA0DFA
:10044000FB0D7408731C322AF8027508031C750F23
:10045000F9027608031C760FFA027708031C770F5F
:10046000FB023F2AF80775080318750FF90776088D
:100470000318760FFA0777080318770FFB07F30DB9
:10048000FC0B1C2A720DF80DF90DFA0DFB0D74080A
:10049000731C582AF8027508031C750FF9027608B8
:1004A000031C760FFA027708031C770FFB02652AFC
:1004B000F80775080318750FF90776080318760F03
:1004C000FA0777080318770FFB07F20D0730FC00D7
:1004D000720DF80DF90DFA0DFB0D7408721C7E2AD1
:1004E000F8027508031C750FF9027608031C760FD5
:1004F000FA027708031C770FFB028B2AF8077508AE
:100500000318750FF90776080318760FFA077708AE
:100510000318770FFB07F20DFC0B682A710DF80D1D
:10052000F90DFA0DFB0D7408721CA42AF802750867
:10053000031C750FF9027608031C760FFA02770880
:10054000031C770FFB02B12AF80775080318750F13
:10055000F90776080318760FFA0777080318770F5C
:10056000FB07F10D0730FC00710DF80DF90DFA0DC8
:10057000FB0D7408711CCA2AF8027508031C750F5C
:10058000F9027608031C760FFA027708031C770F2E
:10059000FB02D72AF80775080318750FF9077608C4
:1005A0000318760FFA0777080318770FFB07F10D8A
:1005B000FC0BB42A700DF80DF90DFA0DFB0D740843
:1005C000711CF02AF8027508031C750FF9027608F1
:1005D000031C760FFA027708031C770FFB02FD2A33
:1005E000F80775080318750FF90776080318760FD2
:1005F000FA0777080318770FFB07F00D0730FC00A8
:10060000700DF80DF90DFA0DFB0D7408701C162B0A
:10061000F8027508031C750FF9027608031C760FA3
:10062000FA027708031C770FFB02232BF8077508E3
:100630000318750FF90776080318760FFA0777087D
:100640000318770FFB07F00DFC0B002B7018362BEF
:100650007408F80775080318750FF907760803186A
:10066000760FFA0777080318770FFB0708000313C4
:100670008312BB01BC011030BF002730C000BD0198
:10068000BE01C301C401C501C601C101C2013D08CB
:100690003A0784000008F4007408003A0319B32BE9
:1006A0003D083A0784000008F40074082D3A031D41
:1006B000602BFF30C100C201BD0A0319BE0A472BDF
:1006C0003D083A0784000008F4007408203A031932
:1006D000A32B3D083A0784000008F0003030F800F2
:1006E000F901FA01FB017008F400F501F601F701C8
:1006F0007408F0007508F1007608F2007708F3003E
:100700007808F0027908031C790FF1027A08031CBB
:100710007A0FF2027B08031C7B0FF3023F08F40000
:100720004008F500F601F70179257008C307710844
:100730000318710FC40772080318720FC5077308F6
:100740000318730FC6070A30F400F5013F08F000E4
:100750004008F10018267008BF007108C000BD0AEB
:100760000319BE0A472B410842040319BB2B06306C
:10077000BF00C001BE2B0530BF00C0013E084006CF
:10078000031DC42B3F083D060319E02B0A30F4007B
:10079000F501F601F7014308F0004408F1004508AF
:1007A000F2004608F300F9237008C3007108C40082
:1007B0007208C5007308C600BD0A0319BE0ABE2B25
:1007C0004308BB004408BC0000304206031DEA2B6E
:1007D000FF304106031DF42B3B08003CBB003C08E6
:1007E000031C013FBC01BC023B08F0003C08F100C7
:1007F000080003138312FC01F71BFC0AFD01FB0137
:10080000FA01F901F8017308720471047004031904
:100810008D2C73087706A000A01BFD09F71F1B2C69
:10082000F409F509F609F709F40A0319F50A031999
:10083000F60A0319F70AF31F282CF009F109F20947
:10084000F309F00A0319F10A0319F20A0319F30A6A
:1008500073087704A000A01B492C0922FC1B662CFE
:10086000FD1F8D2CF009F109F209F309F00A0319B3
:10087000F10A0319F20A0319F30AF809F909FA0946
:10088000FB09F80A0319F90A0319FA0A0319FB0A02
:100890008D2CF71F602CF31B5A2C7308FB00720879
:1008A000FA007108F9007008F800F301F201F10193
:1008B000F001302CF301F201F101F001F00A0034F3
:1008C000F309F209F109F009FC172D2CF80A0319B4
:1008D000F90A0319FA0A0319FB0A74087802031DBE
:1008E000302C75087902031D302C76087A02031D1E
:1008F000302C77087B02031D302CFB01FA01F90133
:10090000F801F00A0319F10A0319F20A0319F30AAC
:10091000F31F302CA0012016FF34A0017C1C912C69
:100920005D26003F080003138312FD01F901F80161
:10093000710870040319003471087506FA00FA1B77
:10094000FD09FB01F51FA92CF409F509F40A0319A7
:10095000F50AF11FB02CF009F109F00A0319F10AA8
:1009600071087504FA00FA1BC52CEB257B18D82CEE
:10097000FD1F0034F009F109F00A0319F10AF80922
:10098000F909F80A0319F90A0034F51FD42CF11BF0
:10099000D02C7108F9007008F800F101F001B82CB2
:1009A000F101F001F00A0034F109F009FB0AB52C5D
:1009B000F80A0319F90A74087802031DB82C75089F
:1009C0007902031DB82CF901F801F00A0319F10AA4
:1009D000F11FB82C0000FF34080003138312BC0180
:1009E000BD01C0013B0884000008BF006B267008F1
:1009F000003A0319262D4A267008BE003C083A0723
:100A0000F1007108840071088400700880003E08BD
:100A10003F06031D102D3D083C02C000BD0A122DEB
:100A2000BD01C0013D083B0784000008F1007108CA
:100A3000BF007108003A031D1E2D272DBC0A3C087B
:100A4000143C0318262D1330C000272DF62C400827
:100A50003A07F000700884007008840080010800E4
:100A600003138312FB01FA01F9018030F800FD0144
:100A7000F11F402DF109F009F00A0319F10AFD0AEE
:100A8000F51F482DF509F409F40A0319F50AFD0AC2
:100A9000F10CF00C031C552D7408F90775080318A8
:100AA000750FFA070318FB0A0310F01F5D2D740879
:100AB000FA070318FB0A7508FB07FB0CFA0CF90C84
:100AC000F80C031C482D7D1C702DFB09FA09F9094F
:100AD000F809F80A0319F90A0319FA0A0319FB0AB3
:100AE0007B08F3007A08F2007908F1007808F0003A
:100AF000080003138312FD01F31F8B2DF009F10988
:100B0000F209F309F00A0319F10A0319F20A0319A9
:100B1000F30A8130FD07F71F992DF409F509F6094D
:100B2000F709F40A0319F50A0319F60A0319F70A73
:100B3000FD0AB4257D1CB32DF009F109F209F30972
:100B4000F809F909FA09FB09F00A0319F10A03196E
:100B5000F20A0319F30A0319F80A0319F90A031927
:100B6000FA0A0319FB0A0800031383122230FC005F
:100B7000F801F901FA01FB01FC030319EA2D031046
:100B8000FB0CFA0CF90CF80CF30CF20CF10CF00C59
:100B9000031CBC2DFC030319DC2D7408F807750831
:100BA0000318750FF90776080318760FFA07770808
:100BB0000318770FFB07C02D7408F8077508031892
:100BC000750FF90776080318760FFA0777080318E8
:100BD000770FFB07080003138312710DF80DF90D51
:100BE0007408F8027508031C750FF902F00DF10D79
:100BF0000F30FC00710DF80DF90D7408701C062EF5
:100C0000F8027508031C750FF9020B2EF80775081A
:100C10000318750FF907F00DF10DFC0BFA2D701884
:100C2000172E7408F80775080318750FF9070800E0
:100C300003138312F801F9011030FC00710DF80D57
:100C4000F90D7408F8027508031C750FF9020318F2
:100C5000302E7408F80775080318750FF90703108C
:100C6000F00DF10DFC0B1E2E0800031383169816D1
:100C700090308312980083168616861783120C080C
:100C8000F1000030F11A0130F1007108013A031946
:100C90003E2E0800031383121A08C7001808F1003B
:100CA0000030F1180130F1007108013A031D5A2E8D
:100CB000181218164708F000080003138312FB09E6
:100CC000FA09F909F809F80A0319F90A0319FA0ADD
:100CD0000319FB0A0800031383120C08F10000300B
:100CE000F11A0130F1007108C7004708F000080050
:02400E00C430BC
:00000001FF
